S02300006D63625F706D736D5F666F635F68616C6C5F5333324B3134344556422E6D6F74A1
S113000000700020B50400001D0500001D0500005F
S11300101D0500001D0500001D0500000000000076
S11300200000000000000000000000001D050000AA
S11300301D050000000000001D0500008DA8000043
S113004099360000A3360000AD360000B736000034
S1130050C1360000CB360000D5360000DF36000084
S1130060E9360000F3360000FD36000007370000D3
S1130070113700001B370000253700002F37000020
S1130080393700001D0500001D0500001D05000096
S11300901D0500001D0500001D0500001D050000D4
S11300A01D0500001D050000F96F0000037000002D
S11300B00D7000001D0500001D0500001D05000059
S11300C01D0500001D0500001D0500001D050000A4
S11300D01D0500001D0500001D05000085900000A1
S11300E08F9000001D0500001D0500001D05000087
S11300F01D0500001D0500001D0500001D05000074
S1130100ED9000001D0500001D0500001D05000008
S11301101D0500001D0500001D0500001D05000053
S11301201D0500001D0500001D050000B164000050
S1130130E964000021650000596500009165000034
S11301401D0500001D0500001D0500001D05000023
S11301501D0500001D0500001D0500001D05000013
S11301601D0500001D0500001D0500001D05000003
S11301701D0500001D0500001D0500001D050000F3
S11301801D0500001D0500001D0500001D050000E3
S11301901D0500001D0500001D0500001D050000D3
S11301A01D0500001D0500001D0500001D050000C3
S11301B01D0500001D0500001D0500001D050000B3
S11301C01D0500001D0500001D0500003D5A00002E
S11301D0495A0000555A0000615A000011520000AB
S11301E01D0500006D5A0000795A0000855A000070
S11301F0915A0000515200001D0500009D5A000054
S1130200A95A0000B55A0000C15A000091520000DA
S11302101D050000CD5A0000D95A0000E55A00001F
S1130220F15A0000D15200001D0500001D05000018
S11302301D0500001D0500001D0500001D05000032
S11302401D0500001D0500001D0500001D05000022
S11302501D0500001D0500001D0500001D05000012
S11302601D0500001D0500001D0500001D05000002
S11302701D0500001D0500001D0500001D050000F2
S11302801D0500001D0500001D0500001D050000E2
S11302901D0500001D0500001D0500001D050000D2
S11302A01D0500001D0500001D0500001D050000C2
S11302B01D0500001D0500001D0500001D050000B2
S11302C01D0500001D0500001D0500001D050000A2
S11302D01D0500001D0500001D0500001D05000092
S11302E01D0500001D0500001D0500001D05000082
S11302F01D0500001D0500001D0500001D05000072
S11303001D0500001D0500001D0500001D05000061
S11303101D0500001D0500001D0500001D05000051
S11303201D0500001D0500001D0500001D05000041
S11303301D0500001D0500001D0500001D05000031
S11303401D0500001D0500001D0500001D05000021
S11303501D0500001D0500001D0500001D05000011
S11303601D0500001D0500001D0500001D05000001
S11303701D0500001D0500001D0500001D050000F1
S11303801D0500001D0500001D0500001D050000E1
S11303901D0500001D0500001D0500001D050000D1
S11303A01D0500001D0500001D0500001D050000C1
S11303B01D0500001D0500001D0500001D050000B1
S11303C01D0500001D0500001D0500001D050000A1
S11303D01D0500001D0500001D0500001D05000091
S11303E01D0500001D0500001D0500001D05000081
S11303F01D0500001D0500001D050000FFFFFFFF97
S1130400FFFFFFFFFFFFFFFFFFFFFFFFFE7FFFFF79
S1130410044B05481B1A062B02D9044B03B1184799
S1130420704700BF9F89FF1F9C89FF1F00000000C9
S113043005490648091A891001EBD171491002D007
S1130440034B03B1184770479C89FF1F9C89FF1F0A
S11304500000000010B5064C237843B9FFF7D8FF1D
S1130460044B13B10448AFF300800123237010BD83
S11304700000002000000000E0EF000008B5084B79
S11304801BB108490848AFF300800848036813B952
S1130490BDE80840CCE7064B002BF9D09847F7E7B6
S11304A00000000004000020E0EF00009889FF1F16
S11304B00000000072B64FF000014FF000024FF050
S11304C000034FF000044FF000054FF000064FF01A
S11304D00007B846B946BA46BB46BC460A490B4A69
S11304E0521A013A05DD0020042308601944043A35
S11304F0FBDA07488546074880470748804762B6C5
S113050008F01AFEFEE700000080FF1F00700020C4
S113051000700020B1BE0000D9BD0000FFF7FEBF8F
S1130520002303700C2242708370C3700371437103
S11305308371C371037243728372704770B584B060
S113054006460D465D4B53F8204041238DF80C3090
S113055042238DF80D3004A9002341F8083D04AB73
S1130560034413F8040C02F0DBF92B78029ADA4006
S11305700292226C22F060025B0103F060031343D9
S113058023646B78002B08BF0123626C22F0FF0206
S113059013436364226C22F00C02AB789B0003F0DB
S11305A00C0313432364226C22F00302EB7803F060
S11305B0030313432364D4F8902022F040022B79E0
S11305C09B0103F040031343C4F890306B7930224D
S11305D000924FF440520192394A926904A901EB06
S11305E0860151F8101C22EA0102002E43D0012E8C
S11305F04FD0334B9A61AA79012100914FF4807155
S113060001919B6904A901EB860151F8101C23EAAE
S11306100103002E39D0012E45D0294A9361D4F824
S1130620903023F00403EA79002A14BF0422002244
S11306301343C4F89030D4F8902022F003022B7AAC
S113064003F003031343C4F89030D4F8943023F038
S113065008036A7A002A14BF082200221343C4F84C
S1130660943036B9AB7A1BBB154A536823F4002384
S1130670536004B070BD1B0103F0300313431049F1
S11306808B61AA798B6923F0010302F00102134301
S1130690C3E71B0303F44053134309498B61AA794D
S11306A08B6923F48073120202F480721343B4E75B
S11306B0034A536843F400235360DAE7B4DC0000D0
S11306C00080044030B484B0374B53F820301A6CA7
S11306D0C2F341120A705A6C4A701A6CC2F3810256
S11306E0012A56D0022A0CBF022200228A701A6CF8
S11306F002F00302CA70D3F89020C2F380120A7188
S113070000220292012200924FF480720192082288
S11307100392264A926904AC04EB800454F8105CFA
S11307202A4054F8084CE240012A14BF0022012256
S11307308A71302200924FF44052019204220292B4
S11307400C220392194A926904AC04EB800454F815
S1130750105C2A4054F8084CE240012A1BD0022ABB
S11307600CBF022200224A71D3F89020C2F3800207
S1130770CA71D3F8902002F003020A72D3F89430BD
S1130780C3F3C0034B7240B100238B7204B030BC7E
S113079070470122AAE70122E5E7044B5B68C3F333
S11307A0C0438B72F2E700BFB4DC00000080044059
S11307B000230370437083708380C3807047174B9A
S11307C053F82030D3F8902022F020020878002833
S11307D014BF202000200243C3F89020D3F89020B7
S11307E022F010024878002814BF10200020024391
S11307F0C3F89020D3F8902022F0080288780028CB
S113080014BF082000200243C3F890208A88C3F84C
S11308108820CA88C3F88C20704700BFB4DC00006D
S11308200C4B53F82030D3F89020C2F340120A70D6
S1130830D3F89020C2F300124A70D3F89020C2F388
S1130840C0028A70D3F888208A80D3F88C30CB8099
S1130850704700BFB4DC000000230370437070478E
S11308600C4B53F82020D2F8943023F0040308787A
S1130870002814BF042000200343C2F89430D2F8A7
S1130880940020F003004B7803F003030343C2F801
S113089094307047B4DC0000064B53F82020D2F8A3
S11308A09430C3F380030B70D2F8943003F0030345
S11308B04B707047B4DC0000002303701F23438097
S11308C0704730B4124B53F8200053881478A3F5C2
S11308D0706292B2052A0BD80E4A556825F4E025B9
S11308E0556055681B0403F4E0232B435360152320
S11308F050F8212003F01F0322F05F021343002C61
S113090014BF40220022134340F8213030BC70470A
S1130910B4DC0000008004400D4B53F8200050F874
S11309202130C3F38013137050F8213003F01F03F8
S113093008494968152B01D05380704711F4002FE2
S1130940FAD0044B5B68C3F3024303F57063F3E727
S1130950B4DC00000080044082B00E2300934FF406
S1130960606301930C4B9B6902AA02EB800252F86C
S1130970082C23EA020328B1012808D0064A93610F
S113098002B07047490001F00E010B43F6E749023B
S113099001F460610B43F1E70080044030B583B09B
S11309A00446224B53F8202000231F2142F8231031
S11309B00133102BFAD1002111640C235364C2F8C3
S11309C08810C2F88C10C2F89010C2F89410C2F8C3
S11309D0A0100423C2F8B030302300934FF44053E6
S11309E00193134B9A6902A800EB840050F8085C49
S11309F022EA05029A61012200924FF48072019268
S1130A009A6950F8080C22EA00029A612046FFF71E
S1130A10A3FF44B9064B5A6822F400225A605A686C
S1130A2022F4E0225A6003B030BD00BFB4DC000001
S1130A3000800440044B53F82020D2F8903013F087
S1130A40800FFAD1704700BFB4DC0000034B53F8A9
S1130A50203053F82100C0F3C0107047B4DC00000C
S1130A60044B53F82030123153F82130C3F30B03F5
S1130A7013807047B4DC00002DE9F04782B04F4B7F
S1130A8053F82040D4F89430C3F38008D4F8947019
S1130A9007F00307D4F89060656CEDB2D4F8943095
S1130AA043F00303C4F89430D4F8943043F00403BF
S1130AB0C4F89430D4F8903023F04003C4F8903054
S1130AC0636C23F0FF0343F00C0363640023C4F856
S1130AD0B430C4F8B830C4F8BC30C4F8C030C4F87A
S1130AE0C430C4F8C830C4F8CC3041228DF8042096
S1130AF042228DF8052002A941F8083DD4F840901F
S1130B004FEA591A02AB184410F8040C01F008FF1C
S1130B10009B0AF0030A23FA0AFA294A924512D9D9
S1130B20284A934208D9284A934245D9274A9342EE
S1130B3094BF0323002300E00123226C22F060020F
S1130B4042EA43132364D4F8943043F08003C4F896
S1130B509430D4F8943013F08003FAD1226C22F04C
S1130B60600209F0600949EA02022264D4F8942080
S1130B7022F00402B8F1000F18BF04231343C4F891
S1130B809430D4F8943023F003031F43C4F89470D2
S1130B90D4F8903023F0400306F040061E43C4F816
S1130BA09060002D08BF0125636C23F0FF031D43F3
S1130BB0656402B0BDE8F0870223BEE7B4DC000040
S1130BC040787D0181F0FA0203E1F50507C2EB0BE1
S1130BD004230380002343807047F0B4114B53F87F
S1130BE020200B88D2F8C400D2F8C070D2F8BC60C0
S1130BF0D2F8B850D2F8B440C2F8B0303844034404
S1130C0033442B44234413F4784F14BF4FF0FF3381
S1130C1000239BB2C2F8AC308B78C2F8A030F0BC91
S1130C20704700BFB4DC0000064B53F82020D2F814
S1130C30B030C3F309030B80D2F8A030DBB24B8091
S1130C40704700BFB4DC0000024B184490F9080060
S1130C50704700BFB4DC0000074B53F82020012983
S1130C6005D0D2F8903013F4702FFAD17047136C7A
S1130C7043F480731364F4E7B4DC0000044B53F8CA
S1130C802020D2F8903043F07063C2F8903070475F
S1130C90B4DC0000034B53F82030D3F89000C0F3C9
S1130CA003607047B4DC0000074B5B69DBB2042BC4
S1130CB006D0802B06D0012B0CBF012004207047E6
S1130CC0022070470320704700E00740044BD3F82C
S1130CD0003113F0807F1ABF024B18680020704760
S1130CE0004006403826002010B584B00B46002989
S1130CF03BD0444AD2F8002112F0007F7DD1414A12
S1130D00D2F8001121F40001C2F800114FF0806103
S1130D10C2F8001100213C4A1160002870D05A7AB0
S1130D20120202F4E062197A01F007010A4335481D
S1130D30C0F80421DA79120102F030029979C9006D
S1130D4001F008010A435979890001F004010A43BA
S1130D50C0F808211A79012A29D0E2B1022A32D036
S1130D601A68294B1A60294C3BE000238DF80430A3
S1130D708DF80C3001228DF808208DF809208DF8AB
S1130D8005208DF8063002238DF8073004AB204A85
S1130D9043F8102DADE71A7B002A14BF4FF400026C
S1130DA0002242F001021749C1F80021D8E71A7B5A
S1130DB0002A14BF4FF40002002242F0011211492C
S1130DC0C1F80021CCE71A7B002A14BF4FF40302B8
S1130DD04FF4403242F001020A49C1F80021BFE752
S1130DE0013CFFF773FF18B9002CF9D1032005E08B
S1130DF0002C14BF0020032000E0022004B010BD2A
S1130E000020FBE7004006403826002088E7300039
S1130E1000127A00084BD3F8003213F0807F09D017
S1130E20054BD3F8083203F00103002B034808BF35
S1130E3000207047002070470040064000127A00EE
S1130E4010B582B00B46002938D02D4AD2F80022C2
S1130E5012F0007F4FD12A4AD2F8001221F4000187
S1130E60C2F800120021C2F80012002846D09A7875
S1130E70120202F4E062597801F007010A432049A2
S1130E80C1F804221A7802F00102C1F80822597943
S1130E909A791B79002B14BF03230123002914BF63
S1130EA0042100210B43002A14BF4FF40002002246
S1130EB01343134AC2F80032642410E000238DF86F
S1130EC0043001228DF805208DF806308DF80120BC
S1130ED08DF8022002AB03F8082DB6E7013CFFF7BA
S1130EE099FF18B9002CF9D1032005E0002C14BF98
S1130EF00020032000E0022002B010BD0020FBE728
S1130F0000400640054BD3F8003313F0807F1DBF2B
S1130F10024BD3F8083302480020704700400640D3
S1130F20006CDC0210B582B00B46002932D0294A8D
S1130F30D2F8002312F0007F47D1264AD2F80013DA
S1130F4021F40001C2F800134FF08061C2F80013CD
S1130F5000283DD09A78120202F4E062597801F038
S1130F6007010A431B49C1F804231A7802F003025B
S1130F70C1F808239A795B79002B14BF0123092354
S1130F80002A14BF4FF4000200221343C1F80033B7
S1130F9064240EE001238DF8053000228DF806202C
S1130FA08DF801308DF8023002AB03F8082DBEE74E
S1130FB0013CFFF7A7FF18B9002CF9D1032005E085
S1130FC0002C14BF0020032000E0022002B010BD5A
S1130FD00020FBE70040064008B50F4BD3F800366D
S1130FE013F0807F02D10023184608BDFFF76EFE80
S1130FF003460028F8D00849D1F80826C2F3022293
S11310000132B0FBF2F3D1F80826C2F304421032E5
S113101003FB02F35B08E7E70040064010B584B029
S11310200C4699B13D4BD3F8003613F0007F72D1D2
S11310303A4BD3F8002622F40002C3F800264FF0FE
S11310408062C3F80026A0B9002065E000238DF873
S113105004308DF80B3001228DF808208DF809201A
S11310608DF8053007228DF806208DF8073001AC85
S1131070D8E7FFF72BFE63791B0203F4E0632279C0
S113108002F0070213432549C1F8043663781B02B2
S113109003F4E063A278120402F4F8121343C1F8D3
S11310A008362378012B16D04BB1022B1FD04FF4F6
S11310B07A74FFF791FF48BB34B3013CF9E7E37955
S11310C0002B14BF4FF40003002343F00103134A21
S11310D0C2F80036EBE7E379002B14BF4FF40003AA
S11310E0002343F001130D4AC2F80036DFE7E37929
S11310F0002B14BF4FF403034FF4403343F00103B8
S1131100064AC2F80036D2E7032005E0002C14BFDB
S11311100020032000E0022004B010BD004006407F
S11311202DE9F04180460D468C7801344E7806FB5B
S113113004460F7807FB0447CB78013B052B1CD8EA
S1131140DFE803F00312151B1B18FFF7BFFD0009AE
S1131150B8F1020F4AD0B8F1030F7CD0B8F1010FF7
S11311600DD00020BDE8F081FFF754FEEFE7FFF754
S1131170C9FEECE7FFF730FFE9E70020E7E7EA788C
S113118002EB42015D4B53F821301B0904FB03F4CD
S1131190A04200F298800B46584901EB83035B6838
S11311A01B0906FB03F6B04200F2908002EB4203F7
S11311B001EB83039B681B0907FB03F7B84200F2AA
S11311C08880AB781B0403F47023120602F070626B
S11311D013432A7802F00F0213436A781201D2B241
S11311E01343474A53610020BDE8F081EA7802EBDB
S11311F04201424B03EB81035B6D1B0904FB03F4C7
S1131200A04269D80B463D4901EB83039B6D1B0942
S113121006FB03F6B04262D802EB420301EB830300
S1131220DB6D1B0907FB03F7B8425BD8AB781B04E3
S113123003F47023120602F0706213432A7802F05A
S11312400F0213436A781201D2B213432C4A9361FA
S11312500020BDE8F081EB7803EB4301274A02EB61
S11312608102D2F8A820120904FB02F4A0423CD85F
S11312700A46224901EB8202D2F8AC20120906FB8D
S113128002F6B04234D803EB430201EB8202D2F8F7
S1131290B020120907FB02F7B8422CD8AA7812042E
S11312A002F470221B0603F0706313432A7802F0E1
S11312B00F0213436A781201D2B21343104AD36166
S11312C00020BDE8F0810120BDE8F0810120BDE8E7
S11312D0F0810120BDE8F0810120BDE8F08101200A
S11312E0BDE8F0810120BDE8F0810120BDE8F08176
S11312F00120BDE8F0810120BDE8F081C0DC0000E0
S11313000040064038B50546FFF7CEFC2946FFF7F6
S113131007FF044658B9E8780A220849013A0B69DC
S1131320C3F30363984204D0002AF7D10324204670
S113133038BD002A08BF0324F9E700BF0040064077
S113134010B504461B4B1B69C3F30363013B052B18
S11313501DD8DFE803F00313161C1C19FFF7B6FCB5
S1131360144B1B69C3F303430133B0FBF3F0012CAB
S11313700FD0ECB1022C14D0002010BDFFF74AFDB1
S1131380EEE7FFF7BFFDEBE7FFF726FEE8E70020F7
S1131390E6E7084B1B69C3F303130133B0FBF3F017
S11313A010BD044B1B6903F00F030133B0FBF3F0D2
S11313B010BD00BF0040064008B50F4B1B6AC3F3C5
S11313C00363062B15D8DFE803F004080B0E14148E
S11313D011000220FFF7B4FF08BDFFF777FC08BD3A
S11313E0FFF718FD08BDFFF78DFD08BDFFF7F4FDFD
S11313F008BD002008BD00BF0040064008B541B14B
S1131400012931D00020024610B1431E22FA03F014
S113141008BD0438032852D8DFE800F00B02141D7D
S1131420FFF770FD0246294BD3F8040300F00700D0
S1131430EAE7FFF7EFFC0246244BD3F8040200F07E
S11314400700E1E7FFF742FC0246204BD3F8040112
S113145000F00700D8E7FFF7BFFD02461B4BD3F8A7
S1131460040600F00700CFE7043803282AD8DFE891
S113147000F00B02141DFFF745FD0246134BD3F891
S11314800403C0F30220BFE7FFF7C4FC02460F4B7E
S1131490D3F80402C0F30220B6E7FFF717FC0246B4
S11314A00A4BD3F80401C0F30220ADE7FFF794FD23
S11314B00246064BD3F80406C0F30220A4E700203A
S11314C00246A1E7002002469EE700BF0040064016
S11314D008B5114B1B69C3F30113032B19D8DFE8BB
S11314E003F00207101300210620FFF787FF08BD51
S11314F0094B186900F00200002818BF4FF4FA40A5
S113150008BD064B186808BD00210520FFF776FFCB
S113151008BD002008BD00BF008004403C26002018
S1131520114B1B69C3F38103022B07D0032B0ED08D
S1131530002B0CBF4FF4FA30002070470A4B186997
S113154000F00200002818BF4FF4FA407047064B21
S1131550186910F0020006D0186900F00100002894
S113156018BF4FF47A7070470080044008B5244BCC
S11315705B6813F4006F40D0214B5B68C3F3031323
S11315800E2B09D8DFE803F00A080D081208171C0F
S113159020252F0829082C00002026E0FFF70CFF47
S11315A023E001210620FFF729FF1EE0012104208A
S11315B0FFF724FF19E001210520FFF71FFF14E0C6
S11315C00020FFF7BDFE10E001210720FFF716FF02
S11315D00BE00120FFF7B4FE07E0FFF7A1FF04E0F2
S11315E0FFF776FF01E04FF4FA30054B5B68C3F375
S11315F002230133B0FBF3F008BD002008BD00BF97
S11316000080044010B50C4615380E2800F2A38063
S1131610DFE800F008131E29333D414B5D6A737EF9
S113162087909900584BDB68C3F30163022B00F2E7
S11316309D80564A52F8233022E0534BDB68C3F3B3
S11316408163022B00F29480504A52F8233017E051
S11316504D4BDB68C3F30173022B00F28B804B4AC2
S113166052F823300CE0484BDB689B0F022B00F24E
S11316708380464A52F8233002E0FFF777FF03469F
S11316800020002B6AD0002C7CD0236010BDFFF713
S11316901FFF0346F4E73E4B9B78DB0901D0002390
S11316A0EEE7FFF73DFF0346EAE7394B9B78DB099A
S11316B064D1354B1B6913F00203E1D0324B1B6933
S11316C003F00103002B18BF4FF47A73D8E7304BB3
S11316D09B78DB0954D12C4B1B6903F00203002BCC
S11316E018BF4FF4FA43CBE7294B9B78DB09002B57
S11316F014BF00234FF4FA33C2E7234B1B6CC3F32C
S1131700001383B30120FFF71BFE03460020B8E754
S11317101D4B1B6CC3F3C003002BF3D14FF480703B
S1131720B1E7194B1B6CC3F38003002BEAD14FF4D0
S11317308070A8E7144B1B6CC3F34003002BE1D16A
S11317404FF480709FE7104B1B6C13F00103D9D149
S11317504FF4807097E70420002392E7042818BF11
S11317604FF480708FE74FF480708CE7002387E795
S1131770002385E7002383E7002381E700237FE735
S113178000237DE710BD00BF0080044040260020F8
S113179000D0074030B583B0002301932F4B03EBF7
S11317A04003B3F8FC309B0003F1804303F5CA23E4
S11317B01D68C5F3C0051C6804F00704AC4219D3C6
S11317C01A6812F0804F15D01B68C3F30263013B03
S11317D0052B21D8DFE803F003111620201B062077
S11317E0FFF70CFE01900134019BB3FBF4F405FBFD
S11317F004440194019803B030BD0420FFF7FEFDBA
S11318000190F0E70520FFF7F9FD0190EBE70720D1
S1131810FFF7F4FD0190E6E73C3803281BD8DFE826
S113182000F002080E1401A91520FFF7EBFE0024B6
S1131830D9E701A91620FFF7E5FE0024D3E701A9A3
S11318401720FFF7DFFE0024CDE701A91820FFF7DA
S1131850D9FE0024C7E70024C5E700BFC0DC0000B0
S113186030B583B00546FFF7B7FB88B1062D56D0D7
S113187006238DF8073002238DF8063001238DF8F6
S1131880053002A800F8043DFFF73CFD044600E0E3
S11318900124FFF737FB10B1032D4AD074B9FFF7C9
S11318A015FA10B1012D4DD0D4B9FFF7B3FA10B128
S11318B0022D00D01CBB204603B030BD03238DF89D
S11318C0073000228DF8062001228DF8052002A899
S11318D000F8043DFFF716FD0446E0E70124E3E7C2
S11318E001238DF8073000228DF806208DF805308D
S11318F002A800F8043DFFF705FD0446D5E70223DE
S11319008DF8073000238DF806308DF8053002A8D5
S1131910012300F8043DFFF7F5FC0446CBE7FFF78D
S1131920F1FA0028CAD1FFF7D1F90028D6D1012451
S1131930BBE7FFF7CBF90028B6D1FFF76BFA002815
S1131940B8D1B8E7FFF766FA0028B3D1B3E7174B6D
S11319501B69C3F30363013B052B06D8DFE803F0DF
S1131960031D200505230123C37010490A69104B88
S1131970C2F303121A4492F89C2142700A69C2F31A
S113198003421A4492F89C2182700A6902F00F0201
S1131990134493F89C31037070470223C370E4E747
S11319A00323C370E1E70623C370DEE7004006406B
S11319B0C0DC000001383F282DD8DFE800F02A28D9
S11319C02C262C2C2C242C2C2C2C2C2C2C222C2C6B
S11319D02C2C2C2C2C2C2C2C2C2C2C2C2C202C2C4F
S11319E02C2C2C2C2C2C2C2C2C2C2C2C2C2C2C2C33
S11319F02C2C2C2C2C2C2C2C2C2C2C2C2C2E062053
S1131A007047052070470420704703207047022068
S1131A107047012070470020704707207047F0B5D9
S1131A20A5B028B304460646002800F0FF80C54B45
S1131A301B69C3F30363032B00F0C680FFF762FA4C
S1131A40002800F0B88003238DF8073000228DF8B9
S1131A50062001228DF8052024A800F88C3DFFF70C
S1131A6051FC0546002800F0AF80284625B0F0BDA3
S1131A7001238DF80B3000228DF80C208DF80D30E9
S1131A808DF80E208DF808308DF809308DF80A3065
S1131A908DF816308DF814308DF815208DF80F2040
S1131AA08DF810308DF811308DF838300D928DF896
S1131AB02530A54906918DF81C208DF824208DF839
S1131AC01D308DF81E2002208DF81F008DF8203067
S1131AD08DF821308DF830308DF828208DF82F20A6
S1131AE08DF829200C218DF82A108DF82B208DF8E3
S1131AF02C308DF82D308DF83D3003218DF83C10BD
S1131B008DF84B308DF841108DF840208DF83F3022
S1131B108DF83E308DF845008DF844308DF8432023
S1131B208DF8421006208DF849008DF848208DF874
S1131B3047308DF8461085492291202121918DF856
S1131B404C308DF84D208DF84E208DF84F208DF8B7
S1131B5050308DF854308DF853308DF852208DF874
S1131B6051208DF878308DF879308DF87A308DF8F1
S1131B707B308DF87C308DF87D308DF883308DF896
S1131B8058301792189219921A921B921C921D9215
S1131B908DF87E308DF87F308DF880208DF881208F
S1131BA08DF882208DF88C308DF88D308DF88E2054
S1131BB002AE34463BE700210120FFF7B3F90546A6
S1131BC000287FF452AF3EE73146E078FFF738F95A
S1131BD00546002800F0C280FFF766F8022800F0EE
S1131BE0F780032800F0F780012800F0D180002D51
S1131BF07FF43BAF0022564B1A6094F8303013B197
S1131C00E26A534B1A6094F8353053B14D490A6A6D
S1131C1022F0706294F834301B0603F070631343AF
S1131C200B6294F84330002B40F0338194F8443035
S1131C30E3B194F8455094F8463094F84720454968
S1131C40486820F400604860496821F47F61002DF1
S1131C5014BF4FF4006000201B01DBB2120202F437
S1131C60E06213430B4303433A4A536094F8483009
S1131C70DBB194F84A3094F849203649096921F0D7
S1131C803F0194F84C00014394F84B00002814BF22
S1131C90022000209B0003F00C030B43120102F00E
S1131CA03002134303432B4A136194F87030002B22
S1131CB037D0284B196C21F0010194F871200A43A4
S1131CC01A641B6C23F0020394F87220002A14BFD8
S1131CD00222002213431F4A1364136C23F00403EB
S1131CE094F87320002A14BF042200221343194AD3
S1131CF01364136C23F0080394F87420002A14BFAF
S1131D00082200221343134A1364136C23F01003B4
S1131D1094F87520002A14BF1022002213430D4AA0
S1131D20136494F85030002B00F000810A4B626D6C
S1131D301A60A26D5A60E26D9A6004F1600001219C
S1131D40044DCBE00040064000127A000084FF1FDF
S1131D503C260020008004404026002004F11001AD
S1131D60607FFEF7C1FF054600287FF435AF04F11C
S1131D70200194F82800FFF751F90546FEF794FF77
S1131D80022825D0032826D0012801D0002601E00E
S1131D9004F13606002D7FF42AAFF378032B1DD00F
S1131DA08DF80730B3788DF8063073788DF80530E8
S1131DB0337824A800F88C3DFFF7A4FA05460028E0
S1131DC07FF415AFE11DA07BFFF7ACF805460EE7E5
S1131DD004F13A06DEE704F13E06DBE794F8283026
S1131DE00BBB637F93BBE378002B42D10125002D0D
S1131DF07FF4FDAEE11DA07BFFF794F805460028B3
S1131E007FF4F5AEF3788DF80730B3788DF80630AB
S1131E1073788DF80530337824A800F88C3DFFF7EB
S1131E2071FA0546E3E606238DF8073002238DF8A0
S1131E30063001238DF8053024A800F88C3DFFF707
S1131E4061FA0546637F7BB10128D0D101238DF867
S1131E50073000228DF806208DF8053024A800F8FC
S1131E608C3DFFF74FFA0546E378002BBFD0012DD8
S1131E70BDD102238DF8073000238DF806308DF88C
S1131E80053024A8012300F88C3DFFF73BFA0546F2
S1131E90ADE704F136010120FFF742F905460028B9
S1131EA07FF4E3AD04F13A010220FFF739F9054666
S1131EB000287FF4DAAD04F13E010320FFF730F986
S1131EC0054600287FF4D1ADB0E626F040761B0627
S1131ED003F040733343EB600131C9B250F8043B63
S1131EE0EE684A1ED2B2032A00F2A18001A757F875
S1131EF022F000BFCB1E0000051F0000131F0000CE
S1131F00211F000026F040669B0603F04063334324
S1131F10E1E726F040561B0703F040533343DAE76A
S1131F2026F0404646EA8373444AD36094F87630F8
S1131F30EBB1424A936E00209066516821F48051BF
S1131F4094F878301B0303F480530B43536090667A
S1131F5094F877305BB194F879305B0003F00E03AA
S1131F6094F87A2042F080521343344A936614F171
S1131F707C0F3DD0D4F88030002B39D0E36F002B98
S1131F8036D000212E482F4D01EB8102D4F8803049
S1131F909B5C00EB4303B3F8FC309B0003F18043EC
S1131FA003F5CA231E6826F080461E60D4F88030EC
S1131FB09F189E5CBB781B0603F0E063FA78D2009E
S1131FC002F0080213433A7902F0070213437A78C5
S1131FD0002A14BF4FF080420022134300EB460650
S1131FE0B6F8FC2045F822300131E36F9942CBD397
S1131FF094F8843003B314498B7803F07F0394F886
S1132000852082F0010243EAC213DBB28B7094F99B
S11320108630002BBCBF20335BB20B490A7903F036
S11320201F0302F0E00213430B7100251DE5EE606F
S113203003297FF651AF79E7002516E500800440B7
S1132040C0DC00000050064000D0074070B50446D4
S11320500D46112807D9232840F285804D2840F2E7
S11320608580042070BD11287AD8DFE800F00913B8
S1132070191F24292E33383C41484F565D646B7236
S11320800020FFF75DF903460020002D00F0D98001
S11320902B6070BD0120FFF753F903460020F4E7DD
S11320A00220FFF74DF903460020EEE7FFF75EFA42
S11320B003460020E9E7FEF7ADFE03460020E4E70F
S11320C0FEF720FF03460020DFE7FEF7FFFD03468F
S11320D00020DAE7FEF780FF03460020D5E7594BDE
S11320E01B680020D1E7FFF767F903460020CCE71F
S11320F000210420FFF782F903460020C5E70121EF
S11321000420FFF77BF903460020BEE700210520E9
S1132110FFF774F903460020B7E701210520FFF714
S11321206DF903460020B0E700210620FFF766F9A9
S113213003460020A9E701210620FFF75FF90346C3
S11321400020A2E700210720FFF758F903460020EA
S11321509BE701210720FFF751F90346002094E78C
S11321600023042091E7FFF74DFA70BD242805D819
S113217004200023002D64D02B6070BDA0F1330334
S1132180DBB21A2B07D8304A22FA03F313F0010FFB
S113219018BF0420EDD12D4B03EB4403B3F8FC200E
S11321A02B4B53F8223013F0804F37D14FF480700B
S11321B0DFE70120FFF7C4F8034600283CD10023E1
S11321C04FF48070D6E70020FFF7BAF803460028E2
S11321D0F5D031E00220FFF7B3F803460028EED033
S11321E02AE016F0080F06D116F0100F0BD10023C9
S11321F04FF48070BEE700212046FFF7CBFA034678
S113220016F0100F04D001212046FFF7C3FA03464D
S1132210002B14BF00204FF48070ABE70B4B23441A
S113222093F8AC6116F0200FC3D116F0400FCAD159
S113223016F0800FCED1002316F0180FD1D1002054
S113224098E770BD3C26002041210004C0DC00005A
S11322500050064070B582B004460D4689B1554B16
S1132260234493F8AC3113F0010F63D113F0180F2A
S113227030D06A78043A032A5AD8DFE802F02325DA
S1132280272901238DF80030FEF7C4FD48B104234B
S11322908DF801300123ADF80230ADF804306D46FD
S11322A0DDE7FEF72FFE08B10523F1E7FEF794FE04
S11322B008B10723ECE7FEF709FD002814BF062345
S11322C04F23E5E7022206E0032204E0012202E0B4
S11322D0062200E0002213F0040F1ABFAE8806F1B4
S11322E0FF36002613F0020F1ABF698801F1FF318F
S11322F00021304B03EB4404B4F8FC40A30003F189
S1132300804303F5CA23186820F0804018602B78B6
S113231063B1120642F0804206F007063243C90058
S113232001F008010A43244B43F8242002B070BD95
S11323300022D0E72B781F3C042CF7D8DFE804F008
S11323402E22160A03001D490A6C22F001021343CF
S11323500B64EBE7194A126C22F00202002B14BF43
S1132360022300231343154A1364DFE7134A126C54
S113237022F00402002B14BF0423002313430F4A4A
S11323801364D3E70D4A126C22F00802002B14BF29
S1132390082300231343094A1364C7E7074A126C4E
S11323A022F01002002B14BF102300231343034A0E
S11323B01364BBE7C0DC000000500640008004400A
S11323C070B582B005460C46FEF76EFC06469DB11C
S11323D02B68022B0ED0042B10D0012B0CBF01252F
S11323E004256CB12378043B032B56D8DFE803F0B3
S11323F0574F51530225F4E70546F2E70325F0E76A
S1132400FEF780FD58B103238DF8073000228DF8C4
S1132410062001228DF805208DF8043055E0FEF7E2
S1132420DBFD58B106238DF8073002238DF8063002
S113243001238DF805308DF8043046E0FEF746FCA4
S113244050B101238DF8073000228DF806208DF855
S113245005308DF8043038E0FEF7DCFCA8B3022325
S11324608DF807309D4208D000238DF806308DF892
S1132470053001238DF8043027E001238DF8063060
S113248000238DF8053003238DF804301DE0032369
S113249006E0012304E0062302E0FF2300E0022318
S11324A08DF807300F4B62881A4492F8FC218DF89E
S11324B00620A2881A4492F8FC218DF80520E288AF
S11324C0134493F8FC318DF80430B54205D001A9CA
S11324D02846FEF725FE02B070BD01A8FEF712FFE4
S11324E0F9E700BFC0DC0000154B1B69C3F30363AD
S11324F0013B052B20D8DFE803F00316191F1F1C2E
S1132500062303700E4A1369C3F303430133438064
S11325101369C3F3031301338380136903F00F03B7
S11325200133C380704704230370EBE70523037072
S1132530E8E707230370E5E704230370E2E700BF3D
S1132540004006402DE9F04186B004460D4631B303
S11325508889FFF72FFA8046E889FFF72BFA0746A8
S11325602E78201F172800F23881DFE810F01C00B5
S113257057008F00E400360136013601360136017A
S1132580360136013601360136013601360136018F
S11325903601360136013601360136011C010127A8
S11325A0B8463E46DDE78E4B1B69C3F30363022B3B
S11325B01FD0002465B301238DF80D308DF80C3045
S11325C000228DF80E208DF809808DF80A7006A976
S11325D001F8103D3046FEF733FC0346002B40F073
S11325E0E980002C00F0E68001A8FEF78BFE03468C
S11325F0E0E00EB90123DDE001A8FFF7A8F902200D
S1132600FFF72EF90346002840F0D4803446D1E782
S113261000210120FEF714FC0346DFE7704B1B6921
S1132620C3F30363032B1CD000244DB300238DF8A4
S11326300E308DF809808DF80A708DF808308DF809
S11326400D3002A93046FEF76DFC0346002B40F026
S1132650B180002C00F0AE8001A8FEF753FE0346C3
S1132660A8E00EB90123A5E001A8FFF770F9032043
S1132670FFF7F6F80346002840F09C803446D4E780
S113268000213046FEF74EFC0346DFE7544B1B693E
S1132690C3F30363012B2FD00024002D3AD06B68C1
S11326A0029300228DF80C208DF814208DF81080F0
S11326B08DF811706A78012A14BF002201228DF866
S11326C00D2000228DF80E20A3F57412A2F51062DD
S11326D044498A4224D802238DF80F3002A9304697
S11326E0FEF702FB0346002B64D1002C62D001A844
S11326F0FEF708FE03465DE00EB901235AE001A887
S1132700FFF725F90120FFF7ABF80346002851D164
S11327103446C2E700213046FEF7E6FA0346E2E714
S1132720A3F5F403A3F590532F4A93429CBF0323CC
S11327308DF80F30D2E72A4B1B69C3F30363062BD2
S11327401ED000244DB300238DF808308DF80F30CF
S11327508DF80C808DF80D70AB7A013B8DF8093043
S11327602B7A103B8DF80A3002A93046FEF756FC4E
S11327700346FBB9F4B101A8FEF7C4FD034619E012
S11327800EB9012316E001A8FFF7E1F80620FFF7D0
S113279067F8034670B93446D4E700213046FEF7A3
S11327A03DFC0346E5E74EB9104A937843F08003B5
S11327B093700023184606B0BDE8F0810C4A1369F3
S11327C023F03F0343F00303136102F5543293787B
S11327D003F07F0393700023ECE70023EAE700BFD4
S11327E00040064000093D000048E80100D00740D1
S11327F00080044010B4054C20602171A260237352
S1132800637300205DF8044B704700BF1C00002078
S1132810F0B583B007460E468DF804008DF8051018
S113282003F040FF334B1C7B5C7301238DF80630AF
S1132830002C4AD000242F4D04E00134E4B22B7B59
S1132840A34242D9AB6853F82430002BF5D01A794F
S1132850022AF2D01A68996801A890470028ECD09F
S11328606C73002EE9D140F2031500238DF8063075
S1132870A400204E20E00134E4B23B7BA34212D9F1
S1132880BB6853F82430002BF5D01A79012AF2D012
S11328901A68996801A890470028ECD07C73002E30
S11328A0E9D14FF4827503F0EFFE284603B0F0BD82
S11328B0043C14F1040FF6D0B3681B59002BF7D075
S11328C01A68996801A89047F2E70A4D2B6853F8F3
S11328D02700FFF7A4F86F7105460028C5D102232D
S11328E08DF80630034B1B7B002BDCD00024014FFA
S11328F0C6E700BF1C000020014B5879704700BF99
S11329001C000020054B5A7B1B79934283BF034B69
S11329109B6853F822000020704700BF1C00002071
S113292008B5FFF793FB08BD08B5FFF778F808BDB5
S113293029B14118002300F8013B8142FBD17047C3
S113294010B4064B1B6853F82040616053F82030E4
S11329509A6000205DF8044B704700BF2C000020F3
S113296070B50446094D2B6853F82060002200F02E
S11329700F01074800F065FD10213046FFF7D8FF2E
S11329802B68002043F8240070BD00BF2C000020F9
S11329900080004038B5102003F068FE0F4B1B6820
S11329A0BBB100240D4D02E00134102C08D02B687B
S11329B053F82430002BF7D01878FFF7D1FFF3E752
S11329C0074D6C1E0F3514F9010F03F04FFEA5429D
S11329D0F9D10020014B186038BD00BF2C00002045
S11329E0D0DE000008B5084B1B6853F8203000F017
S11329F00F00064A1077D07723B15A6812B1197BB9
S1132A009868904708BD00BF2C000020008000405B
S1132A1038B5054600F00F0400222146094800F0AD
S1132A2010FD094B1B6853F8253053B1054A147740
S1132A30D477947701221A735A6812B1197B986873
S1132A40904738BD008000402C0000202DE9F04F55
S1132A5087B09DF84070119D0124BC405FFA84FC4E
S1132A60B5FBFCF60CFB1656002E14BF4FF0010A02
S1132A704FF0000A03D0504607B0BDE8F08F05932D
S1132A8004920391804600F00F06DFF8009131466E
S1132A90484600F0DBFCD9F8003043F08003C9F865
S1132AA00030730103F1804202F5004B02F510423D
S1132AB0049810604B4441F2100205989850019715
S1132AC0009700231A463146484600F0F5FC039B64
S1132AD0032B12D8DFE803F0022D3D4C002241F213
S1132AE004032BF8032064B2A4B2730103F18043FE
S1132AF003F5004341F214029C52244C2A46314609
S1132B00204600F0F1FC01223146204600F077FD1A
S1132B1004EB461641F21C02B35A1BB243F0020303
S1132B209BB2B3521A4B1B6853F8283000221A7315
S1132B30A1E764B2A4B241F204032BF80340730189
S1132B4003F1804303F50043002141F2140299523A
S1132B50D3E764B2A4B241F204032BF80340730137
S1132B6003F1804303F5004341F214029C52C4E78D
S1132B70002241F204032BF80320730103F1804384
S1132B8003F5004341F214015A52B6E700800040B5
S1132B902C00002070B582B00446079D01959DF875
S1132BA018500095FFF752FF054610B1284602B0B1
S1132BB070BD04F00F040F4E089A2146304600F011
S1132BC01EFD06EB441641F21C03F35A23F00803DE
S1132BD01B041B0C9DF82420002A14BF0822002289
S1132BE01343640104F1804404F5004441F21C02DF
S1132BF0A352DBE70080004008B5012200F00F017A
S1132C00024800F01EFC002008BD00BF0080004008
S1132C1008B5002200F00F01024800F012FC002069
S1132C2008BD00BF0080004010B40F4B1C5C04F0D2
S1132C307F041C541C5C01F03F0104F0C0042143D8
S1132C4019541B5C03F0BF03002A14BF4022002266
S1132C501A43054B1A541A5C42F080021A5400209D
S1132C605DF8044B704700BF001002402DE9F041AD
S1132C7080460C464D7805F00F061021FFF758FEEC
S1132C80227BA1786078FFF7CFFF074631461D48C5
S1132C9000F0DCFB17B13846BDE8F0811A4B1B6825
S1132CA043F8258053F82520157053F82530002269
S1132CB01A73144D01223146284600F0BDFB2B68DF
S1132CC013F0040F11D12378FF2B0ED086F00306E6
S1132CD006F1804606F5004696F8002103F00F033E
S1132CE002F0F002134386F800316568A168627847
S1132CF0054B1B6853F82200456053F82230996055
S1132D00C9E700BF008000402C0000202DE9F042FC
S1132D100D4616469946069F244B18604021FFF73E
S1132D2007FE234C204600F0B6FB226822F0040282
S1132D302B789B0003F0040313432360236823F0E0
S1132D4010036A78002A14BF102200221343236060
S1132D50102003F07FFC174D6C1E0F3514F9010F82
S1132D6003F078FCAC42F9D1134800F08DFCDEB1DD
S1132D70B9F1000F14D0AFB1043EA9F10409002544
S1132D802C4659F8041F56F8040FFFF76FFF00286C
S1132D9018BF05460134A742F3D12846BDE8F082A6
S1132DA00025FAE70025F8E70025F6E72C000020C7
S1132DB000800040D0DE00000010024008B500F0A2
S1132DC00F01024800F042FB08BD00BF0080004034
S1132DD000F00F0080304001014B1950704700BFD4
S1132DE00080004000F00F0089B2400100F18040F3
S1132DF000F510408180704700F00F00400100F1A1
S1132E00804000F5004041F20602835A9BB2090259
S1132E1001F4E06123F4E06319438152704700F048
S1132E200F00400100F1804000F5004041F20C0326
S1132E30C150704700F00F00400100F1804000F5E0
S1132E40004041F21803C150704700F00F004001E8
S1132E5000F1804000F5004041F21003C15070477A
S1132E6000F00F0089B2400100F1804000F50040FD
S1132E7041F21403C152704700F00F00400100F109
S1132E80804000F5004041F20602835A9BB201F0F3
S1132E90070123F007030B438352704708B50A4622
S1132EA000F00F01014800F01FFB08BD0080004046
S1132EB008B50A4600F00F01014800F0A0FB08BD68
S1132EC00080004008B500F00F01024800F0C6FB86
S1132ED008BD00BF0080004008B50A4600F00F019D
S1132EE0014800F051FB08BD0080004000F00F00D5
S1132EF0430103F1804303F5004341F21C029B5A52
S1132F0023F008031B041B0C002914BF0822002211
S1132F101343400100F1804000F5004041F21C02DF
S1132F208352704708B500F00F00012908D011B191
S1132F3002291DD008BD0146194800F07DFA08BDDC
S1132F40430103F1804303F5004341F21C015B5A42
S1132F5023F004031B041B0C002A14BF04220022C8
S1132F601343400100F1804000F50040435208BD86
S1132F70430103F1804303F5004341F21C015B5A12
S1132F8023F002031B041B0C002A14BF022200229C
S1132F901343400100F1804000F50040435208BD56
S1132FA00080004008B518B1034800F03CFA08BDA1
S1132FB0014800F02FFA08BD0080004000F00F0027
S1132FC0014B5877704700BF00800040002843D071
S1132FD038B5044600293BD00D4620212846FFF78A
S1132FE0A7FC227E637A03F0070343EAC223227A12
S1132FF0120202F4E0621343627ED200D2B213439F
S1133000EB8023682B60B4F90A30AB80E369AB60D2
S11330102369EB6063682B61B4F90C30AB82E36A1B
S11330201B68EB8294F820309BB1636AAB6194F81F
S11330302830002B14BF0223002394F82020002AF8
S113304014BF102200221343AB83E36A1B68EB8393
S113305038BD6369AB61EAE770472DE9F04182B09E
S11330600C4600F00F05724F2946384600F0EEF981
S113307022686E0106F1804303F5004803F510430E
S11330801A6062683E4441F21003F250637E227E6D
S1133090617A0191217A00912946384600F00CFAB0
S11330A0628941F2040328F80320A28941F214033F
S11330B0F252226941F20C03F25094F82030002BB2
S11330C040F0A1806B0103F1804303F5004341F21A
S11330D01C015A5A22F010021204120C5A5261694D
S11330E041F2180299506B0103F1804303F5004348
S11330F041F21C029B5A23F002031B041B0C94F89C
S11331002820002A14BF0222002213436A0102F17C
S1133110804202F5004241F21C015352E16A002947
S11331207FD0434B1B6813F0800F14D0134641F239
S113313008029A5822F000420B79002B14BF4FF07A
S1133140004300231A436B0103F1804303F500435A
S113315041F208015A50364B1B6813F0800F19D006
S11331606B0103F1804303F5004341F208029A58CE
S113317022F08042E36A5B79002B14BF4FF0804356
S113318000231A436B0103F1804303F5004341F22A
S113319008015A50E36A264E9A682946304600F0E0
S11331A0D1F9E2692946304600F09EF9E26A137BC0
S11331B0527B2946304600F0EDF9E36A997B06EB31
S11331C0451641F21C00325A92B2DB7B1B0203F417
S11331D0706322F4706213433352335A23F0200392
S11331E01B041B0C002914BF202200221343104887
S11331F041F21C02B352E36A1A68294600F0FFF94F
S113320002B0BDE8F081384641F21C02B35A1BB249
S113321043F010039BB2B352626A294600F0B4F93A
S113322061E7E2692946024800F05EF9E8E700BF79
S11332300080004010B50446064A136843F080033A
S11332401360FFF70AFF044B1B6853F82430002077
S1133250187310BD008000402C0000202DE9F04FB1
S113326095B0039093469946DDF878801F9D9DF8AC
S1133270803000931F3121F01F0A5F4B1B6853F805
S1133280203000241C73012707FA0BF20192BDF8C9
S11332900430B9FBF3F603FB1696311B18BF01216A
S11332A00291302104A8FFF743FB102110A8FFF777
S11332B03FFB089409948DF828408DF829408DF837
S11332C018B08DF819B0CDF82C908DF838708DF8B1
S11332D0307010A90F918DF844408DF845408DF859
S11332E04C408DF84E400098002874D0002E72D1C6
S11332F0D8F8003004932B680593D8F804306A6832
S113330093426CD198F808102A7A91426AD14646C1
S1133310AAF12007A346BDF90420029200F1FF3A66
S11333205FFA8AFA2AE0ADF81AB0BDF80430ADF8B5
S11333301C30A2450EBFCDF834B007F120030D9325
S1133340002C41D0394604A8FFF740FE0134E4B212
S1133350009BA3423DD0D8F80C3004932946EB6877
S11333600593D8F810302A6993423ED10C360C35B7
S1133370203798F814000A7D904239D1B3FBF9F351
S11333800F9A1360B046337A032BD2D801A252F8B5
S113339023F000BF27330000A5330000B33300003F
S11333A0BF330000BDF80430ADF81A30ADF81CB0DE
S11333B0BFE7029BADF81A30ADF81C30B9E7ADF8A1
S11333C01AB0ADF81CB0B4E704A90398FFF745FEA2
S11333D0BCE700230293029815B0BDE8F08F0123E7
S11333E00293F8E701230293F5E701230293F2E73E
S11333F001230293EFE700BF2C000020024B1B685F
S113340053F82030187B70472C0000200048704788
S113341000800040036843F400330360036813F43E
S1133420003FFBD17047036843F4803303600368B3
S113343013F4803FFBD170470AB901767047417697
S113344070470AB981767047C176704700EB411125
S1133450002341F208028B5001F58052136041F2BF
S113346004028B5241F206028B5241F20C028B5041
S113347041F210028B5041F214028B5241F21602B7
S11334808B5241F218028B5041F21C028B5241F2D2
S11334901E028B52704738B50546036823F4403347
S11334A023F0C60303600024E1B22846FFF7CEFFF1
S11334B00134102CF8D138BD10B4DB00DCB29DF817
S11334C0083003F00703234343EAC2239DF8042092
S11334D0120202F4E06213439BB2803100EB41110B
S11334E0CB805DF8044B7047036813F0800F13D052
S11334F010B400EB411341F208041B59002B11DBFB
S113350000EB41131B5913F0804F0BD122F04042C2
S113351000EB4110025112E000EB411041F20803AC
S1133520C250704700EB411041F20801435823F4A4
S11335307F7323F00303C2F309021A4342505DF878
S1133540044B7047036813F0800F18D030B400EBBD
S1133550411341F208041D591B5913F0804F01D146
S1133560002D0BDA00EB411041F208040359044921
S11335701940044B03EA82220A43025130BC7047CB
S1133580FF0300C000FCFF3F00EB411141F21803B0
S1133590CA50704730B400EB411541F21E042C5B55
S11335A0C4F30E04FBB144F40044294641F21E0561
S11335B04C5341F216000B5A6FEA43436FEA5343EC
S11335C09BB20B524B5B9BB2520202F4F05223F4B7
S11335D0F05313434B530B5A9BB223F4F0531A4347
S11335E00A5230BC704700EB411141F21E03CC5229
S11335F041F216028B5AC3F30E038B52F1E710B457
S113360000EB411441F21E03E35A13F4004F14D1AA
S113361000EB411141F21E000B5AC2F30E0203F4F7
S1133620004313430B5241F216000B5A03F40043B8
S11336301A430A525DF8044B704741F21E00235AA4
S1133640C2F3080203F47E431343235241F21600EB
S1133650235A03F47E431A432252EBE700EB411250
S113366041F21E03D35A13F4004F07D100EB41106B
S113367041F21603C05AC0F30E00704741F216031C
S1133680D05AC0F30800704700231A46C2540133CD
S1133690102BFBD1704700BF08B50020FFF7A2F93B
S11336A008BD08B50120FFF79DF908BD08B5022043
S11336B0FFF798F908BD08B50320FFF793F908BD93
S11336C008B50420FFF78EF908BD08B50520FFF7FB
S11336D089F908BD08B50620FFF784F908BD08B5C7
S11336E00720FFF77FF908BD08B50820FFF77AF92E
S11336F008BD08B50920FFF775F908BD08B50A200B
S1133700FFF770F908BD08B50B20FFF76BF908BD8A
S113371008B50C20FFF766F908BD08B50D20FFF7C2
S113372061F908BD08B50E20FFF75CF908BD08B5BE
S11337300F20FFF757F908BD38B50020FFF766FEE4
S1133740C56A002404E06D080134E4B2102C06D0EC
S113375015F0010FF7D02046FFF75AF9F3E738BD0B
S113376008B500F083FD08BD62B110B4531EDCB28D
S1133770431E204411F8012B03F8012F8342F9D191
S11337805DF8044B70476AB130B4551EEDB2431E68
S1133790441911F8012B03F8012FA342F9D1013583
S11337A0284430BC70477AB170B4561EF6B2431E3A
S11337B085190A4612F8014B03F8014FAB42F9D1BF
S11337C00136881970BC70470846704708B5022254
S11337D0FFF7E9FF08BD08B50422FFF7E4FF08BDC1
S11337E000B583B002AB23F8021D02221946FFF78D
S11337F0CAFF03B05DF804FB00B583B002AB43F825
S1133800041D04221946FFF7BEFF03B05DF804FB54
S113381070B48D1882B1531EDBB24C1E194415F8D6
S1133820012B037823EA020314F8016F3240134397
S113383000F8013B8C42F2D170BC7047014B187008
S1133840704700BF3000002000B583B00191084BE1
S11338501B7833B9022201A9FFF795FF03B05DF885
S113386004FB04220DEB0201FFF78DFFF6E700BF16
S11338703000002008B5054B1B781BB90222FFF766
S113388092FF08BD0422FFF78EFF08BD3000002020
S113389070B590B0224DB5F85E40A40004F18044A8
S11338A004F5CA24236843F0804323601D4E02229A
S11338B00621304607F006FC236843F0804323606A
S11338C002220721304607F0FDFBB5F896204FF0A1
S11338D08641154B43F822104FF4614300930023B3
S11338E08DF806308DF804308DF805306A4603A94A
S11338F0012005F001F80D4A936943F40023936114
S1133900936913F4002FFBD0084A936943F480238E
S11339109361936913F4802FFBD010B070BD00BF86
S1133920BCDD000000B004400050064000B006407A
S113393008B50E21212002F0BDFE002203492120FA
S113394002F068FE212002F085FE08BD6137000008
S113395008B500F0B1FB00F089F900F06BFD003010
S113396018BF012008BD10B5002303700322427064
S113397083700122C2700222027143713A2383715F
S1133980C41D00F0C7FA01462046FFF729FF48F29C
S11339906401FFF725FF00F11901064A01E08142A5
S11339A006D0137800F8013B002BF8D00132F6E77B
S11339B010BD00BFC0EF000030B583B00446857869
S11339C0C11C01A8FFF756FF3A2D05D920468423D0
S11339D000F8013B03B030BD2046002300F8013B52
S11339E02A460199FFF7CFFEF4E770B582B0054689
S11339F00E46441C214601A8FFF73CFF00232B7010
S1133A00324601992046FFF7BEFE02B070BD30B5C4
S1133A1083B004468578C11C01A8FFF72BFF2A4612
S1133A2001460198FFF7BFFE2046002300F8013B42
S1133A3003B030BD70B582B005460E46441C214625
S1133A4001A8FFF717FF324601460198FFF7ABFEC6
S1133A5000232B70204602B070BD30B583B00446FD
S1133A608578C11C01A8FFF705FF2A460146019885
S1133A70FFF7CEFE2046002300F8013B03B030BD23
S1133A8010B504460020FFF7D9FE2378C12B5DD082
S1133A900BD9C92B69D021D8C32B53D05AD3C52BEA
S1133AA00CD1204600F046FB25E0062B64D00AD951
S1133AB00B2B53D0C02B66D00A2B3CD0204681233D
S1133AC000F8013B17E0042B2ED0052BF6D1012082
S1133AD0FFF7B4FE2046FFF79AFF0CE0E12B13D06A
S1133AE0E22B19D0E02BE9D10120FFF7A7FE012139
S1133AF02046FFF77AFFA04249D0011BC9B22046F5
S1133B0000F04EFB012010BD0120FFF797FE0221BB
S1133B102046FFF76AFFEEE70120FFF78FFE04213E
S1133B202046FFF762FFE6E70120FFF787FE204605
S1133B30FFF742FFDFE70120FFF780FE204600F099
S1133B40BCFAD8E7204600F0D1F9D4E7204600F0CB
S1133B507DF9D0E7204600F0AFF9CCE70120FFF76C
S1133B606DFE204600F097F8C5E70120FFF766FEDA
S1133B70204600F0E3F9BEE70120FFF75FFE204690
S1133B80FFF76BFFB7E72046FFF7EDFEB3E7002032
S1133B9010BD70B582B005460E46441C214601A8EE
S1133BA0FFF768FE324601460198FFF731FE002315
S1133BB02B70204602B070BD037843B10346002049
S1133BC0013080B213F8012F002AF9D17047002088
S1133BD0704700BF054B1A6892F9000093F904304E
S1133BE09842B4BF00200120704700BF3400002079
S1133BF0044B1A6810781B79984234BF00200120C6
S1133C00704700BF34000020054B1A68B2F9000069
S1133C10B3F904309842B4BF00200120704700BFBC
S1133C2034000020044B1A6810889B88984234BFE3
S1133C3000200120704700BF34000020044B1A68A4
S1133C4010685B689842B4BF00200120704700BF31
S1133C5034000020044B1A6810685B68984234BF33
S1133C6000200120704700BF340000200022034BD5
S1133C701A70034A034B9A60704700BF88260020DD
S1133C8048000020340000200022014B1A707047C5
S1133C908826002070472DE9F047074600224F4B45
S1133CA01A704F4C4F4BA36082784F4B1A70C11C53
S1133CB04E48FFF78BFD01464D48FFF787FD01464F
S1133CC04C48FFF783FD01462046FFF7D3FD0378F8
S1133CD0237343786373811C201DFFF77CFD0678F2
S1133CE0454B1E70731EDBB2072B62D8002E6CD0BE
S1133CF0013000252E46DFF82091DFF82081DFF81F
S1133D00F8A0014611F8014B09F805402644F6B223
S1133D1008EB8500FFF7AEFD013CE4B2072C4ED85A
S1133D200135EDB29AF80030AB42EAD800222C4BB0
S1133D301A612D4B1B78B3B1294B5B7B13F0020F37
S1133D403FD1274A127B022A21D0042A28D0012AF3
S1133D5001D086232EE02949294A002B14BF13469B
S1133D600B461F4A1361214B1B8813FB06F6B6B2A0
S1133D70B6F5005F27D81A4B9B681E44214B1E6082
S1133D80164A137843F001031370002312E01E490E
S1133D901E4A002B14BF13460B46114A1361E2E777
S1133DA01B491C4A002B14BF13460B460C4A1361D3
S1133DB0D9E78523384600F8013BBDE8F087862320
S1133DC0F8E79023F6E78623F4E70022044B1A6110
S1133DD0054B1B78002BAFD11646CCE78826002074
S1133DE03400002048000020842600207C26002087
S1133DF08E2600208C2600207E260020F13B000029
S1133E00D53B000070260020253C0000093C000042
S1133E10553C00003D3C0000742600204C26002048
S1133E20074B1B6813F0040F08D1054A137843F0BD
S1133E3004031370034B1A88034B1A80704700BFA6
S1133E40882600208E26002082260020154B1B6821
S1133E5013F0010F1FD0134B1B6813F0020F1ED178
S1133E60114B9A68114B1A600023114A1380114AAE
S1133E7013800C4A117863F382011170117863F393
S1133E8004111170117841F008011170117841F09A
S1133E900201117000E0882300F8013B7047012300
S1133EA0FAE700BF88260020340000209026002076
S1133EB06C2600208026002010B504460A4B1B689F
S1133EC013F0010F0AD0084B1B6813F0020F01D145
S1133ED0022304E0FFF7A4FF002300E08823204628
S1133EE000F8013B10BD00BF88260020084B1B686A
S1133EF0C3F34003002B14BF01230223044A1268B6
S1133F0002F00102002A08BF882300F8013B704731
S1133F10882600204FF400507047074A9368834274
S1133F2007D8084403F50053834234BF002001201E
S1133F3070470020704700BF34000020124B1B68FC
S1133F4013F0010F08D0104B1B6813F0020F07D0B9
S1133F50872300F8013B7047882300F8013B704732
S1133F6000B583B0002300F8013B01900198074B92
S1133F709968FFF769FC01900198054B1988FFF7D0
S1133F802FFC03B05DF804FB8826002034000020D9
S1133F906C2600203C4B1B6813F0020F00D17047C5
S1133FA03A4B1B88002B52D12DE9F041384B1A882B
S1133FB0364B1A80374B1B78ABB10024DFF8F48002
S1133FC0354F364D18F80460324657F824102868E7
S1133FD0FFF7CAFB2A6832442A600134E4B22D4B4D
S1133FE01B78A342EED82E4A1388013313802B4B3F
S1133FF01A682C4B1B689A420BD32B4B9A68274B9D
S11340001A60214A13786FF3C30313700022244B00
S11340101A801D4B1B6813F0080F2CD11A4B1B6818
S113402013F0040F1CD1204B1B69CBB198471F4BD5
S11340301B78022B04BFB0FA80F0400958B1124B30
S11340401B6813F0100F0BD0FFF7EAFE08E0013BEA
S11340500E4A138070470C4A137843F01003137010
S1134060094B1B6813F0040F05D0114B1B8823B1B7
S1134070013B0F4A1380BDE8F081034A13786FF3C4
S113408041031370BDE8F0818826002080260020BB
S11340908C2600207E2600204C260020902600201E
S11340A06C26002070260020340000208426002086
S11340B0822600207426002070472DE9F843002250
S11340C01B4B1A7090F8029009F1FF385FFA88F3DD
S11340D0072B22D80746B9F1000F15D00330144D31
S11340E005F10408EE1C0C359844014611F8014B07
S11340F006F8014F2846FFF7BDFB013CE4B2072C4C
S113410010D804354645F0D1094B83F80090384661
S1134110002300F8013BBDE8F883852300F8013B48
S1134120BDE8F8833846862300F8013BBDE8F883F0
S11341304820002038B50C4B1B7883B1002400F8CC
S1134140014B094D2A1905EB84031279D968FFF74D
S11341501AFB0134E4B22B78A342F3D838BD882388
S113416000F8013B38BD00BF482000200A4B002165
S113417019701A7961F300021A711A7961F3410214
S11341801A71064B1A6822F400021A601A6842F483
S113419000121A60704700BF7420002018B0064057
S11341A010B483B01A4B98600C4671B30139C9B28C
S11341B001310144002310F8012B1344DBB288427F
S11341C0F9D15B420370124B01341C731A7942F02B
S11341D001021A711A796FF341021A711A796FF395
S11341E082021A710B4B1B6801932B220A4B1A6033
S11341F0043B1A6822F400121A601A6842F400029E
S11342001A6003B05DF8044B70470023D9E700BF80
S11342107420002014B006401CB0064010B5124BA8
S11342201B7BE3B1104A9268117801702B2906D0E8
S11342300D49013B0B7301328A60002010BD0A480E
S11342404168C1F3800181F00101047961F38204C2
S11342500471416811F0040FEAD0002010BDFFF78B
S113426085FF012010BD00BF7420002010B582B06E
S11342701C4B1C6804F420021A601B4B5B6813F08F
S1134280010F16D014F4000F08D114F4001F13D03A
S1134290164B1B68DBB2ADF806300DE00DF10600DD
S11342A0FFF7BCFF0028F0D19DF806200F4B1A60E1
S11342B0EBE714F4001F01D102B010BD0B4B1968D9
S11342C0C9B2094A52F8300F431C9342084A28BF26
S11342D01346103A526B9A42EED00170024A1363AD
S11342E0EAE700BF14B00640742000201CB006406A
S11342F08420002008B52B2827D04B4B5B6813F093
S1134300080F45D0484B03F13D029A6383F83C0003
S113431083F8790000221A701A7942F010021A7197
S1134320C34313F0C00F09D13F4A13796FF3041349
S11343301371C00800F00600013010703A4A137976
S11343406FF3C3031371002008BD374A5368C3F3E6
S1134350C00383F00103117963F3C301117153683E
S113436013F0080F59D1304B5B6813F0080F0FD0CE
S11343702D4B03F13D029A632B2283F83C2083F8F2
S1134380792000221A701A7942F010021A71D5E7C6
S1134390254B5B6813F0100F06D0234A831C13705F
S11343A013796FF3041313711F4B1B78002B36D052
S11343B01D4991F879200244D2B281F87920013B59
S11343C0DBB20B70CBB98B6B4BB18AB1164882232D
S11343D000F83C3F0121FFF7E3FE012008BD084639
S11343E0832300F83C3F0121FFF7DAFE012008BDDA
S11343F00E48FFF745FB012008BD0B4B9B6B83B1B7
S11344000B4A934203D30020074B986308BD591C01
S1134410763A91631870002008BD002008BD002082
S113442008BD002008BD00BF74200020B02000207B
S1134430EA20002008B5064B00221A711A7303F112
S113444010025A631A63FFF791FE012008BD00BFF2
S113445074200020F8B50F4D05F130046B6B296B07
S1134460002605F1100C012799420ED05A1C187829
S1134470A24234BF134663466A683E4612F0010FF7
S1134480F2D16B63FFF736FFE8E706B9F8BD014BDD
S11344905963FBE774200020F8B5564B9B699BB227
S11344A0554A1380554806F049FDC0F34000544C6A
S11344B084F82F008000534E3060534F384606F086
S11344C03DFDC0F3802084F8300040004F4D28604B
S11344D0384606F033FDC0F3C02084F831004C4A5E
S11344E010603368296812680B4413445A1E052A65
S11344F059D8052A09D8DFE802F035413B292F03B2
S11345003F4A022191840421D184424A12683C49E1
S1134510898C92B2914237D03E4A12683849C98C8C
S113452092B2914237D001213B4A1180344AB2F908
S11345302810394A128892B2002A59D1374A12886F
S113454012B2914214BF0022012233E02C4A062108
S113455091840521D184D8E7294A04219184012139
S1134560D184D2E7264A052191840321D184CCE762
S1134570234A012191840221D184C6E7204A0321E0
S113458091840621D184C0E701211D4A11850021AF
S1134590214A1180CAE74FF6FF71194A118500219B
S11345A01D4A1180C2E701211B4A11801B4A118850
S11345B009B2002292B21A480280184A11800121DD
S11345C0184A1180184A128892B2642A04D9164AE9
S11345D0128892B215490A80144A128892B2144978
S11345E00A800A8892B213490A800A4A1360F8BD05
S11345F00022DFE700A00340DC28002000F00F4089
S11346006C2700204C280020C0F00F4068270020B1
S1134610AC270020C4280020B42800200C28002047
S11346205828002038280020D2280020D028002034
S113463030280020A027002070B500250D4E02E090
S11346400135022D15D0EC0004F1804404F56034EA
S1134650E36813F0400FF3D0E36813F0800FEFD05A
S113466056F825309847E36823F08003E360E36855
S1134670E6E770BDF020002070B502250D4E02E083
S11346800135042D15D0EC0004F1804404F56034A8
S1134690E36813F0400FF3D0E36813F0800FEFD01A
S11346A056F825309847E36823F08003E360E36815
S11346B0E6E770BDF020002070B504250D4E02E041
S11346C00135062D15D0EC0004F1804404F5603466
S11346D0E36813F0400FF3D0E36813F0800FEFD0DA
S11346E056F825309847E36823F08003E360E368D5
S11346F0E6E770BDF020002070B506250D4E02E0FF
S11347000135082D15D0EC0004F1804404F5603423
S1134710E36813F0400FF3D0E36813F0800FEFD099
S113472056F825309847E36823F08003E360E36894
S1134730E6E770BDF020002070B500250E4E02E0C3
S11347400135022D16D0EC0004F1804404F56434E4
S1134750E36813F0400FF3D0E36813F0800FEFD059
S113476006EB85031B6A9847E36823F08003E36044
S1134770E368E5E770BD00BFF020002070B50225B6
S11347800E4E02E00135042D16D0EC0004F18044F5
S113479004F56434E36813F0400FF3D0E36813F0D6
S11347A0800FEFD006EB85031B6A9847E36823F07C
S11347B08003E360E368E5E770BD00BFF0200020FC
S11347C070B504250E4E02E00135062D16D0EC001E
S11347D004F1804404F56434E36813F0400FF3D02B
S11347E0E36813F0800FEFD006EB85031B6A98474C
S11347F0E36823F08003E360E368E5E770BD00BF8E
S1134800F020002070B506250E4E02E00135082D7B
S113481016D0EC0004F1804404F56434E36813F02A
S1134820400FF3D0E36813F0800FEFD006EB85035D
S11348301B6A9847E36823F08003E360E368E5E7D5
S113484070BD00BFF020002070B500250E4E02E0C0
S11348500135022D16D0EC0004F1804404F56834CF
S1134860E36813F0400FF3D0E36813F0800FEFD048
S113487006EB85031B6C9847E36823F08003E36031
S1134880E368E5E770BD00BFF020002070B50225A5
S11348900E4E02E00135042D16D0EC0004F18044E4
S11348A004F56834E36813F0400FF3D0E36813F0C1
S11348B0800FEFD006EB85031B6C9847E36823F069
S11348C08003E360E368E5E770BD00BFF0200020EB
S11348D070B504250E4E02E00135062D16D0EC000D
S11348E004F1804404F56834E36813F0400FF3D016
S11348F0E36813F0800FEFD006EB85031B6C984739
S1134900E36823F08003E360E368E5E770BD00BF7C
S1134910F020002070B506250E4E02E00135082D6A
S113492016D0EC0004F1804404F56834E36813F015
S1134930400FF3D0E36813F0800FEFD006EB85034C
S11349401B6C9847E36823F08003E360E368E5E7C2
S113495070BD00BFF020002070B500250E4E02E0AF
S11349600135022D16D0EC0004F1804404F518340E
S1134970E36813F0400FF3D0E36813F0800FEFD037
S113498006EB85031B6E9847E36823F08003E3601E
S1134990E368E5E770BD00BFF020002070B5022594
S11349A00E4E02E00135042D16D0EC0004F18044D3
S11349B004F51834E36813F0400FF3D0E36813F000
S11349C0800FEFD006EB85031B6E9847E36823F056
S11349D08003E360E368E5E770BD00BFF0200020DA
S11349E070B504250E4E02E00135062D16D0EC00FC
S11349F004F1804404F51834E36813F0400FF3D055
S1134A00E36813F0800FEFD006EB85031B6E984725
S1134A10E36823F08003E360E368E5E770BD00BF6B
S1134A20F020002070B506250E4E02E00135082D59
S1134A3016D0EC0004F1804404F51834E36813F054
S1134A40400FF3D0E36813F0800FEFD006EB85033B
S1134A501B6E9847E36823F08003E360E368E5E7AF
S1134A6070BD00BFF020002001EBC001014B43F8F2
S1134A7021207047F020002010B50446044B53F861
S1134A80200000F059FC0020024B43F8240010BD24
S1134A90E0DE0000F02100200122027000234370B8
S1134AA08370C370037143718371C3710372437262
S1134AB08272C2720321017343738273C1730374DC
S1134AC043747047064B53F820301966996DD20130
S1134AD0D2B221F080010A439A650020704700BFDA
S1134AE0E0DE0000084B53F82000C36C1B0C1B04D1
S1134AF01943C164836DD201D2B223F080031A43F7
S1134B0082650020704700BFE0DE0000064B53F8CA
S1134B102030C3F89C10996DD201D2B221F08001EB
S1134B200A439A6500207047E0DE000010B40C4B85
S1134B3053F820301C6FD3F894006140C9B220F4BC
S1134B407F4040EA0120C3F89400996DD201D2B2AB
S1134B5021F080010A439A6500205DF8044B7047F8
S1134B60E0DE0000094B53F82000D0F8943023F025
S1134B70FF031943C0F89410836DD201D2B223F01D
S1134B8080031A4382650020704700BFE0DE000006
S1134B9010B40A4C54F82040206F424041EA0222EB
S1134BA092B2C4F89420A26DDB01DBB222F0800241
S1134BB01343A36500205DF8044B7047E0DE00005A
S1134BC0064B53F82030C3F89010996DD201D2B23D
S1134BD021F080010A439A6500207047E0DE00005E
S1134BE0084B53F8200083681B0C1B041943816095
S1134BF0836DD201D2B223F080031A438265002070
S1134C00704700BFE0DE00000B4B53F8203003EB8D
S1134C10C101C868930003F0040320F004000343B7
S1134C20CB60CB68920002F0080223F008031A4319
S1134C30CA600020704700BFE0DE00004B782BB94B
S1134C408B78002B40F0A480CB7800E0012303F0A4
S1134C5001030A78002A00F0C980002B40F09680F6
S1134C60644B53F82030002A00F09B80D3F88C204A
S1134C7042F48062C3F88C20D3F88C2042F40062A2
S1134C80C3F88C20D3F88C2042F48052C3F88C20D3
S1134C90D3F88C2042F40072C3F88C20D3F88C0033
S1134CA0CA7A120202F4807220F480700243C3F8BC
S1134CB08C20D3F88C2042F08002C3F88C204A78F0
S1134CC022B99A6D22F010029A6503E09A6D42F0BF
S1134CD010029A658A78002A4ED09A6D42F020021A
S1134CE09A65CA78002A4CD09A6D42F040029A65BF
S1134CF0986D0A79520002F0020220F00200024389
S1134D009A659A6D22F00102487902439A659A6D78
S1134D10087A003018BF012022F0080242EAC002DB
S1134D209A65D3F88C008A79120102F0100220F0FF
S1134D3010000243C3F88C20D3F88C00CA795201C6
S1134D4002F0200220F020000243C3F88C20D3F8A4
S1134D508C004A7A920002F0040220F0040002431C
S1134D60C3F88C20D3F88C2022F00102897A0A43FC
S1134D70C3F88C20002070479A6D22F020029A65B7
S1134D80AFE79A6D22F040029A65B1E701207047BF
S1134D900A78002A3FF464AF01207047154B53F89A
S1134DA02030D3F88C2042F48022C3F88C20D3F82E
S1134DB08C2042F40022C3F88C20D3F88C2042F4D7
S1134DC08012C3F88C20D3F88C2042F40032C3F84C
S1134DD08C20D3F88C20C87A003018BF012022F42C
S1134DE0803242EA0042C3F88C2062E7002BD5D11E
S1134DF001207047E0DE0000032888BF0730044A22
S1134E00D169012303FA00F00843D0610020704700
S1134E1000800440F8B507460D46254B53F8206042
S1134E20CCB211F4007F0CD115F4807F14D115F4A9
S1134E30806F1CD1002C38D000251D4B03EBC70715
S1134E4023E0336843F480733360194B034493F9CC
S1134E50100001F0FFFBE7E7736D43F08003736517
S1134E60134B3B4493F9140001F0F4FBDFE7336880
S1134E7043F0400333600E4B3B4493F9180001F0B8
S1134E80E9FBD7E7013564080FD014F0010FF9D01E
S1134E90EBB206EBC301CA6842F04002CA603B446D
S1134EA093F91C0001F0D6FBECE70020F8BD00BF2D
S1134EB0E0DE0000F8B507460D46244B53F82060A9
S1134EC0CCB211F4007F0CD115F4807F14D115F409
S1134ED0806F1CD1002C38D000251C4B03EBC70776
S1134EE023E0336823F480733360184B034493F94D
S1134EF0100001F0BBFBE7E7736D23F080037365DB
S1134F00124B3B4493F9140001F0B0FBDFE7336824
S1134F1023F0400333600D4B3B4493F9180001F038
S1134F20A5FBD7E7013564080FD014F0010FF9D0C1
S1134F30EBB206EBC301CA6822F04002CA603B44EC
S1134F4093F91C0001F092FBECE7F8BDE0DE0000F1
S1134F5010B4154B53F820100B6803F48073002B26
S1134F600CBF00204FF400704B6D13F0800F18BF7E
S1134F7040F480700B6813F0400F18BF40F4806059
S1134F80072301245A1C01EBC202526812F0400F9D
S1134F901CBF04FA03F21043013BB3F1FF3FF1D10C
S1134FA05DF8044B704700BFE0DE000010B4154B01
S1134FB053F82010086800F400704B6F13F0800F52
S1134FC018BF40F480700B6813F0800F18BF40F4D2
S1134FD08060CB6E13F0800F18BF40F40060002394
S1134FE001245A1C01EBC202526812F0800F1CBF4C
S1134FF004FA03F210430133082BF2D15DF8044B99
S1135000704700BFE0DE000030B4214B53F82000AD
S1135010CAB211F4007F04D0036823F40073036060
S1135020036811F4807F10D0436F23F0810343673A
S1135030436F23F082034367436F23F08403436782
S1135040436F23F088034367436F11F4806F04D0E8
S1135050036823F080030360036811F4006F03D036
S1135060C36E23F08003C3660023012503E05208C6
S11350700133082B0AD012F0010FF8D0016D05FAA4
S113508003F421EA04010165016DF0E730BC7047C7
S1135090E0DE000010B582B0154B53F8203000223A
S11350A001921B6803F0070301249C40114B53F841
S11350B020301B78022B11D0032B07D0012B12D0E8
S11350C0E4B20198B0FBF4F002B010BD084B1844F0
S11350D001A990F83C00FDF723FCF1E701A91A208F
S11350E0FDF71EFCECE701A90020FDF719FCE7E73A
S11350F0E0DE0000F0210020F8B5354B53F82030F5
S113510013B101273846F8BD324B53F820508B7B3E
S113511013700023537053802D4B43F8202002F169
S1135120080702F1180402F1580E02F1380C264661
S1135130002327F8023B46F8043B4CF8043B0EF8E6
S1135140013BA742F5D117460C460646284600F017
S1135150F3F8617B284600F0E3F83046FFF79AFF46
S11351607860237B023BDBB2022B20D90027EA6E56
S1135170637C9B0103F0400322F040021343EB667F
S1135180D5F88420E37B9B01DBB222F0C0021343F9
S1135190C5F88430237C83B92B6823F480732B6097
S11351A00C48064496F9100001F060FAAAE721467B
S11351B03046FFF743FD0746D9E72B6843F4807375
S11351C02B600448064496F9100001F043FA99E76D
S11351D0F0210020E0DE0000034B53F82030586833
S11351E0B0FBF1F080B27047F0210020074B53F878
S11351F0202053681B0C1B045360936DC901C9B272
S113520023F080031943916500207047E0DE00001D
S11352102DE9F04100240C4E0127DFF8308002E034
S11352200134042C0DD0736F07FA04F52B42F7D028
S113523058F824309847736F23EA05057567736F30
S1135240EEE7BDE8F08100BF0080034004220020A7
S11352502DE9F0410C4D00240C4F4FF0010803E000
S113526001340435042C0CD07B6F08FA04F6334265
S1135270F6D02B6898477B6F23EA06067E677B6F20
S1135280EEE7BDE8F08100BF142200200090034047
S11352902DE9F0410C4D00240C4F4FF0010803E0C0
S11352A001340435042C0CD07B6F08FA04F6334225
S11352B0F6D02B6898477B6F23EA06067E677B6FE0
S11352C0EEE7BDE8F08100BF2422002000A00340E7
S11352D02DE9F0410C4D00240C4F4FF0010803E080
S11352E001340435042C0CD07B6F08FA04F63342E5
S11352F0F6D02B6898477B6F23EA06067E677B6FA0
S1135300EEE7BDE8F08100BF3422002000600240D7
S113531001EB8001014B43F8212070470422002057
S1135320436D43F001034365036823F0070301F071
S113533007010B430360704710B4436F00234367B6
S1135340042242650268036043608360C364026DA3
S113535003658365C365036643668366C26EC3667D
S113536003678367C367C0F88030C0F88430C0F82F
S11353708830C0F88C30C0F89030C0F89430C0F851
S11353809830C0F89C30194600EBC302D468D16051
S113539011610133082BF7D15DF8044B70470129E3
S11353A00ED9052999BF0239012306394FF48073B8
S11353B003FA01F142B9C36E23EA0101C1667047E1
S11353C0102303FA01F1F5E7C36E1943C166704770
S11353D0032923D8DFE801F0020A121B836F23F0AC
S11353E00F0302F00F021A4382677047836F1201A2
S11353F0D2B223F0F0031A4382677047836F12021C
S113540002F4706223F470631A4382677047836FF7
S1135410120392B223F470431A4382677047000068
S1135420F8B52B4B53F820305A78012A00D0F8BD38
S1135430284A52F820004A00D2B2456EC90004241A
S113544004FA01F129422ED000EBC2052E69B6B24E
S1135450511CC9B200EBC1010C69A4B2A6421DD90A
S11354608768101DA41B3C4423F81040E86820F012
S11354708000E860E868C86820F08000C860C968F7
S113548003EB82018C6B002CD1D0134493F8583079
S1135490002BCCD089690020A047C8E7101DA41BAD
S11354A023F81040E2E7511C00EBC101496811F0F8
S11354B0800F04BF0132D2B200EBC2000469111D97
S11354C023F81140C16821F08001C160C168D7E7A9
S11354D0F0210020E0DE00002DE9F04F83B0AF4B57
S11354E053F82090B9F1000F00F0D08099F8013002
S11354F0002B40F0CD80AA4B53F82080D8F8003020
S113550023F01803C8F80030D8F84C301B0C1B04E7
S1135510C8F84C30D8F808301B0C1B044A881343D5
S1135520C8F80830D8F8003023F02003C8F8003059
S1135530D8F8643023F08003C8F86430D8F86430B5
S113554023F00103C8F864300B78002B00F01481B9
S11355500F4601900025934B03EBC00B10E0002293
S113556021464046FFF734FF7B6833445A783AB308
S1135570012A57D00135EDB23B78AB4240F2FC80B2
S11355802E017B689A199C5D4FEA540A936809EBD3
S1135590840293617B683344DB68936309EB0403FF
S11355A0012283F85820032CDED87B6833449A798F
S11355B0002AD4D01A7921464046FFF709FFD3E7E1
S11355C0D8F864304FEACA024FF0040A0AFA02FA21
S11355D023EA0A03C8F8643008EBC403DA6822F04B
S11355E01002DA60DA6822F02002DA60D8687A6899
S11355F01644B278910001F0040120F00400014344
S1135600D960D968920002F0080221F008010A4327
S1135610DA60DA6842F04002DA601BF9040001F053
S113562019F8A7E7D978D8795D4B019A53F8223055
S11356305A6E4FEACA0A042606FA0AF616435E664A
S11356405E6E082202FA0AF232435A6698B103EBFC
S1135650C402D06840F01000D060D06840F0200050
S1135660D060032919D001292FD0042954D002294C
S11356706AD0012640E003EBC402D06820F0100099
S1135680D060D06840F02000D060EAE7012600E056
S11356900126304603B0BDE8F08F03EBC402D168A5
S11356A041F00401D160D16821F00801D160621C8D
S11356B0D2B203EBC202D16821F00401D160D168F7
S11356C041F00801D160002616E003EBC402D16862
S11356D041F00401D160D16821F00801D160621C5D
S11356E0D2B203EBC202D16841F00401D160D168A7
S11356F021F00801D1600026621CD2B203EBC20380
S1135700DA6842F04002DA601BF9040000F0A2FFFC
S1135710002E3FF42FAFBCE703EBC402D16821F0A5
S11357200401D160D16841F00801D160621CD2B299
S113573003EBC202D16841F00401D160D16821F0C9
S11357400801D1600026D7E703EBC402D16821F039
S11357500401D160D16841F00801D160621CD2B269
S113576003EBC202D16821F00401D160D16841F099
S11357700801D1600026BFE7012389F80130D8F879
S1135780002099F80030DB0003F0180322F018021F
S11357901343C8F8003000267BE700BFF021002047
S11357A0E0DE0000FCDE00002DE9F84F304B53F83A
S11357B02060304B53F820B0336823F01803336073
S11357C0F36C1B0C1B04F364B3686FEA13436FEAB6
S11357D00343B360336823F0200333600B78002B5A
S11357E034D0884600274FF0010A4FF0040920E026
S11357F0736EED000AFA05F223EA02037366736E10
S113580009FA05F523EA0505756606EBC404E368A1
S113581023F00403E360E36823F00803E360E36830
S113582023F04003E3600137FFB298F80030BB4235
S11358300CD9D8F804203B01D45C6508032CD7D8D4
S1135840002221463046FFF7C3FDD1E70BF11803D0
S11358500BF138000146002243F8042B41F8042BD5
S11358608342F9D100208BF80100BDE8F88F00BF16
S1135870E0DE0000F0210020044B53F820301BB17F
S1135880043133F81100704700207047F0210020E4
S113589030B4184B53F8204004EBC100C368C3F381
S11358A00013C268120902F002021343022B02D051
S11358B0012030BC7047656E4B08DB0004229A401F
S11358C02A4215D00131C9B204EBC101CA6822F0E1
S11358D08002CA60CA68C26822F08002C260C268DC
S11358E0616E082202FA03F30B4363660020E0E7CB
S11358F00020DEE7E0DE000070B44F4C54F82000D6
S1135900002A52D014464A08651EEDB2022D59D918
S1135910466ED2000425954035434566466E0825FB
S113592005FA02F232434266002B71D000EBC10348
S1135930DA6842F01002DA60DA6842F02002DA60D3
S1135940062C73D0042C74D0052C6CD001250226AF
S113595000EBC103DC68B20002F0040224F004048A
S11359602243DA60DC68760824F0080444EAC604BA
S1135970DC600131C9B200EBC100C268A90001F0CA
S1135980040122F004021143C160C2686D0822F0D0
S1135990080242EAC502C260DA6822F04002DA6014
S11359A0C36843F04003C36009E000EBC101CB6866
S11359B023F00403CB60CB6823F00803CB60002002
S11359C070BC7047436ED200042505FA02F223EA44
S11359D00202426600EBC100C36823F01003C360F7
S11359E0C36823F02003C360C268A3002B4022F0E5
S11359F004021343C360C368A40004F0080423F042
S1135A0008031C43C460C36843F04003C360D6E783
S1135A1000EBC103DA6822F01002DA60DA6842F0BF
S1135A202002DA608CE702252E4691E70225012642
S1135A308EE701252E468BE7E0DE000008B5002145
S1135A400846FFF7EDFC08BD08B501210020FFF76B
S1135A50E7FC08BD08B502210020FFF7E1FC08BD02
S1135A6008B503210020FFF7DBFC08BD08B50021C1
S1135A700120FFF7D5FC08BD08B501210846FFF752
S1135A80CFFC08BD08B502210120FFF7C9FC08BD01
S1135A9008B503210120FFF7C3FC08BD08B50021A8
S1135AA00220FFF7BDFC08BD08B501210220FFF765
S1135AB0B7FC08BD08B502210846FFF7B1FC08BDD4
S1135AC008B503210220FFF7ABFC08BD08B500218F
S1135AD00320FFF7A5FC08BD08B501210320FFF74B
S1135AE09FFC08BD08B502210320FFF799FC08BDFF
S1135AF008B503210846FFF793FC08BD2DE9F043E0
S1135B003F4B53F820303F4A52F820801A6822F065
S1135B1018021A6000218E4601244FF0200C8027C1
S1135B201026402503EBC102C2F810E0D06820F033
S1135B300400D060D06820F00800D060D06820F065
S1135B401000D060D06820F02000D0601A6822F0E5
S1135B5020021A601A6F04FA01F022EA00021A679E
S1135B601A6801F1100004FA00F022EA00021A6037
S1135B70586EC1F34602D2000CFA02F920EA090079
S1135B805866586E07FA02F920EA09005866586EFA
S1135B9004FA02F920EA09005866586E06FA02F976
S1135BA020EA09005866586E05FA02F220EA020259
S1135BB05A6601310829B5D19A6E22F470229A6688
S1135BC09A6E22F0C00242F040029A669A6E22F067
S1135BD03F029A660020D8675A6D22F080025A6507
S1135BE05A6D22F060025A659A68120C12049A6087
S1135BF05A68120C12045A6088F80100BDE8F08358
S1135C00E0DE0000F02100202DE9F041BDF818701D
S1135C103C4C54F820503C4C54F82060AC68A4B27E
S1135C207078042819D0032803BF0134A4B20020DB
S1135C300120CAB9B3F5004F58D8B7F5004F58D86A
S1135C4004FB03F2C2F3CF3204FB07F7C7F3CF37E9
S1135C50B3F5004F05D013460AE06400A4B2002057
S1135C60E7E7531C9BB203E09C4245D3BC4246D3B6
S1135C70002845D14A08D5F864804FEAC20E4FF097
S1135C80010C0CFA0EFC1CEA080F25D0D5F864C0F0
S1135C90802101FA0EFE1EEA0C0F07D0296811F0CC
S1135CA0180F06D105EB02110B6102E005EB02119E
S1135CB00B6153000133DBB2013305EBC3039F6077
S1135CC0AA6D9DF81C30DB01DBB222F08002134385
S1135CD0AB657480BDE8F0812A6812F0200F18BF0C
