S0170000466F635F6D6F64656C5F4D61746C61622E6D6F7432
S113000000700020B50400001D0500001D0500005F
S11300101D0500001D0500001D0500000000000076
S11300200000000000000000000000001D050000AA
S11300301D050000000000001D050000A5A900002A
S1130040DD4E0000E74E0000F14E0000FB4E0000C4
S1130050054F00000F4F0000194F0000234F000010
S11300602D4F0000374F0000414F00004B4F000060
S1130070554F00005F4F0000694F0000734F0000B0
S11300807D4F00001D0500001D0500001D0500003A
S11300901D0500001D0500001D0500001D050000D4
S11300A01D0500001D0500003D8800004788000074
S11300B0518800001D0500001D0500001D050000FD
S11300C01D0500001D0500001D0500001D050000A4
S11300D01D0500001D0500001D050000C9A8000045
S11300E0D3A800001D0500001D0500001D0500002B
S11300F01D0500001D0500001D0500001D05000074
S11301002DA900001D0500001D0500001D050000AF
S11301101D0500001D0500001D0500001D05000053
S11301201D0500001D0500001D050000F57C0000F4
S11301302D7D0000657D00009D7D0000D57D0000C3
S11301401D0500001D0500001D0500001D05000023
S11301501D0500001D0500001D0500001D05000013
S11301601D0500001D0500001D0500001D05000003
S11301701D0500001D0500001D0500001D050000F3
S11301801D0500001D0500001D0500001D050000E3
S11301901D0500001D0500001D0500001D050000D3
S11301A01D0500001D0500001D0500001D050000C3
S11301B01D0500001D0500001D0500001D050000B3
S11301C01D0500001D0500001D05000081720000D2
S11301D08D72000099720000A5720000556A00003B
S11301E01D050000B1720000BD720000C97200005C
S11301F0D5720000956A00001D050000E172000040
S1130200ED720000F972000005730000D56A000069
S11302101D050000117300001D7300002973000008
S113022035730000156B00001D0500001D0500005E
S11302301D0500001D0500001D0500001D05000032
S11302401D0500001D0500001D0500001D05000022
S11302501D0500001D0500001D0500001D05000012
S11302601D0500001D0500001D0500001D05000002
S11302701D0500001D0500001D0500001D050000F2
S11302801D0500001D0500001D0500001D050000E2
S11302901D0500001D0500001D0500001D050000D2
S11302A01D0500001D0500001D0500001D050000C2
S11302B01D0500001D0500001D0500001D050000B2
S11302C01D0500001D0500001D0500001D050000A2
S11302D01D0500001D0500001D0500001D05000092
S11302E01D0500001D0500001D0500001D05000082
S11302F01D0500001D0500001D0500001D05000072
S11303001D0500001D0500001D0500001D05000061
S11303101D0500001D0500001D0500001D05000051
S11303201D0500001D0500001D0500001D05000041
S11303301D0500001D0500001D0500001D05000031
S11303401D0500001D0500001D0500001D05000021
S11303501D0500001D0500001D0500001D05000011
S11303601D0500001D0500001D0500001D05000001
S11303701D0500001D0500001D0500001D050000F1
S11303801D0500001D0500001D0500001D050000E1
S11303901D0500001D0500001D0500001D050000D1
S11303A01D0500001D0500001D0500001D050000C1
S11303B01D0500001D0500001D0500001D050000B1
S11303C01D0500001D0500001D0500001D050000A1
S11303D01D0500001D0500001D0500001D05000091
S11303E01D0500001D0500001D0500001D05000081
S11303F01D0500001D0500001D050000FFFFFFFF97
S1130400FFFFFFFFFFFFFFFFFFFFFFFFFE7FFFFF79
S1130410044B05481B1A062B02D9044B03B1184799
S1130420704700BF9F89FF1F9C89FF1F00000000C9
S113043005490648091A891001EBD171491002D007
S1130440034B03B1184770479C89FF1F9C89FF1F0A
S11304500000000010B5064C237843B9FFF7D8FF1D
S1130460044B13B10448AFF300800123237010BD83
S1130470000000200000000000F1000008B5084B57
S11304801BB108490848AFF300800848036813B952
S1130490BDE80840CCE7064B002BF9D09847F7E7B6
S11304A0000000000400002000F100009889FF1FF4
S11304B00000000072B64FF000014FF000024FF050
S11304C000034FF000044FF000054FF000064FF01A
S11304D00007B846B946BA46BB46BC460A490B4A69
S11304E0521A013A05DD0020042308601944043A35
S11304F0FBDA07488546074880470748804762B6C5
S11305000AF03AFAFEE700000080FF1F00700020A6
S113051000700020D1BF0000F9BE0000FFF7FEBF4D
S113052070B500200AF066FB0646FF22002108464B
S11305300AF0D6FB0546FF22012100200AF0D0FB79
S113054004460F4B1E600F4B1D600F4B18600F4A83
S1130550D36E43F04003D36616B92DB954B970BDB8
S113056000200AF051FBF8E72A46002108460AF069
S1130570C5FBF3E72246012100200AF0BFFBEEE7AA
S113058078270020602700205027002000600240C8
S113059008B50122064B1A70032006F0D1FE002193
S11305A004480BF067FF0A2103480AF0F4FC08BD75
S11305B038260020D427002000D00440084AD388DD
S11305C0B3FA83F35B0943701389B3FA83F35B09CA
S11305D083705389B3FA83F35B09C370704700BF18
S11305E01C00002008B507EE900AF8EE677AB3EE17
S11305F0017A77EEC77A9FED1C7A67EE877A07EE69
S1130600101AB8EE477ADFED196A37EE667A184B9E
S113061083ED007AB2EE007AF4EEC77AF1EE10FAC6
S113062013D4B3EE007AF4EEC77AF1EE10FA0CDCD0
S1130630D3ED007A9FED0F7A67EE877A9FED0E7AFD
S1130640F4EEC77AF1EE10FA02DD0C4B1B7803B11D
S113065008BD032006F074FE0122084B1A70002125
S113066007480BF007FFF3E7410B343C00A00245B9
S11306708C2600200000043C33331340382600202D
S1130680D4270020014B0360704700BF8AAB2A3E89
S1130690014B0360704700BF3BAAAA3E4FF07C5356
S11306A003607047014B0360704700BFE3AA2A3F11
S11306B0014B0360704700BF1D55553F0023036085
S11306C07047F8B5434DB5F85C40A40004F180448C
S11306D004F5CA24236843F0804323603E4E02227B
S11306E0082130460AF07AFD236843F080432360F2
S11306F00222092130460AF071FD236843F0804349
S1130700236002220A2130460AF068FD236843F080
S11307108043236002220B2130460AF05FFDB5F8C6
S11307205E40A40004F1804404F5CA24236843F025
S11307308043236006F5805602220A2130460AF0DF
S11307404DFD236843F08043236002220B21304691
S11307500AF044FDB5F87E3006F5D0364FF08C47EC
S113076046F823709B0003F1804303F5CA231A68FB
S113077042F080421A60194A1949032006F0DEF853
S1130780184C00220121204606F02BFA00220321F6
S1130790204606F026FA00220521204606F021FA1A
S11307A0B5F88A3046F8237007F038FB0E4B012267
S11307B083F826204FF4FA729A84B5F87C309B00B3
S11307C003F1804303F5CA231A6842F080421A6099
S11307D0F8BD00BFA4EE000000A00440942800204F
S11307E0CC84FF1F0060024040260020064B0122FB
S11307F083F826204FF4FA729A84002283F82D207D
S113080083F82E20704700BF402600202DE9F047D2
S11308102DED068B82B00321002007F0DBFEC643DA
S11308206B4B1A686B4B1A606B4F3D88ADB26B48CB
S11308300AF010FCC0F34000694C20778000DFF818
S1130840D891C9F80000DFF8D4A150460AF002FCA0
S1130850C0F3802060774000DFF8C481C8F800004E
S113086050460AF0F7FBC0F3C020A0775D4A106041
S1130870D9F80030D8F8001012680B4413445A4ACF
S113088013603B889BB20BB100223A80574B93F81C
S11308902630002B6BD1002D14BF0127002768D10F
S11308A04F4B5B8A002B14BF4FF001084FF0000838
S11308B000F00982474B1A684D4B1B889BB292B2D9
S11308C09A4299BF4A4B1B88424B1B689BB247F61E
S11308D01122934200F2F781464B1B889BB223B945
S11308E03F4BDB7E002B00F0EE81434B1B881BB299
S11308F0002B49DD3E4B1B889BB207EE903AF8EE85
S1130900677A3E4B93ED007A87EE27AADFED3C7AB7
S11309102AEE27AA2F4B1A68354B1B889BB292B23A
S113092007EE902AF8EE676A07EE903AB8EE677A17
S1130930C6EE877A9FED337A67EE877A9FED397A30
S1130940F4EE477AF1EE10FAC8BFF0EE477A2A4B7C
S11309501B881BB2012B00F09581234B1B68013BC4
S1130960052B31D8DFE803F0272D2A2124602DB18F
S113097001274FF4FA721D4B9A8400E001271B4BA8
S11309809A8C174B5A828BE7194B1B889BB207EE44
S1130990903AF8EE677A194BD3ED006A86EEA77A9F
S11309A09FED17AA2AEE47AAB4E79FED177A3DE018
S11309B0B6EE007A3AE09FED157A37E09FED147AAF
S11309C034E0B7EE007A31E09FED127A2EE000BFFA
S11309D004A00340982600204027002000F00F4088
S11309E0B02600202C280020442700204026002088
S11309F07026002064270020E026002098ED0000E7
S1130A00CDCC4C3DABAA2A3E3BAAAA3EE3AA2A3F40
S1130A101D55553F00000000D8260020C0F00F40AF
S1130A20D02700208AAB2A3E1FED027A77EE677A40
S1130A30C44BC3ED037AC34BDA68C34B1A60C14B92
S1130A405D8AC14B93ED007ADFEDC07AB4EEE77AAC
S1130A50F1EE10FA00F26D8193ED008AF7EE007A60
S1130A6038EE278ADFEDB97A38EE678A18EE100A75
S1130A700CF0BEFA41EC100B0CF09EFF51EC100B85
S1130A800CF0BEFD07EE900A38EE678AB04981ED9E
S1130A90008AB04BD3ED007AAF4B93ED007A77EE3A
S1130AA0C77AAE4AC2ED007AAD4BD3ED007AAD4BB6
S1130AB093ED007A77EEC77AC2ED017A92ED007A6F
S1130AC0DFEDA96A27EE267AA84B83ED007AD2EDF2
S1130AD0017A67EEA67AC3ED017AD3ED008A93ED2D
S1130AE0017AD3ED017A78EE878A78EEA78ADFED72
S1130AF0A07A68EEA78AD1ED007AF5EEC07AF1EE1D
S1130B0010FA00F16781924B93ED007AD3ED007AED
S1130B10FDEEE77A17EE903A1BB207EE903AF8EE44
S1130B20E77A77EE677A9FED937A67EE877ABCEE81
S1130B30E77A17EE103A9BB207EE103AB8EE477A0E
S1130B4077EEC77A8C4A02EB8301D1ED006A91ED0E
S1130B50017A37EE667A27EE277A37EE267A8749C6
S1130B6081ED007A02EB8300D0EDC86A90EDC97A7A
S1130B7037EE667A67EE277A77EEA67A804BC3ED76
S1130B80007AD3ED007A794B93ED007AD1ED006AC7
S1130B9068EEA77A27EE267A77EEC77A794BC3ED0B
S1130BA0007A794AD2ED017A93ED007A77EEC77A2A
S1130BB0764BC3ED007A764BD3ED007AB7EE007A2C
S1130BC077EE677A87EE278A9FED727A28EE077AA6
S1130BD0DFED717A67EE277ADFED706A67EEA67A49
S1130BE09FED6F6A77EEC67A27EE077A67EE266A7C
S1130BF087EEA67AC7EE876A27EE267A694B1C78B9
S1130C00E4B2694B93F82D3003B12CB9664B002242
S1130C10DA61012283F82D205C4BD3ED006A67EE84
S1130C20A67A614B93ED076A67EE066A76EEA76AC9
S1130C30F7EE005AF4EEE56AF1EE10FA00F1E58001
S1130C40F7EE005AF4EEE56AF1EE10FA08DB4F4BCA
S1130C50D3ED005AF5EEC05AF1EE10FA00F1DD8042
S1130C60FFEE005AF4EEE56AF1EE10FA00F2DD80D0
S1130C70464BD3ED006AF5EEC06AF1EE10FA00F3CC
S1130C80CC80D2E0494B1B68013B042B18D8DFE829
S1130C9003F00E1411030B009FED457A77EE877A6B
S1130CA0284BC3ED037AC6E69FED427AF6E7B6EE2B
S1130CB0007AF3E79FED407AF0E79FED407AEDE7A5
S1130CC09FED3F7AEAE7394B1B68013B052B2AD895
S1130CD0DFE803F016231C0910033A4A1A4B1A6082
S1130CE09FED37AAABE64FF07A52174B1A609FED8F
S1130CF034AAA4E6344A144B1A609FED31AA9EE646
S1130D00324A114B1A609FED2EAA98E64FF07D529D
S1130D100D4B1A609FED2AAA91E62D4A0A4B1A60E0
S1130D209FED27AA8BE69FED26AA074B83ED00AA29
S1130D3085E6054B93ED008ADFED047A38EE678A89
S1130D4094E600BFB026002090270020F8C2343F6C
S1130D50FC2600207426002000270020A026002066
S1130D605C270020F42600200000003A0C28002014
S1130D703ACD133F00004844F0DD000084260020F3
S1130D808826002074270020A82600204827002059
S1130D90CC27002040F3B644F4FDB43FB610E43948
S1130DA096FC223F4C2700204026002044270020A8
S1130DB08AAB2A3E3BAAAA3EE3AA2A3F1D55553FC9
S1130DC0000000007EAAAA3DC555D53E1D55153F1D
S1130DD0E3AA6A3F91ED008A08680CF009F941EC36
S1130DE0100B0CF0E9FD51EC100B0CF009FC07EEB4
S1130DF0900AFDEEE77A17EE903A1BB207EE903AAE
S1130E00F8EEE77A78EE677A8DE6FFEE005AF4EEB4
S1130E10E56AF1EE10FA7FF713AFAD4BD3ED006A3C
S1130E2036EE266AAB4B83ED076AAA4BD3ED076A0D
S1130E3027EE267A77EE277AA74BC3ED007A93ED57
S1130E40007AFFEE007AB4EEE77AF1EE10FABCBF56
S1130E5017EE902A1A60A04B93ED007AF7EE007A11
S1130E60B4EEE77AF1EE10FA84BF17EE902A1A6016
S1130E707AEE0A9A994BD3ED007A994BD3ED006A36
S1130E80984B93ED007A67EEA67A68EE878A77EE40
S1130E90A88ADFF88892C9ED008A8F4B93ED009AF7
S1130EA0D9ED00AA19EE900A0CF0A2F886A3D3E9B2
S1130EB000230CF0F5F80CF0A3FB07EE900A37EED4
S1130EC0899A69EEAAAADFED886A6AEEA6AA39EEC3
S1130ED02A9A864BD3ED007A99ED007A77EEC77A99
S1130EE0834BC3ED007A9FED837A28EE077ADFED1A
S1130EF0827A67EE277A67EEA67A9FED806A77EEAC
S1130F00C67A27EE077A27EE267AC7EE876A87EE37
S1130F10A67A26EE877A6F4B93F82E3003B12CB95C
S1130F206C4B00221A62012283F82E20704BD3ED01
S1130F30006A67EEA67A674B93ED086A67EE066A65
S1130F4076EEA76AF7EE005AF4EEE56AF1EE10FACF
S1130F501ED4F7EE005AF4EEE56AF1EE10FA07DB60
S1130F60634BD3ED005AF5EEC05AF1EE10FA16D4E5
S1130F70FFEE005AF4EEE56AF1EE10FA17D85C4B76
S1130F80D3ED006AF5EEC06AF1EE10FA07DC0EE06C
S1130F90FFEE005AF4EEE56AF1EE10FAD9DD544B97
S1130FA0D3ED006A36EE266A4A4B83ED086A494B54
S1130FB0D3ED086A27EE267A77EE277A504BC3EDF5
S1130FC0007A93ED007AFFEE007AB4EEE77AF1EE60
S1130FD010FABCBF17EE902A1A60494B93ED007AC1
S1130FE0F7EE007AB4EEE77AF1EE10FA84BF17EE6A
S1130FF0902A1A60424BD3ED008A424BD3ED007A1B
S113100069EEA79ADFED407A69EEA79A78EEE99A3D
S113101069EEA97A29EE097A77EE877A9FED3B7A11
S1131020F4EEC77AF1EE10FA34DC2D4A92ED008A20
S11310302C4BD3ED007A29EE888A69EE277A38EEB4
S1131040678AF6EE007A68EE277A92ED007AD3ED9D
S1131050008A29EE079A69EEA89A39EE299ADFEDFB
S11310602C8A29EE289A79EE679ADFED2A8A78EE9F
S1131070E78A78EEC98AB0EE690A0AF0D5FDB4EEC3
S1131080E98AF1EE10FA4DDA002840F00681F0EE1C
S113109069AA49E017EE900A0BF0AAFF41EC100B85
S11310A00CF00EFD51EC100B0CF0AAFA07EE100A2E
S11310B0DFED197A69EEA76AC6EE879A69EE277A98
S11310C087EE879AB1E700BF3B70B89E4C5F803FC4
S11310D04827002040260020D42600200C28002089
S11310E08826002084260020A69BC439A826002038
S11310F09C260020E438D444F4FDB43F96FC223FFF
S11311007826002074270020B610E4393D0A673F92
S1131110D7B35D3F000000003333733F3428002011
S11311203ACD933FF0EE48AAB4EEE98AF1EE10FA14
S113113040F2B88000280CBFB0EE699AB0EE489A2D
S1131140B0EE680A0AF070FDF4EEE8AAF1EE10FAC7
S113115002DA50B9F0EE68AAB4EEE89AF1EE10FAA9
S113116003D9002808BFB0EE689A79EE2A7ABEEE59
S1131170007A67EE877A38EE278A1FED176A28EE21
S1131180068AF7EE006A38EE268AB6EE007A28EE72
S1131190078A494B83ED008A79EEA79A69EE869A0D
S11311A079EEA69A69EE879AC3ED019A78EEA78A3A
S11311B068EE868A78EEA68A68EE878AC3ED028A8C
S11311C03E4B1B78DBB207EE903AF8EE677A3C4B65
S11311D0C3ED007AD3ED007AF4EEC77AF1EE10FA9B
S11311E063DB354A1168374B19605168596092685E
S11311F09A60DFF8D0A0DAED007A9FED338A67EECB
S1131200887AFCEEE77A4FF00109CDF804900024C7
S1131210009417EE903A9BB222462146032006F032
S113122015F9DAED017A67EE887AFCEEE77ACDF803
S11312300490009417EE903A9BB2224602210320B8
S113124006F004F9DAED027A67EE887AFCEEE77AC2
S1131250CDF80490009417EE903A9BB222460421F4
S1131260032006F0F3F804F0B7FA184B83ED00AA54
S1131270174B83F826800FB1013D9D840321002084
S113128007F0A8F9C143304606F0E0FD114B1860A1
S113129002B0BDEC068BBDE8F087F0EE48AAB0EED4
S11312A0489A4DE7B0EE489A4AE7064B00221A6086
S11312B05A609A609DE700BF682700204C270020F1
S11312C0F02600208427002000000047F826002094
S11312D0402600200429002030B583B00DF102021D
S11312E00221012000F0DEFF274CBDF8023023600C
S11312F001AA0221012000F031FFBDF80630A376D7
S11313000321002007F066F90546204AD36E23F036
S11313104003D366002000F0AFFF6A460021084670
S113132000F0C0FFBDF80020194B1A602268194B69
S11313301A60012000F0A0FF6A460021012000F09D
S1131340B1FFBDF80030144C2360012000F094FF7D
S11313506A460121084600F0A5FFBDF800200F4BA6
S11313601A6020681968FFF73DF9FFF74FFA032167
S1131370002007F02FF9C143E84306F067FD084B4E
S1131380986003B030BD00BFB0260020006002406A
S1131390902600203C2700202828002094260020A6
S11313A00429002010B52DED028B0321002007F045
S11313B011F9C443714B1B78DBB207EE903AF8EE97
S11313C0677AB6EE007AF4EEC77AF1EE10FACCBF83
S11313D06B4B6C4B1A686C4B1A6000226B4B5A6057
S11313E0664B1B78DBB26A4A92F82B2012B1002BB1
S11313F040F0B880664A00219161012182F82B10E7
S113140092F82A20002A60D0002B40F0B080604B74
S113141000225A61012283F82A2001225C4B83F8BE
S11314202C20584BD3ED008A574BD3ED007A78EE3D
S1131430E78A584B93ED008A554BD3ED067A28EE94
S1131440278A38EE288A544BD3ED007AB0EEC87A56
S1131450B4EEE77AF1EE10FA44DC4F4BD3ED007AA8
S113146088EE277A4D4BD3ED007A27EEC77A464AA9
S1131470D2ED007A474BD3ED006A68EEA66A77EEA8
S1131480E67ADFED476A67EEA67A414BD3ED056A4B
S11314909FED446A66EE866A77EEA67A12685A6110
S11314A0C3ED068A77EE277ADFED3F6A87EEA67AE8
S11314B0364B83ED027AFEEE007AB4EEE77AF1EE73
S11314C010FA2DDAC3ED027A34E0314A0021516179
S11314D0012182F82A1092F82C20002A9DD0002B9A
S11314E09FD19AE7B0EE480A0AF09EFB40B12F4B19
S11314F093ED007A294BD3ED007A27EEC77AB6E74D
S1131500B5EEC08AF1EE10FA07D4DFED297AB7EE12
S1131510007AD8BFB0EE677AECE7BFEE007AE9E76D
S1131520F6EE007AB4EEE77AF1EE10FA02D9174B30
S1131530C3ED027A144BD3ED007A124B93ED007A8B
S113154077EEC77A1B4BC3ED007A0321002007F026
S113155041F8C143204606F079FC174B5860BDECB6
S1131560028B10BD0A4A92F82A20002AADD0084BFB
S113157093F82C30002B3FF450AF52E74C27002057
S1131580DC2600201C280020E4260020B0260020B1
S11315904026002080260020802700205427002099
S11315A09C53493795BFD633F0A7C63D1029002078
S11315B0000000002028002004290020124BDB88B2
S11315C001339BB2012B15D900220F4BDA800E4B4D
S11315D01B8901339BB2132B0FD80B4A13810A4B7F
S11315E05B8901339BB2B3F5FA6F0AD30022064B31
S11315F05A817047044AD380E9E70022024B1A81DA
S1131600EDE7014A538170471C00002010B5374BA9
S11316101B889BB2364A1380364B93F8272052B26C
S113162003EBC20108683449086003EBC2030433C6
S11316301B684B60314BD3ED007AF8EE677A304B80
S1131640C3ED007A2F4BD3ED007AF8EE677A2E4B78
S1131650C3ED007A2D4B1B78C3B92D4C4FF4803168
S1131660204609F0F3FC4FF40041204609F0ECFC5D
S1131670204B93F82830ABB11E4B93F82930012B43
S113168017D002221B4B83F8292010BD204C4FF4A5
S11316908031204609F0D8FC4FF40041204609F07F
S11316A0D5FCE5E7134B012283F8282083F8292091
S11316B010BD1849032005F04BFF174AD36E43F0C1
S11316C04003D366002009F06EFA012009F06BFA9A
S11316D00F200BF0E5F9002009F0A6FA012009F02B
S11316E0A3FA0222034B83F8292010BD30280020DE
S11316F02628002040260020A8260020902600202E
S1131700002700203C270020F42600203826002053
S1131710C0F00F40E084FF1F0060024010B5144C7D
S11317202269144B1A60144B1A68144B1A60FFF7A1
S113173039FE94F827305BB2002B114B59680CBF6B
S1131740082300232344196094F827305BB2002B4C
S11317500B4B996814BF04230C232344196094F899
S113176027305BB2B3FA83F35B0984F8273010BDEA
S113177040260020DC260020F82600201C2800201B
S1131780B0260020054BD3ED007A9FED057A67EE75
S1131790877A044BC3ED047A704700BF7C2700208E
S11317A06F12033A402600202DE9F04F9DB0082027
S11317B00AF0C0F9CC4CCD4F3A88BB782280A37094
S11317C0CB4E3288B378A4F803206371C94D2946FF
S11317D000200BF087F9DFF87C93B9F86E30DFF85E
S11317E078834FF08C4B48F823B09B0003F180437F
S11317F003F5CA231A6842F080421A60BE490020E9
S113180009F078F941F28831002009F017FABB4A4F
S11318100021084609F02AFA4FF4FA63002211461F
S1131820104609F075FA002009F0FEF93A88BB78F1
S11318302280A3703288B378A4F803206371294608
S113184000200BF04FF9B9F8703048F823B09B0032
S113185003F1804303F5CA231A6842F080421A60F8
S1131860A749012009F046F941F28831012009F025
S1131870E5F9A44A0021012009F0F8F900231A46E9
S11318801946012009F044FA9F4A0021012009F079
S1131890EDF94FF47A7301220021104609F038FA69
S11318A09A4A0021012009F0E1F94FF4FA63022277
S11318B00021012009F02CFA012009F0B5F904AB4C
S11318C005F1080696E8070003C323F8022B120C5F
S11318D01A700024029403948DF804408DF8054096
S11318E0B9F882108B0003F1804303F5CA231A6808
S11318F022F080421A6048F821B01A6842F080420F
S11319001A60204600F06CFC04A9204600F038FA66
S11319102146204600F042FC02A9204600F071FB5B
S113192001A9204600F0BEFB204600F0C7FC04AB32
S113193096E8070003C323F8022B120C1A700294D2
S113194003948DF804408DF80540B9F884108B0099
S113195003F1804303F5CA231A6822F080421A6017
S113196048F821B01A6842F080421A60012000F061
S113197037FC04A9012000F003FA2146012000F0FD
S11319800DFC02A9012000F03CFB01A9012000F09C
S113199089FB012000F092FC6B69049304AA0221E4
S11319A0012000F0B0FBDFF8B4A1DAF8043023F032
S11319B00F0343F00203CAF8043003F08BFB03F077
S11319C0D9FB03F0E7FBB9F88C304FF0864248F8B6
S11319D02320B9F85C304FF0804248F8232048F8BF
S11319E0232048F8232048F823206022214604A815
S11319F00CF078F9464A0492032305938DF81B30C2
S1131A000A9204210B918DF8333010920221119126
S1131A108DF84B301692052217928DF8633004A985
S1131A20042009F077FA2022214604A80CF05AF980
S1131A30384B04930823ADF8183001258DF8205055
S1131A408DF82350344B0A9302A9462002F08AFBF6
S1131A50029B079304AA3149204607F021F9304B31
S1131A60304A1360304A1360304A314B1A60314AAD
S1131A70314B1A60314A324B1A60324A324B1A6087
S1131A80B9F85A70BF0007F1804707F5CA273B68C9
S1131A9043F080433B600694079409942B4B0493D2
S1131AA005958DF81B508DF81E5003F536230893C9
S1131AB004A9284609F02EFAB9F86060B60006F1C8
S1131AC0804606F5CA26336843F0804333600694A3
S1131AD0079409941E4B04930A2305938DF81B5015
S1131AE08DF81E503CE000BFE82600205085FF1F03
S1131AF06C85FF1FD4DD0000142600204885FF1FDD
S1131B00202600206485FF1F5C85FF1F5485FF1F6E
S1131B1000A0044040420F00000000009427002071
S1131B200000FF44742600205C2700209A99193F86
S1131B30CC2700208FC2F53C542700203333333F99
S1131B4080270020CDCC4C3F80260020009004400C
S1131B5000C00440A4EE0000005006400080044091
S1131B60734B089304A9284609F0D4F9336843F069
S1131B70804333600694079409946E4B04930B23BB
S1131B8005938DF81B508DF81E50694B089304A9DA
S1131B90284609F0BFF9B9F87C3048F823B09B0017
S1131BA003F1804303F5CA231A6842F080421A60A5
S1131BB0614A6249022004F0C1FE6149022005F035
S1131BC0ADF83B6843F080433B60022229465D4800
S1131BD009F004FB336843F08043336002220A2196
S1131BE0544809F0FBFA336843F08043336002221F
S1131BF00B21504809F0F2FA534B5A6942F00202A1
S1131C005A615A6942F040025A61DAF81C3043F4CE
S1131C108073CAF81C3005216F2006F06DF96F201F
S1131C2006F03AF9224649496F2006F015F9484A68
S1131C302946022004F03AFB41F28731204609F09C
S1131C4009F8204608F0F0FF424A136823F40033F1
S1131C5023F0200343F02003136022463E4934203E
S1131C6006F0FAF80621342006F046F9342006F08E
S1131C7013F98DF810404FF00403ADF8123004AAA4
S1131C802146204600F03FFA8DF810400723ADF8B6
S1131C90123004AA2146284600F035FA8DF8104087
S1131CA00623ADF8123004AA2946284600F02BFA80
S1131CB0FEF707FD294A0221284608F0FDFD05210B
S1131CC0282006F019F9282006F0E6F8336843F0D6
S1131CD080433360069407940994164B04931023AD
S1131CE005938DF81B508DF81E50114B08938DF8F9
S1131CF0245004A9284609F00DF9336843F08043C1
S1131D0033600694079409940A4B04930F230593B4
S1131D108DF81B508DF81E50054B08938DF82450F8
S1131D2004A9284609F0F6F81DB0BDE8F08F00BFFD
S1131D30C0F00F4000C0044028000020A084FF1F12
S1131D40B484FF1F0090044000A003408D60000095
S1131D50DD5C00000060034021050000D912000092
S1131D60704700BF002303700C2242708370C3705D
S1131D70037143718371C371037243728372704739
S1131D8070B584B006460D465D4B53F820404123A0
S1131D908DF80C3042238DF80D3004A9002341F84E
S1131DA0083D04AB034413F8040C02F0DBF92B7870
S1131DB0029ADA400292226C22F060025B0103F084
S1131DC06003134323646B78002B08BF0123626C08
S1131DD022F0FF0213436364226C22F00C02AB78FE
S1131DE09B0003F00C0313432364226C22F00302D0
S1131DF0EB7803F0030313432364D4F8902022F018
S1131E0040022B799B0103F040031343C4F8903044
S1131E106B79302200924FF440520192394A926910
S1131E2004A901EB860151F8101C22EA0102002EDC
S1131E3043D0012E4FD0334B9A61AA7901210091EE
S1131E404FF4807101919B6904A901EB860151F85B
S1131E50101C23EA0103002E39D0012E45D0294A53
S1131E609361D4F8903023F00403EA79002A14BF74
S1131E70042200221343C4F89030D4F8902022F0B6
S1131E8003022B7A03F003031343C4F89030D4F80D
S1131E90943023F008036A7A002A14BF082200222F
S1131EA01343C4F8943036B9AB7A1BBB154A536854
S1131EB023F40023536004B070BD1B0103F030030E
S1131EC0134310498B61AA798B6923F0010302F053
S1131ED001021343C3E71B0303F4405313430949AB
S1131EE08B61AA798B6923F48073120202F48072E5
S1131EF01343B4E7034A536843F400235360DAE717
S1131F009CED00000080044030B484B0374B53F89B
S1131F1020301A6CC2F341120A705A6C4A701A6C5F
S1131F20C2F38102012A56D0022A0CBF02220022E7
S1131F308A701A6C02F00302CA70D3F89020C2F3BC
S1131F4080120A7100220292012200924FF48072E0
S1131F50019208220392264A926904AC04EB80049D
S1131F6054F8105C2A4054F8084CE240012A14BF8B
S1131F70002201228A71302200924FF440520192D1
S1131F80042202920C220392194A926904AC04EBD3
S1131F90800454F8105C2A4054F8084CE240012AAA
S1131FA01BD0022A0CBF022200224A71D3F89020CF
S1131FB0C2F38002CA71D3F8902002F003020A72BD
S1131FC0D3F89430C3F3C0034B7240B100238B7237
S1131FD004B030BC70470122AAE70122E5E7044BB4
S1131FE05B68C3F3C0438B72F2E700BF9CED000053
S1131FF00080044000230370437083708380C38097
S11320007047174B53F82030D3F8902022F0200269
S11320100878002814BF202000200243C3F8902031
S1132020D3F8902022F010024878002814BF102022
S113203000200243C3F89020D3F8902022F0080235
S11320408878002814BF082000200243C3F8902099
S11320508A88C3F88820CA88C3F88C20704700BFD8
S11320609CED00000C4B53F82030D3F89020C2F3C1
S113207040120A70D3F89020C2F300124A70D3F8C9
S11320809020C2F3C0028A70D3F888208A80D3F8E3
S11320908C30CB80704700BF9CED000000230370A0
S11320A0437070470C4B53F82020D2F8943023F03F
S11320B004030878002814BF042000200343C2F856
S11320C09430D2F8940020F003004B7803F003031B
S11320D00343C2F8943070479CED0000064B53F85C
S11320E02020D2F89430C3F380030B70D2F89430DC
S11320F003F003034B7070479CED00000023037052
S11321001F234380704730B4124B53F82000538888
S11321101478A3F5706292B2052A0BD80E4A55685A
S113212025F4E025556055681B0403F4E0232B4394
S11321305360152350F8212003F01F0322F05F029F
S11321401343002C14BF40220022134340F82130D3
S113215030BC70479CED0000008004400D4B53F8E8
S1132160200050F82130C3F38013137050F821304D
S113217003F01F0308494968152B01D053807047A9
S113218011F4002FFAD0044B5B68C3F3024303F548
S11321907063F3E79CED00000080044082B00E23DE
S11321A000934FF4606301930C4B9B6902AA02EB0A
S11321B0800252F8082C23EA020328B1012808D02F
S11321C0064A936102B07047490001F00E010B43C7
S11321D0F6E7490201F460610B43F1E70080044033
S11321E030B583B00446224B53F8202000231F212E
S11321F042F823100133102BFAD1002111640C236F
S11322005364C2F88810C2F88C10C2F89010C2F857
S11322109410C2F8A0100423C2F8B0303023009305
S11322204FF440530193134B9A6902A800EB8400C6
S113223050F8085C22EA05029A61012200924FF4E8
S1132240807201929A6950F8080C22EA00029A619D
S11322502046FFF7A3FF44B9064B5A6822F4002234
S11322605A605A6822F4E0225A6003B030BD00BFBD
S11322709CED000000800440044B53F82020D2F869
S1132280903013F0800FFAD1704700BF9CED00002E
S1132290034B53F8203053F82100C0F3C0107047AB
S11322A09CED0000044B53F82030123153F82130D8
S11322B0C3F30B03138070479CED00002DE9F04736
S11322C082B04F4B53F82040D4F89430C3F38008C5
S11322D0D4F8947007F00307D4F89060656CEDB2FD
S11322E0D4F8943043F00303C4F89430D4F8943011
S11322F043F00403C4F89430D4F8903023F040033E
S1132300C4F89030636C23F0FF0343F00C03636460
S11323100023C4F8B430C4F8B830C4F8BC30C4F8EE
S1132320C030C4F8C430C4F8C830C4F8CC3041223A
S11323308DF8042042228DF8052002A941F8083DB9
S1132340D4F840904FEA591A02AB184410F8040C20
S113235001F008FF009B0AF0030A23FA0AFA294A4B
S1132360924512D9284A934208D9284A934245D91A
S1132370274A934294BF0323002300E00123226CE5
S113238022F0600242EA43132364D4F8943043F009
S11323908003C4F89430D4F8943013F08003FAD155
S11323A0226C22F0600209F0600949EA0202226408
S11323B0D4F8942022F00402B8F1000F18BF0423CB
S11323C01343C4F89430D4F8943023F003031F4328
S11323D0C4F89470D4F8903023F0400306F040061B
S11323E01E43C4F89060002D08BF0125636C23F0E0
S11323F0FF031D43656402B0BDE8F0870223BEE716
S11324009CED000040787D0181F0FA0203E1F505BE
S113241007C2EB0B04230380002343807047F0B40E
S1132420114B53F820200B88D2F8C400D2F8C070A6
S1132430D2F8BC60D2F8B850D2F8B440C2F8B03088
S11324403844034433442B44234413F4784F14BFD7
S11324504FF0FF3300239BB2C2F8AC308B78C2F844
S1132460A030F0BC704700BF9CED0000064B53F851
S11324702020D2F8B030C3F309030B80D2F8A03087
S1132480DBB24B80704700BF9CED0000024B184448
S113249090F90800704700BF9CED0000074B53F80B
S11324A02020012905D0D2F8903013F4702FFAD1EE
S11324B07047136C43F480731364F4E79CED0000DD
S11324C0044B53F82020D2F8903043F07063C2F8E4
S11324D0903070479CED0000034B53F82030D3F844
S11324E09000C0F3036070479CED0000074B5B69EC
S11324F0DBB2042B06D0802B06D0012B0CBF0120AD
S113250004207047022070470320704700E0074012
S1132510044BD3F8003113F0807F1ABF024B1868C4
S113252000207047004006403828002010B584B0D1
S11325300B4600293BD0444AD2F8002112F0007F18
S11325407DD1414AD2F8001121F40001C2F80011F2
S11325504FF08061C2F8001100213C4A116000284C
S113256070D05A7A120202F4E062197A01F007017B
S11325700A433548C0F80421DA79120102F0300226
S11325809979C90001F008010A435979890001F0D9
S113259004010A43C0F808211A79012A29D0E2B1BA
S11325A0022A32D01A68294B1A60294C3BE00023D6
S11325B08DF804308DF80C3001228DF808208DF848
S11325C009208DF805208DF8063002238DF8073098
S11325D004AB204A43F8102DADE71A7B002A14BF40
S11325E04FF40002002242F001021749C1F8002111
S11325F0D8E71A7B002A14BF4FF40002002242F0ED
S113260001121149C1F80021CCE71A7B002A14BF3A
S11326104FF403024FF4403242F001020A49C1F878
S11326200021BFE7013CFFF773FF18B9002CF9D173
S1132630032005E0002C14BF0020032000E002204A
S113264004B010BD0020FBE70040064038280020FD
S113265088E7300000127A00084BD3F8003213F0F8
S1132660807F09D0054BD3F8083203F00103002B17
S1132670034808BF00207047002070470040064010
S113268000127A0010B582B00B46002938D02D4ACA
S1132690D2F8002212F0007F4FD12A4AD2F8001259
S11326A021F40001C2F800120021C2F8001200282F
S11326B046D09A78120202F4E062597801F00701D8
S11326C00A432049C1F804221A7802F00102C1F831
S11326D0082259799A791B79002B14BF032301230B
S11326E0002914BF042100210B43002A14BF4FF416
S11326F0000200221343134AC2F80032642410E09B
S113270000238DF8043001228DF805208DF8063061
S11327108DF801208DF8022002AB03F8082DB6E7EE
S1132720013CFFF799FF18B9002CF9D1032005E00B
S1132730002C14BF0020032000E0022002B010BDD2
S11327400020FBE700400640054BD3F8003313F0AC
S1132750807F1DBF024BD3F8083302480020704726
S113276000400640006CDC0210B582B00B46002924
S113277032D0294AD2F8002312F0007F47D1264AEA
S1132780D2F8001321F40001C2F800134FF0806165
S1132790C2F8001300283DD09A78120202F4E062D5
S11327A0597801F007010A431B49C1F804231A7838
S11327B002F00302C1F808239A795B79002B14BF55
S11327C001230923002A14BF4FF4000200221343FB
S11327D0C1F8003364240EE001238DF80530002293
S11327E08DF806208DF801308DF8023002AB03F825
S11327F0082DBEE7013CFFF7A7FF18B9002CF9D15B
S1132800032005E0002C14BF0020032000E0022078
S113281002B010BD0020FBE70040064008B50F4B96
S1132820D3F8003613F0807F02D10023184608BD88
S1132830FFF76EFE03460028F8D00849D1F80826B1
S1132840C2F302220132B0FBF2F3D1F80826C2F33C
S11328500442103203FB02F35B08E7E70040064042
S113286010B584B00C4699B13D4BD3F8003613F043
S1132870007F72D13A4BD3F8002622F40002C3F849
S113288000264FF08062C3F80026A0B9002065E05E
S113289000238DF804308DF80B3001228DF80820C8
S11328A08DF809208DF8053007228DF806208DF863
S11328B0073001ACD8E7FFF72BFE63791B0203F462
S11328C0E063227902F0070213432549C1F8043674
S11328D063781B0203F4E063A278120402F4F81292
S11328E01343C1F808362378012B16D04BB1022BC1
S11328F01FD04FF47A74FFF791FF48BB34B3013C07
S1132900F9E7E379002B14BF4FF40003002343F0ED
S11329100103134AC2F80036EBE7E379002B14BF36
S11329204FF40003002343F001130D4AC2F80036AC
S1132930DFE7E379002B14BF4FF403034FF4403374
S113294043F00103064AC2F80036D2E7032005E04B
S1132950002C14BF0020032000E0022004B010BDAE
S1132960004006402DE9F04180460D468C78013444
S11329704E7806FB04460F7807FB0447CB78013BEF
S1132980052B1CD8DFE803F00312151B1B18FFF7F7
S1132990BFFD0009B8F1020F4AD0B8F1030F7CD093
S11329A0B8F1010F0DD00020BDE8F081FFF754FE0F
S11329B0EFE7FFF7C9FEECE7FFF730FFE9E7002098
S11329C0E7E7EA7802EB42015D4B53F821301B093B
S11329D004FB03F4A04200F298800B46584901EB33
S11329E083035B681B0906FB03F6B04200F2908088
S11329F002EB420301EB83039B681B0907FB03F70C
S1132A00B84200F28880AB781B0403F470231206EA
S1132A1002F0706213432A7802F00F0213436A78BB
S1132A201201D2B21343474A53610020BDE8F0813A
S1132A30EA7802EB4201424B03EB81035B6D1B0915
S1132A4004FB03F4A04269D80B463D4901EB830320
S1132A509B6D1B0906FB03F6B04262D802EB4203EE
S1132A6001EB8303DB6D1B0907FB03F7B8425BD85B
S1132A70AB781B0403F47023120602F07062134354
S1132A802A7802F00F0213436A781201D2B2134378
S1132A902C4A93610020BDE8F081EB7803EB4301FD
S1132AA0274A02EB8102D2F8A820120904FB02F49F
S1132AB0A0423CD80A46224901EB8202D2F8AC205B
S1132AC0120906FB02F6B04234D803EB430201EBD1
S1132AD08202D2F8B020120907FB02F7B8422CD8C0
S1132AE0AA78120402F470221B0603F070631343E5
S1132AF02A7802F00F0213436A781201D2B2134308
S1132B00104AD3610020BDE8F0810120BDE8F081C6
S1132B100120BDE8F0810120BDE8F0810120BDE87D
S1132B20F0810120BDE8F0810120BDE8F0810120A1
S1132B30BDE8F0810120BDE8F0810120BDE8F0810D
S1132B40A8ED00000040064038B50546FFF7CEFC6E
S1132B502946FFF707FF044658B9E8780A220849CE
S1132B60013A0B69C3F30363984204D0002AF7D1F6
S1132B700324204638BD002A08BF0324F9E700BF18
S1132B800040064010B504461B4B1B69C3F30363A6
S1132B90013B052B1DD8DFE803F00313161C1C1999
S1132BA0FFF7B6FC144B1B69C3F303430133B0FBBB
S1132BB0F3F0012C0FD0ECB1022C14D0002010BD86
S1132BC0FFF74AFDEEE7FFF7BFFDEBE7FFF726FE51
S1132BD0E8E70020E6E7084B1B69C3F3031301335E
S1132BE0B0FBF3F010BD044B1B6903F00F0301337A
S1132BF0B0FBF3F010BD00BF0040064008B50F4B1A
S1132C001B6AC3F30363062B15D8DFE803F004083B
S1132C100B0E141411000220FFF7B4FF08BDFFF7D8
S1132C2077FC08BDFFF718FD08BDFFF78DFD08BD53
S1132C30FFF7F4FD08BD002008BD00BF00400640BA
S1132C4008B541B1012931D00020024610B1431E1C
S1132C5022FA03F008BD0438032852D8DFE800F054
S1132C600B02141DFFF770FD0246294BD3F8040331
S1132C7000F00700EAE7FFF7EFFC0246244BD3F825
S1132C80040200F00700E1E7FFF742FC0246204B94
S1132C90D3F8040100F00700D8E7FFF7BFFD0246B0
S1132CA01B4BD3F8040600F00700CFE704380328D1
S1132CB02AD8DFE800F00B02141DFFF745FD024699
S1132CC0134BD3F80403C0F30220BFE7FFF7C4FC9F
S1132CD002460F4BD3F80402C0F30220B6E7FFF715
S1132CE017FC02460A4BD3F80401C0F30220ADE7F7
S1132CF0FFF794FD0246064BD3F80406C0F3022006
S1132D00A4E700200246A1E7002002469EE700BF98
S1132D100040064008B5114B1B69C3F30113032B94
S1132D2019D8DFE803F00207101300210620FFF78B
S1132D3087FF08BD094B186900F00200002818BF7E
S1132D404FF4FA4008BD064B186808BD0021052061
S1132D50FFF776FF08BD002008BD00BF00800440D7
S1132D603C280020114B1B69C3F38103022B07D0BD
S1132D70032B0ED0002B0CBF4FF4FA300020704709
S1132D800A4B186900F00200002818BF4FF4FA40FB
S1132D907047064B186910F0020006D0186900F05D
S1132DA00100002818BF4FF47A7070470080044077
S1132DB008B5244B5B6813F4006F40D0214B5B686B
S1132DC0C3F303130E2B09D8DFE803F00A080D0838
S1132DD01208171C20252F0829082C00002026E0A3
S1132DE0FFF70CFF23E001210620FFF729FF1EE077
S1132DF001210420FFF724FF19E001210520FFF73A
S1132E001FFF14E00020FFF7BDFE10E001210720A2
S1132E10FFF716FF0BE00120FFF7B4FE07E0FFF712
S1132E20A1FF04E0FFF776FF01E04FF4FA30054B11
S1132E305B68C3F302230133B0FBF3F008BD002049
S1132E4008BD00BF0080044010B50C4615380E289C
S1132E5000F2A380DFE800F008131E29333D414B44
S1132E605D6A737E87909900584BDB68C3F30163F6
S1132E70022B00F29D80564A52F8233022E0534B35
S1132E80DB68C3F38163022B00F29480504A52F84A
S1132E90233017E04D4BDB68C3F30173022B00F2C0
S1132EA08B804B4A52F823300CE0484BDB689B0F75
S1132EB0022B00F28380464A52F8233002E0FFF7E7
S1132EC077FF03460020002B6AD0002C7CD02360BF
S1132ED010BDFFF71FFF0346F4E73E4B9B78DB0969
S1132EE001D00023EEE7FFF73DFF0346EAE7394B45
S1132EF09B78DB0964D1354B1B6913F00203E1D0E5
S1132F00324B1B6903F00103002B18BF4FF47A7393
S1132F10D8E7304B9B78DB0954D12C4B1B6903F069
S1132F200203002B18BF4FF4FA43CBE7294B9B78DD
S1132F30DB09002B14BF00234FF4FA33C2E7234B01
S1132F401B6CC3F3001383B30120FFF71BFE03467E
S1132F500020B8E71D4B1B6CC3F3C003002BF3D157
S1132F604FF48070B1E7194B1B6CC3F38003002B43
S1132F70EAD14FF48070A8E7144B1B6CC3F34003F1
S1132F80002BE1D14FF480709FE7104B1B6C13F0C2
S1132F900103D9D14FF4807097E70420002392E70E
S1132FA0042818BF4FF480708FE74FF480708CE7CB
S1132FB0002387E7002385E7002383E7002381E7D5
S1132FC000237FE700237DE710BD00BF008004409D
S1132FD04028002000D0074030B583B0002301937F
S1132FE02F4B03EB4003B3F8FC309B0003F1804309
S1132FF003F5CA231D68C5F3C0051C6804F0070463
S1133000AC4219D31A6812F0804F15D01B68C3F371
S11330100263013B052B21D8DFE803F003111620DE
S1133020201B0620FFF70CFE01900134019BB3FB2B
S1133030F4F405FB04440194019803B030BD04206A
S1133040FFF7FEFD0190F0E70520FFF7F9FD019081
S1133050EBE70720FFF7F4FD0190E6E73C3803288F
S11330601BD8DFE800F002080E1401A91520FFF7B1
S1133070EBFE0024D9E701A91620FFF7E5FE0024A2
S1133080D3E701A91720FFF7DFFE0024CDE701A94C
S11330901820FFF7D9FE0024C7E70024C5E700BFC6
S11330A0A8ED000030B583B00546FFF7B7FB88B143
S11330B0062D56D006238DF8073002238DF80630EE
S11330C001238DF8053002A800F8043DFFF73CFD0C
S11330D0044600E00124FFF737FB10B1032D4AD06A
S11330E074B9FFF715FA10B1012D4DD0D4B9FFF71B
S11330F0B3FA10B1022D00D01CBB204603B030BD82
S113310003238DF8073000228DF8062001228DF864
S1133110052002A800F8043DFFF716FD0446E0E789
S11331200124E3E701238DF8073000228DF80620FF
S11331308DF8053002A800F8043DFFF705FD0446AC
S1133140D5E702238DF8073000238DF806308DF87B
S1133150053002A8012300F8043DFFF7F5FC0446FE
S1133160CBE7FFF7F1FA0028CAD1FFF7D1F900281D
S1133170D6D10124BBE7FFF7CBF90028B6D1FFF77E
S11331806BFA0028B8D1B8E7FFF766FA0028B3D184
S1133190B3E7174B1B69C3F30363013B052B06D845
S11331A0DFE803F0031D200505230123C370104944
S11331B00A69104BC2F303121A4492F89C2142701C
S11331C00A69C2F303421A4492F89C2182700A6984
S11331D002F00F02134493F89C31037070470223EA
S11331E0C370E4E70323C370E1E70623C370DEE79B
S11331F000400640A8ED000001383F282DD8DFE844
S113320000F02A282C262C2C2C242C2C2C2C2C2C76
S11332102C222C2C2C2C2C2C2C2C2C2C2C2C2C2CF4
S11332202C202C2C2C2C2C2C2C2C2C2C2C2C2C2CE6
S11332302C2C2C2C2C2C2C2C2C2C2C2C2C2C2C2CCA
S11332402C2E062070470520704704207047032069
S11332507047022070470120704700207047072004
S11332607047F0B5A5B028B304460646002800F020
S1133270FF80C54B1B69C3F30363032B00F0C680B7
S1133280FFF762FA002800F0B88003238DF80730B6
S113329000228DF8062001228DF8052024A800F8CC
S11332A08C3DFFF751FC0546002800F0AF8028460E
S11332B025B0F0BD01238DF80B3000228DF80C20D1
S11332C08DF80D308DF80E208DF808308DF809300A
S11332D08DF80A308DF816308DF814308DF81520DD
S11332E08DF80F208DF810308DF811308DF83830AE
S11332F00D928DF82530A54906918DF81C208DF886
S113330024208DF81D308DF81E2002208DF81F001A
S11333108DF820308DF821308DF830308DF828204C
S11333208DF82F208DF829200C218DF82A108DF886
S11333302B208DF82C308DF82D308DF83D30032165
S11333408DF83C108DF84B308DF841108DF84020ED
S11333508DF83F308DF83E308DF845008DF84430BF
S11333608DF843208DF8421006208DF849008DF821
S113337048208DF847308DF8461085492291202148
S113338021918DF84C308DF84D208DF84E208DF81C
S11333904F208DF850308DF854308DF853308DF81F
S11333A052208DF851208DF878308DF879308DF8D1
S11333B07A308DF87B308DF87C308DF87D308DF847
S11333C083308DF858301792189219921A921B92E2
S11333D01C921D928DF87E308DF87F308DF8802000
S11333E08DF881208DF882208DF88C308DF88D3009
S11333F08DF88E2002AE34463BE700210120FFF712
S1133400B3F9054600287FF452AF3EE73146E07831
S1133410FFF738F90546002800F0C280FFF766F888
S1133420022800F0F780032800F0F780012800F05C
S1133430D180002D7FF43BAF0022564B1A6094F8E4
S1133440303013B1E26A534B1A6094F8353053B1FB
S11334504D490A6A22F0706294F834301B0603F076
S1133460706313430B6294F84330002B40F03381B4
S113347094F84430E3B194F8455094F8463094F805
S113348047204549486820F400604860496821F4B1
S11334907F61002D14BF4FF4006000201B01DBB2DC
S11334A0120202F4E06213430B4303433A4A5360AB
S11334B094F84830DBB194F84A3094F849203649FE
S11334C0096921F03F0194F84C00014394F84B0042
S11334D0002814BF022000209B0003F00C030B43C0
S11334E0120102F03002134303432B4A136194F890
S11334F07030002B37D0284B196C21F0010194F85F
S113350071200A431A641B6C23F0020394F872209E
S1133510002A14BF0222002213431F4A1364136CAF
S113352023F0040394F87320002A14BF0422002219
S11335301343194A1364136C23F0080394F874209A
S1133540002A14BF082200221343134A1364136C85
S113355023F0100394F87520002A14BF10220022CF
S113356013430D4A136494F85030002B00F000818B
S11335700A4B626D1A60A26D5A60E26D9A6004F1A2
S113358060000121044DCBE00040064000127A00A7
S11335900084FF1F3C2800200080044040280020B5
S11335A004F11001607FFEF7C1FF054600287FF497
S11335B035AF04F1200194F82800FFF751F90546CE
S11335C0FEF794FF022825D0032826D0012801D035
S11335D0002601E004F13606002D7FF42AAFF378CB
S11335E0032B1DD08DF80730B3788DF8063073782F
S11335F08DF80530337824A800F88C3DFFF7A4FA41
S1133600054600287FF415AFE11DA07BFFF7ACF859
S113361005460EE704F13A06DEE704F13E06DBE771
S113362094F828300BBB637F93BBE378002B42D123
S11336300125002D7FF4FDAEE11DA07BFFF794F87A
S1133640054600287FF4F5AEF3788DF80730B3789B
S11336508DF8063073788DF80530337824A800F897
S11336608C3DFFF771FA0546E3E606238DF8073033
S113367002238DF8063001238DF8053024A800F8C4
S11336808C3DFFF761FA0546637F7BB10128D0D1F9
S113369001238DF8073000228DF806208DF80530BF
S11336A024A800F88C3DFFF74FFA0546E378002B79
S11336B0BFD0012DBDD102238DF8073000238DF832
S11336C006308DF8053024A8012300F88C3DFFF75F
S11336D03BFA0546ADE704F136010120FFF742F954
S11336E0054600287FF4E3AD04F13A010220FFF718
S11336F039F9054600287FF4DAAD04F13E010320D0
S1133700FFF730F9054600287FF4D1ADB0E626F086
S113371040761B0603F040733343EB600131C9B2BA
S113372050F8043BEE684A1ED2B2032A00F2A1808C
S113373001A757F822F000BF0F37000049370000F7
S1133740573700006537000026F040669B0603F0FB
S113375040633343E1E726F040561B0703F0405330
S11337603343DAE726F0404646EA8373444AD3609B
S113377094F87630EBB1424A936E0020906651681B
S113378021F4805194F878301B0303F480530B43E5
S11337905360906694F877305BB194F879305B00AD
S11337A003F00E0394F87A2042F080521343344A13
S11337B0936614F17C0F3DD0D4F88030002B39D0BF
S11337C0E36F002B36D000212E482F4D01EB8102F0
S11337D0D4F880309B5C00EB4303B3F8FC309B00CF
S11337E003F1804303F5CA231E6826F080461E6059
S11337F0D4F880309F189E5CBB781B0603F0E0630E
S1133800FA78D20002F0080213433A7902F0070270
S113381013437A78002A14BF4FF0804200221343E6
S113382000EB4606B6F8FC2045F822300131E36F80
S11338309942CBD394F8843003B314498B7803F0C2
S11338407F0394F8852082F0010243EAC213DBB2BD
S11338508B7094F98630002BBCBF20335BB20B49CC
S11338600A7903F01F0302F0E00213430B710025F1
S11338701DE5EE6003297FF651AF79E7002516E5D3
S113388000800440A8ED00000050064000D007402E
S113389070B504460D46112807D9232840F28580C7
S11338A04D2840F28580042070BD11287AD8DFE8C5
S11338B000F00913191F24292E33383C41484F5670
S11338C05D646B720020FFF75DF903460020002D54
S11338D000F0D9802B6070BD0120FFF753F9034637
S11338E00020F4E70220FFF74DF903460020EEE73D
S11338F0FFF75EFA03460020E9E7FEF7ADFE034654
S11339000020E4E7FEF720FF03460020DFE7FEF790
S1133910FFFD03460020DAE7FEF780FF03460020A0
S1133920D5E7594B1B680020D1E7FFF767F9034639
S11339300020CCE700210420FFF782F90346002091
S1133940C5E701210420FFF77BF903460020BEE709
S113395000210520FFF774F903460020B7E7012191
S11339600520FFF76DF903460020B0E7002106208B
S1133970FFF766F903460020A9E701210620FFF7B7
S11339805FF903460020A2E700210720FFF758F95A
S1133990034600209BE701210720FFF751F9034666
S11339A0002094E70023042091E7FFF74DFA70BD4F
S11339B0242805D804200023002D64D02B6070BD7A
S11339C0A0F13303DBB21A2B07D8304A22FA03F3EF
S11339D013F0010F18BF0420EDD12D4B03EB44036A
S11339E0B3F8FC202B4B53F8223013F0804F37D11F
S11339F04FF48070DFE70120FFF7C4F80346002886
S1133A003CD100234FF48070D6E70020FFF7BAF8CA
S1133A1003460028F5D031E00220FFF7B3F803464F
S1133A200028EED02AE016F0080F06D116F0100F89
S1133A300BD100234FF48070BEE700212046FFF72E
S1133A40CBFA034616F0100F04D001212046FFF7ED
S1133A50C3FA0346002B14BF00204FF48070ABE779
S1133A600B4B234493F8AC6116F0200FC3D116F02E
S1133A70400FCAD116F0800FCED1002316F0180FD4
S1133A80D1D1002098E770BD3C28002041210004DA
S1133A90A8ED00000050064070B582B004460D4603
S1133AA089B1554B234493F8AC3113F0010F63D122
S1133AB013F0180F30D06A78043A032A5AD8DFE892
S1133AC002F02325272901238DF80030FEF7C4FDD9
S1133AD048B104238DF801300123ADF80230ADF86C
S1133AE004306D46DDE7FEF72FFE08B10523F1E74C
S1133AF0FEF794FE08B10723ECE7FEF709FD002862
S1133B0014BF06234F23E5E7022206E0032204E064
S1133B10012202E0062200E0002213F0040F1ABF83
S1133B20AE8806F1FF36002613F0020F1ABF69882B
S1133B3001F1FF310021304B03EB4404B4F8FC40A5
S1133B40A30003F1804303F5CA23186820F08040E2
S1133B5018602B7863B1120642F0804206F0070623
S1133B603243C90001F008010A43244B43F82420DE
S1133B7002B070BD0022D0E72B781F3C042CF7D88C
S1133B80DFE804F02E22160A03001D490A6C22F015
S1133B90010213430B64EBE7194A126C22F0020290
S1133BA0002B14BF022300231343154A1364DFE7D9
S1133BB0134A126C22F00402002B14BF04230023C6
S1133BC013430F4A1364D3E70D4A126C22F0080220
S1133BD0002B14BF082300231343094A1364C7E7C7
S1133BE0074A126C22F01002002B14BF102300238A
S1133BF01343034A1364BBE7A8ED000000500640DA
S1133C000080044070B582B005460C46FEF76EFC99
S1133C1006469DB12B68022B0ED0042B10D0012B2D
S1133C200CBF012504256CB12378043B032B56D823
S1133C30DFE803F0574F51530225F4E70546F2E756
S1133C400325F0E7FEF780FD58B103238DF8073014
S1133C5000228DF8062001228DF805208DF804300D
S1133C6055E0FEF7DBFD58B106238DF8073002233B
S1133C708DF8063001238DF805308DF8043046E0C8
S1133C80FEF746FC50B101238DF8073000228DF871
S1133C9006208DF805308DF8043038E0FEF7DCFCA2
S1133CA0A8B302238DF807309D4208D000238DF875
S1133CB006308DF8053001238DF8043027E0012308
S1133CC08DF8063000238DF8053003238DF8043079
S1133CD01DE0032306E0012304E0062302E0FF23A2
S1133CE000E002238DF807300F4B62881A4492F8E3
S1133CF0FC218DF80620A2881A4492F8FC218DF844
S1133D000520E288134493F8FC318DF80430B54261
S1133D1005D001A92846FEF725FE02B070BD01A812
S1133D20FEF712FFF9E700BFA8ED0000154B1B6971
S1133D30C3F30363013B052B20D8DFE803F003162C
S1133D40191F1F1C062303700E4A1369C3F3034390
S1133D50013343801369C3F303130133838013696D
S1133D6003F00F030133C380704704230370EBE7B0
S1133D7005230370E8E707230370E5E704230370D2
S1133D80E2E700BF004006402DE9F04186B004465A
S1133D900D4631B38889FFF72FFA8046E889FFF78B
S1133DA02BFA07462E78201F172800F23881DFE807
S1133DB010F01C0057008F00E40036013601360174
S1133DC03601360136013601360136013601360137
S1133DD03601360136013601360136013601360127
S1133DE01C010127B8463E46DDE78E4B1B69C3F331
S1133DF00363022B1FD0002465B301238DF80D301B
S1133E008DF80C3000228DF80E208DF809808DF885
S1133E100A7006A901F8103D3046FEF733FC03464C
S1133E20002B40F0E980002C00F0E68001A8FEF7AA
S1133E308BFE0346E0E00EB90123DDE001A8FFF7A5
S1133E40A8F90220FFF72EF90346002840F0D48099
S1133E503446D1E700210120FEF714FC0346DFE7D6
S1133E60704B1B69C3F30363032B1CD000244DB3B5
S1133E7000238DF80E308DF809808DF80A708DF8C6
S1133E8008308DF80D3002A93046FEF76DFC03466C
S1133E90002B40F0B180002C00F0AE8001A8FEF7AA
S1133EA053FE0346A8E00EB90123A5E001A8FFF7DD
S1133EB070F90320FFF7F6F80346002840F09C80D1
S1133EC03446D4E700213046FEF74EFC0346DFE7D4
S1133ED0544B1B69C3F30363012B2FD00024002D23
S1133EE03AD06B68029300228DF80C208DF81420D0
S1133EF08DF810808DF811706A78012A14BF0022A1
S1133F0001228DF80D2000228DF80E20A3F57412E5
S1133F10A2F5106244498A4224D802238DF80F3056
S1133F2002A93046FEF702FB0346002B64D1002CA5
S1133F3062D001A8FEF708FE03465DE00EB9012336
S1133F405AE001A8FFF725F90120FFF7ABF8034673
S1133F50002851D13446C2E700213046FEF7E6FA84
S1133F600346E2E7A3F5F403A3F590532F4A9342E3
S1133F709CBF03238DF80F30D2E72A4B1B69C3F390
S1133F800363062B1ED000244DB300238DF80830A4
S1133F908DF80F308DF80C808DF80D70AB7A013BE5
S1133FA08DF809302B7A103B8DF80A3002A930467F
S1133FB0FEF756FC0346FBB9F4B101A8FEF7C4FDB5
S1133FC0034619E00EB9012316E001A8FFF7E1F852
S1133FD00620FFF767F8034670B93446D4E700219A
S1133FE03046FEF73DFC0346E5E74EB9104A9378A8
S1133FF043F0800393700023184606B0BDE8F081B7
S11340000C4A136923F03F0343F00303136102F5E1
S11340105432937803F07F0393700023ECE700237A
S1134020EAE700BF0040064000093D000048E801FF
S113403000D007400080044010B4054C206021717A
S1134040A2602373637300205DF8044B704700BFC4
S113405088000020F0B583B007460E468DF80400B2
S11340608DF8051003F040FF334B1C7B5C73012378
S11340708DF80630002C4AD000242F4D04E0013482
S1134080E4B22B7BA34242D9AB6853F82430002B13
S1134090F5D01A79022AF2D01A68996801A89047D3
S11340A00028ECD06C73002EE9D140F203150023F4
S11340B08DF80630A400204E20E00134E4B23B7BAE
S11340C0A34212D9BB6853F82430002BF5D01A79D7
S11340D0012AF2D01A68996801A890470028ECD008
S11340E07C73002EE9D14FF4827503F0EFFE28466D
S11340F003B0F0BD043C14F1040FF6D0B3681B59AF
S1134100002BF7D01A68996801A89047F2E70A4D86
S11341102B6853F82700FFF7A4F86F7105460028B1
S1134120C5D102238DF80630034B1B7B002BDCD05A
S11341300024014FC6E700BF88000020014B5879D6
S1134140704700BF88000020054B5A7B1B799342BF
S113415083BF034B9B6853F822000020704700BFC5
S11341608800002008B5FFF793FB08BD08B5FFF7EA
S113417078F808BD29B14118002300F8013B8142B9
S1134180FBD1704710B4064B1B6853F820406160A4
S113419053F820309A6000205DF8044B704700BF4C
S11341A09800002070B50446094D2B6853F8206030
S11341B0002200F00F01074800F065FD1021304691
S11341C0FFF7D8FF2B68002043F8240070BD00BF20
S11341D0980000200080004038B5102003F068FEED
S11341E00F4B1B68BBB100240D4D02E00134102CB1
S11341F008D02B6853F82430002BF7D01878FFF739
S1134200D1FFF3E7074D6C1E0F3514F9010F03F0CE
S11342104FFEA542F9D10020014B186038BD00BF04
S113422098000020B8EF000008B5084B1B6853F84D
S1134230203000F00F00064A1077D07723B15A6877
S113424012B1197B9868904708BD00BF9800002000
S11342500080004038B5054600F00F0400222146D6
S1134260094800F010FD094B1B6853F8253053B181
S1134270054A1477D477947701221A735A6812B1D5
S1134280197B9868904738BD008000409800002052
S11342902DE9F04F87B09DF84070119D0124BC407A
S11342A05FFA84FCB5FBFCF60CFB1656002E14BF1B
S11342B04FF0010A4FF0000A03D0504607B0BDE8A2
S11342C0F08F059304920391804600F00F06DFF807
S11342D000913146484600F0DBFCD9F8003043F049
S11342E08003C9F80030730103F1804202F5004BEA
S11342F002F51042049810604B4441F210020598F4
S113430098500197009700231A463146484600F01A
S1134310F5FC039B032B12D8DFE803F0022D3D4C80
S1134320002241F204032BF8032064B2A4B2730107
S113433003F1804303F5004341F214029C52244CE0
S11343402A463146204600F0F1FC0122314620463F
S113435000F077FD04EB461641F21C02B35A1BB27F
S113436043F002039BB2B3521A4B1B6853F8283034
S113437000221A73A1E764B2A4B241F204032BF839
S11343800340730103F1804303F50043002141F22C
S113439014029952D3E764B2A4B241F204032BF895
S11343A00340730103F1804303F5004341F2140217
S11343B09C52C4E7002241F204032BF8032073014A
S11343C003F1804303F5004341F214015A52B6E766
S11343D0008000409800002070B582B00446079D1C
S11343E001959DF818500095FFF752FF054610B14E
S11343F0284602B070BD04F00F040F4E089A2146FF
S1134400304600F01EFD06EB441641F21C03F35A3D
S113441023F008031B041B0C9DF82420002A14BF5E
S1134420082200221343640104F1804404F500448B
S113443041F21C02A352DBE70080004008B50122D0
S113444000F00F01024800F01EFC002008BD00BF70
S11344500080004008B5002200F00F01024800F07F
S113446012FC002008BD00BF0080004010B40F4BB8
S11344701C5C04F07F041C541C5C01F03F0104F03C
S1134480C004214319541B5C03F0BF03002A14BF6A
S1134490402200221A43054B1A541A5C42F080024F
S11344A01A5400205DF8044B704700BF001002400E
S11344B02DE9F04180460C464D7805F00F06102199
S11344C0FFF758FE227BA1786078FFF7CFFF0746FD
S11344D031461D4800F0DCFB17B13846BDE8F081D9
S11344E01A4B1B6843F8258053F82520157053F8A0
S11344F0253000221A73144D01223146284600F05B
S1134500BDFB2B6813F0040F11D12378FF2B0ED0C1
S113451086F0030606F1804606F5004696F800216B
S113452003F00F0302F0F002134386F800316568CC
S1134530A1686278054B1B6853F82200456053F864
S113454022309960C9E700BF008000409800002035
S11345502DE9F0420D4616469946069F244B1860F5
S11345604021FFF707FE234C204600F0B6FB2268EB
S113457022F004022B789B0003F00403134323600E
S1134580236823F010036A78002A14BF1022002243
S113459013432360102003F07FFC174D6C1E0F356E
S11345A014F9010F03F078FCAC42F9D1134800F080
S11345B08DFCDEB1B9F1000F14D0AFB1043EA9F106
S11345C0040900252C4659F8041F56F8040FFFF778
S11345D06FFF002818BF05460134A742F3D12846CF
S11345E0BDE8F0820025FAE70025F8E70025F6E7A4
S11345F09800002000800040B8EF00000010024046
S113460008B500F00F01024800F042FB08BD00BFEE
S11346100080004000F00F0080304001014B195031
S1134620704700BF0080004000F00F0089B24001D5
S113463000F1804000F510408180704700F00F00C9
S1134640400100F1804000F5004041F20602835A27
S11346509BB2090201F4E06123F4E063194381523F
S1134660704700F00F00400100F1804000F5004069
S113467041F20C03C150704700F00F00400100F1FB
S1134680804000F5004041F21803C150704700F02B
S11346900F00400100F1804000F5004041F210039A
S11346A0C150704700F00F0089B2400100F1804012
S11346B000F5004041F21403C152704700F00F00AE
S11346C0400100F1804000F5004041F20602835AA7
S11346D09BB201F0070123F007030B438352704799
S11346E008B50A4600F00F01014800F01FFB08BDA1
S11346F00080004008B50A4600F00F01014800F0B0
S1134700A0FB08BD0080004008B500F00F0102487E
S113471000F0C6FB08BD00BF0080004008B50A4693
S113472000F00F01014800F051FB08BD008000407B
S113473000F00F00430103F1804303F5004341F20D
S11347401C029B5A23F008031B041B0C002914BFF2
S1134750082200221343400100F1804000F500408C
S113476041F21C028352704708B500F00F00012982
S113477008D011B102291DD008BD0146194800F026
S11347807DFA08BD430103F1804303F5004341F280
S11347901C015B5A23F004031B041B0C002A14BFE6
S11347A0042200221343400100F1804000F5004040
S11347B0435208BD430103F1804303F5004341F232
S11347C01C015B5A23F002031B041B0C002A14BFB8
S11347D0022200221343400100F1804000F5004012
S11347E0435208BD0080004008B518B1034800F0EA
S11347F03CFA08BD014800F02FFA08BD00800040D3
S113480000F00F00014B5877704700BF0080004054
S1134810002843D038B5044600293BD00D4620215A
S11348202846FFF7A7FC227E637A03F0070343EAD6
S1134830C223227A120202F4E0621343627ED2009F
S1134840D2B21343EB8023682B60B4F90A30AB80F7
S1134850E369AB602369EB6063682B61B4F90C30E6
S1134860AB82E36A1B68EB8294F820309BB1636AE5
S1134870AB6194F82830002B14BF0223002394F872
S11348802020002A14BF102200221343AB83E36AC2
S11348901B68EB8338BD6369AB61EAE770472DE9B8
S11348A0F04182B00C4600F00F05724F294638469D
S11348B000F0EEF922686E0106F1804303F500482A
S11348C003F510431A6062683E4441F21003F2504B
S11348D0637E227E617A0191217A009129463846CD
S11348E000F00CFA628941F2040328F80320A2893B
S11348F041F21403F252226941F20C03F25094F88B
S11349002030002B40F0A1806B0103F1804303F5BC
S1134910004341F21C015A5A22F010021204120CF4
S11349205A52616941F2180299506B0103F18043B4
S113493003F5004341F21C029B5A23F002031B04BB
S11349401B0C94F82820002A14BF022200221343CF
S11349506A0102F1804202F5004241F21C01535205
S1134960E16A00297FD0434B1B6813F0800F14D0F9
S1134970134641F208029A5822F000420B79002BA8
S113498014BF4FF0004300231A436B0103F180432B
S113499003F5004341F208015A50364B1B6813F0EB
S11349A0800F19D06B0103F1804303F5004341F2FA
S11349B008029A5822F08042E36A5B79002B14BF04
S11349C04FF0804300231A436B0103F1804303F546
S11349D0004341F208015A50E36A264E9A68294678
S11349E0304600F0D1F9E2692946304600F09EF9DC
S11349F0E26A137B527B2946304600F0EDF9E36A04
S1134A00997B06EB451641F21C00325A92B2DB7BCD
S1134A101B0203F4706322F4706213433352335A5B
S1134A2023F020031B041B0C002914BF20220022A6
S1134A301343104841F21C02B352E36A1A68294630
S1134A4000F0FFF902B0BDE8F081384641F21C02E3
S1134A50B35A1BB243F010039BB2B352626A2946A5
S1134A6000F0B4F961E7E2692946024800F05EF912
S1134A70E8E700BF0080004010B50446064A13680A
S1134A8043F080031360FFF70AFF044B1B6853F8DD
S1134A9024300020187310BD0080004098000020CE
S1134AA02DE9F04F95B0039093469946DDF8788050
S1134AB01F9D9DF8803000931F3121F01F0A5F4B2A
S1134AC01B6853F8203000241C73012707FA0BF2EB
S1134AD00192BDF80430B9FBF3F603FB1696311BC3
S1134AE018BF01210291302104A8FFF743FB1021D4
S1134AF010A8FFF73FFB089409948DF828408DF81F
S1134B0029408DF818B08DF819B0CDF82C908DF897
S1134B1038708DF8307010A90F918DF844408DF8DD
S1134B2045408DF84C408DF84E400098002874D0D4
S1134B30002E72D1D8F8003004932B680593D8F86E
S1134B4004306A6893426CD198F808102A7A91422A
S1134B506AD14646AAF12007A346BDF90420029271
S1134B6000F1FF3A5FFA8AFA2AE0ADF81AB0BDF80C
S1134B700430ADF81C30A2450EBFCDF834B007F1B7
S1134B8020030D93002C41D0394604A8FFF740FEC2
S1134B900134E4B2009BA3423DD0D8F80C30049316
S1134BA02946EB680593D8F810302A6993423ED120
S1134BB00C360C35203798F814000A7D904239D110
S1134BC0B3FBF9F30F9A1360B046337A032BD2D8B0
S1134BD001A252F823F000BF6B4B0000E94B000028
S1134BE0F74B0000034C0000BDF80430ADF81A3058
S1134BF0ADF81CB0BFE7029BADF81A30ADF81C301D
S1134C00B9E7ADF81AB0ADF81CB0B4E704A903983D
S1134C10FFF745FEBCE700230293029815B0BDE8F8
S1134C20F08F01230293F8E701230293F5E70123B0
S1134C300293F2E701230293EFE700BF98000020FC
S1134C40024B1B6853F82030187B704798000020F3
S1134C500048704700800040036843F40033036059
S1134C60036813F4003FFBD17047036843F48033B7
S1134C700360036813F4803FFBD170470AB90176DF
S1134C807047417670470AB981767047C17670479C
S1134C9000EB4111002341F208028B5001F58052D0
S1134CA0136041F204028B5241F206028B5241F22C
S1134CB00C028B5041F210028B5041F214028B52C1
S1134CC041F216028B5241F218028B5041F21C023F
S1134CD08B5241F21E028B52704738B50546036869
S1134CE023F4403323F0C60303600024E1B22846D2
S1134CF0FFF7CEFF0134102CF8D138BD10B4DB001F
S1134D00DCB29DF8083003F00703234343EAC223CF
S1134D109DF80420120202F4E06213439BB2803136
S1134D2000EB4111CB805DF8044B7047036813F02E
S1134D30800F13D010B400EB411341F208041B5947
S1134D40002B11DB00EB41131B5913F0804F0BD1E7
S1134D5022F0404200EB4110025112E000EB4110FE
S1134D6041F20803C250704700EB411041F20801C0
S1134D70435823F47F7323F00303C2F309021A4355
S1134D8042505DF8044B7047036813F0800F18D04D
S1134D9030B400EB411341F208041D591B5913F0C0
S1134DA0804F01D1002D0BDA00EB411041F20804D1
S1134DB0035904491940044B03EA82220A4302516D
S1134DC030BC7047FF0300C000FCFF3F00EB411103
S1134DD041F21803CA50704730B400EB411541F258
S1134DE01E042C5BC4F30E04FBB144F400442946B6
S1134DF041F21E054C5341F216000B5A6FEA43432D
S1134E006FEA53439BB20B524B5B9BB2520202F4C8
S1134E10F05223F4F05313434B530B5A9BB223F435
S1134E20F0531A430A5230BC704700EB411141F26F
S1134E301E03CC5241F216028B5AC3F30E038B525B
S1134E40F1E710B400EB411441F21E03E35A13F4EA
S1134E50004F14D100EB411141F21E000B5AC2F372
S1134E600E0203F4004313430B5241F216000B5A93
S1134E7003F400431A430A525DF8044B704741F2AD
S1134E801E00235AC2F3080203F47E431343235241
S1134E9041F21600235A03F47E431A432252EBE7ED
S1134EA000EB411241F21E03D35A13F4004F07D111
S1134EB000EB411041F21603C05AC0F30E007047D4
S1134EC041F21603D05AC0F30800704700231A4673
S1134ED0C2540133102BFBD1704700BF08B500202A
S1134EE0FFF7A2F908BD08B50120FFF79DF908BD39
S1134EF008B50220FFF798F908BD08B50320FFF7AD
S1134F0093F908BD08B50420FFF78EF908BD08B56C
S1134F100520FFF789F908BD08B50620FFF784F9D5
S1134F2008BD08B50720FFF77FF908BD08B50820BC
S1134F30FFF77AF908BD08B50920FFF775F908BD30
S1134F4008B50A20FFF770F908BD08B50B20FFF774
S1134F506BF908BD08B50C20FFF766F908BD08B564
S1134F600D20FFF761F908BD08B50E20FFF75CF9C5
S1134F7008BD08B50F20FFF757F908BD38B5002064
S1134F80FFF766FEC56A002404E06D080134E4B24C
S1134F90102C06D015F0010FF7D02046FFF75AF970
S1134FA0F3E738BD08B500F083FD08BD62B110B465
S1134FB0531EDCB2431E204411F8012B03F8012FC9
S1134FC08342F9D15DF8044B70476AB130B4551E81
S1134FD0EDB2431E441911F8012B03F8012FA3422B
S1134FE0F9D10135284430BC70477AB170B4561EEB
S1134FF0F6B2431E85190A4612F8014B03F8014F15
S1135000AB42F9D10136881970BC70470846704725
S113501008B50222FFF7E9FF08BD08B50422FFF72F
S1135020E4FF08BD00B583B002AB23F8021D0222E1
S11350301946FFF7CAFF03B05DF804FB00B583B05F
S113504002AB43F8041D04221946FFF7BEFF03B068
S11350505DF804FB70B48D1882B1531EDBB24C1E94
S1135060194415F8012B037823EA020314F8016F9D
S11350703240134300F8013B8C42F2D170BC7047BC
S1135080014B1870704700BF9C00002000B583B02E
S11350900191084B1B7833B9022201A9FFF795FF50
S11350A003B05DF804FB04220DEB0201FFF78DFF52
S11350B0F6E700BF9C00002008B5054B1B781BB920
S11350C00222FFF792FF08BD0422FFF78EFF08BDFE
S11350D09C00002070B590B0224DB5F85E40A4004D
S11350E004F1804404F5CA24236843F08043236018
S11350F01D4E02220621304606F070F8236843F064
S11351008043236002220721304606F067F8B5F891
S113511096204FF08641154B43F822104FF461431B
S1135120009300238DF806308DF804308DF8053097
S11351306A4603A9012005F001F80D4A936943F476
S113514000239361936913F4002FFBD0084A9369F9
S113515043F480239361936913F4802FFBD010B040
S113516070BD00BFA4EE000000B004400050064033
S113517000B0064008B50E21212002F0BDFE002239
S11351800349212002F068FE212002F085FE08BDBB
S1135190A54F000008B500F0B1FB00F089F900F05C
S11351A06BFD003018BF012008BD10B5002303704B
S11351B00322427083700122C27002220271437181
S11351C03A238371C41D00F0C7FA01462046FFF755
S11351D029FF48F26401FFF725FF00F11901064A8F
S11351E001E0814206D0137800F8013B002BF8D08F
S11351F00132F6E710BD00BFE0F0000030B583B027
S113520004468578C11C01A8FFF756FF3A2D05D93D
S11352102046842300F8013B03B030BD2046002320
S113522000F8013B2A460199FFF7CFFEF4E770B579
S113523082B005460E46441C214601A8FFF73CFFF8
S113524000232B70324601992046FFF7BEFE02B0C0
S113525070BD30B583B004468578C11C01A8FFF742
S11352602BFF2A4601460198FFF7BFFE2046002384
S113527000F8013B03B030BD70B582B005460E4660
S1135280441C214601A8FFF717FF32460146019846
S1135290FFF7ABFE00232B70204602B070BD30B583
S11352A083B004468578C11C01A8FFF705FF2A4690
S11352B001460198FFF7CEFE2046002300F8013B8B
S11352C003B030BD10B504460020FFF7D9FE2378A3
S11352D0C12B5DD00BD9C92B69D021D8C32B53D096
S11352E05AD3C52B0CD1204600F046FB25E0062BF3
S11352F064D00AD90B2B53D0C02B66D00A2B3CD0D8
S11353002046812300F8013B17E0042B2ED0052B07
S1135310F6D10120FFF7B4FE2046FFF79AFF0CE018
S1135320E12B13D0E22B19D0E02BE9D10120FFF7B8
S1135330A7FE01212046FFF77AFFA04249D0011BB6
S1135340C9B2204600F04EFB012010BD0120FFF73A
S113535097FE02212046FFF76AFFEEE70120FFF7E0
S11353608FFE04212046FFF762FFE6E70120FFF7E6
S113537087FE2046FFF742FFDFE70120FFF780FEAC
S1135380204600F0BCFAD8E7204600F0D1F9D4E773
S1135390204600F07DF9D0E7204600F0AFF9CCE7D5
S11353A00120FFF76DFE204600F097F8C5E70120C5
S11353B0FFF766FE204600F0E3F9BEE70120FFF7A1
S11353C05FFE2046FFF76BFFB7E72046FFF7EDFED1
S11353D0B3E7002010BD70B582B005460E46441CEC
S11353E0214601A8FFF768FE324601460198FFF7FF
S11353F031FE00232B70204602B070BD037843B108
S113540003460020013080B213F8012F002AF9D19D
S113541070470020704700BF054B1A6892F90000DE
S113542093F904309842B4BF00200120704700BFB4
S1135430A0000020044B1A6810781B79984234BFEE
S113544000200120704700BFA0000020054B1A680F
S1135450B2F90000B3F904309842B4BF002001202F
S1135460704700BFA0000020044B1A6810889B8876
S1135470984234BF00200120704700BFA0000020E4
S1135480044B1A6810685B689842B4BF002001207E
S1135490704700BFA0000020044B1A6810685B68C6
S11354A0984234BF00200120704700BFA0000020B4
S11354B00022034B1A70034A034B9A60704700BFE3
S11354C088280020B4000020A00000200022014B06
S11354D01A7070478828002070472DE9F047074666
S11354E000224F4B1A704F4C4F4BA36082784F4BA6
S11354F01A70C11C4E48FFF78BFD01464D48FFF75B
S113550087FD01464C48FFF783FD01462046FFF71F
S1135510D3FD0378237343786373811C201DFFF745
S11355207CFD0678454B1E70731EDBB2072B62D8D8
S1135530002E6CD0013000252E46DFF82091DFF8D4
S11355402081DFF8F8A0014611F8014B09F8054065
S11355502644F6B208EB8500FFF7AEFD013CE4B249
S1135560072C4ED80135EDB29AF80030AB42EAD898
S113557000222C4B1A612D4B1B78B3B1294B5B7B5A
S113558013F0020F3FD1274A127B022A21D0042AAA
S113559028D0012A01D086232EE02949294A002B4C
S11355A014BF13460B461F4A1361214B1B8813FB80
S11355B006F6B6B2B6F5005F27D81A4B9B681E44B0
S11355C0214B1E60164A137843F001031370002325
S11355D012E01E491E4A002B14BF13460B46114A03
S11355E01361E2E71B491C4A002B14BF13460B4608
S11355F00C4A1361D9E78523384600F8013BBDE81E
S1135600F0878623F8E79023F6E78623F4E7002261
S1135610044B1A61054B1B78002BAFD11646CCE71F
S113562088280020A0000020B40000208428002046
S11356307C2800208E2800208C2800207E28002032
S113564035540000195400007028002069540000EB
S11356504D54000099540000815400007428002027
S11356604C280020074B1B6813F0040F08D1054A8F
S1135670137843F004031370034B1A88034B1A8006
S1135680704700BF882800208E2800208228002030
S1135690154B1B6813F0010F1FD0134B1B6813F03D
S11356A0020F1ED1114B9A68114B1A600023114A44
S11356B01380114A13800C4A117863F3820111702C
S11356C0117863F304111170117841F0080111701D
S11356D0117841F00201117000E0882300F8013BC9
S11356E070470123FAE700BF88280020A0000020AB
S11356F0902800206C2800208028002010B5044643
S11357000A4B1B6813F0010F0AD0084B1B6813F0F7
S1135710020F01D1022304E0FFF7A4FF002300E0FD
S11357208823204600F8013B10BD00BF88280020D4
S1135730084B1B68C3F34003002B14BF012302234F
S1135740044A126802F00102002A08BF882300F804
S1135750013B7047882800204FF400507047074AE7
S11357609368834207D8084403F50053834234BF47
S11357700020012070470020704700BFA0000020D7
S1135780124B1B6813F0010F08D0104B1B6813F069
S1135790020F07D0872300F8013B7047882300F8E5
S11357A0013B704700B583B0002300F8013B019032
S11357B00198074B9968FFF769FC01900198054B24
S11357C01988FFF72FFC03B05DF804FB882800203C
S11357D0A00000206C2800203C4B1B6813F0020F33
S11357E000D170473A4B1B88002B52D12DE9F04170
S11357F0384B1A88364B1A80374B1B78ABB10024D0
S1135800DFF8F480354F364D18F80460324657F807
S113581024102868FFF7CAFB2A6832442A6001343E
S1135820E4B22D4B1B78A342EED82E4A13880133E1
S113583013802B4B1A682C4B1B689A420BD32B4BAF
S11358409A68274B1A60214A13786FF3C3031370C5
S11358500022244B1A801D4B1B6813F0080F2CD117
S11358601A4B1B6813F0040F1CD1204B1B69CBB1DE
S113587098471F4B1B78022B04BFB0FA80F04009F5
S113588058B1124B1B6813F0100F0BD0FFF7EAFE50
S113589008E0013B0E4A138070470C4A137843F02A
S11358A010031370094B1B6813F0040F05D0114B40
S11358B01B8823B1013B0F4A1380BDE8F081034AE2
S11358C013786FF341031370BDE8F081882800203A
S11358D0802800208C2800207E2800204C280020CE
S11358E0902800206C28002070280020A0000020B0
S11358F084280020822800207428002070472DE985
S1135900F84300221B4B1A7090F8029009F1FF38FB
S11359105FFA88F3072B22D80746B9F1000F15D098
S11359200330144D05F10408EE1C0C35984401466F
S113593011F8014B06F8014F2846FFF7BDFB013C67
S1135940E4B2072C10D804354645F0D1094B83F84E
S113595000903846002300F8013BBDE8F883852316
S113596000F8013BBDE8F8833846862300F8013B84
S1135970BDE8F883B420002038B50C4B1B7883B104
S1135980002400F8014B094D2A1905EB8403127910
S1135990D968FFF71AFB0134E4B22B78A342F3D899
S11359A038BD882300F8013B38BD00BFB420002077
S11359B00A4B002119701A7961F300021A711A79DD
S11359C061F341021A71064B1A6822F400021A604C
S11359D01A6842F400121A60704700BFE0200020E9
S11359E018B0064010B483B01A4B98600C4671B3DB
S11359F00139C9B201310144002310F8012B1344C9
S1135A00DBB28842F9D15B420370124B01341C7340
S1135A101A7942F001021A711A796FF341021A716C
S1135A201A796FF382021A710B4B1B6801932B22B4
S1135A300A4B1A60043B1A6822F400121A601A68AE
S1135A4042F400021A6003B05DF8044B704700236F
S1135A50D9E700BFE020002014B006401CB0064087
S1135A6010B5124B1B7BE3B1104A92681178017098
S1135A702B2906D00D49013B0B7301328A600020AB
S1135A8010BD0A484168C1F3800181F00101047925
S1135A9061F382040471416811F0040FEAD000201C
S1135AA010BDFFF785FF012010BD00BFE0200020DE
S1135AB010B582B01C4B1C6804F420021A601B4B06
S1135AC05B6813F0010F16D014F4000F08D114F41E
S1135AD0001F13D0164B1B68DBB2ADF806300DE087
S1135AE00DF10600FFF7BCFF0028F0D19DF8062059
S1135AF00F4B1A60EBE714F4001F01D102B010BD84
S1135B000B4B1968C9B2094A52F8300F431C93422F
S1135B10084A28BF1346103A526B9A42EED00170DD
S1135B20024A1363EAE700BF14B00640E0200020F5
S1135B301CB00640F020002008B52B2827D04B4B82
S1135B405B6813F0080F45D0484B03F13D029A639C
S1135B5083F83C0083F8790000221A701A7942F025
S1135B6010021A71C34313F0C00F09D13F4A1379CD
S1135B706FF304131371C00800F0060001301070B5
S1135B803A4A13796FF3C3031371002008BD374AEF
S1135B905368C3F3C00383F00103117963F3C301B2
S1135BA01171536813F0080F59D1304B5B6813F02F
S1135BB0080F0FD02D4B03F13D029A632B2283F87B
S1135BC03C2083F8792000221A701A7942F01002DE
S1135BD01A71D5E7254B5B6813F0100F06D0234AE2
S1135BE0831C137013796FF3041313711F4B1B7809
S1135BF0002B36D01D4991F879200244D2B281F8A5
S1135C007920013BDBB20B70CBB98B6B4BB18AB102
S1135C101648822300F83C3F0121FFF7E3FE0120F0
S1135C2008BD0846832300F83C3F0121FFF7DAFE54
S1135C30012008BD0E48FFF745FB012008BD0B4BB2
S1135C409B6B83B10B4A934203D30020074B9863A9
S1135C5008BD591C763A91631870002008BD0020D5
S1135C6008BD002008BD002008BD00BFE0200020C2
S1135C701C2100205621002008B5064B00221A7171
S1135C801A7303F110025A631A63FFF791FE01209D
S1135C9008BD00BFE0200020F8B50F4D05F1300429
S1135CA06B6B296B002605F1100C012799420ED06D
S1135CB05A1C1878A24234BF134663466A683E46AB
S1135CC012F0010FF2D16B63FFF736FFE8E706B974
S1135CD0F8BD014B5963FBE7E0200020F8B5564BB3
S1135CE09B699BB2554A1380554805F0B3F9C0F33C
