S0170000466F635F6D6F64656C5F4D61746C61622E6D6F7432
S113000000700020B50400001D0500001D0500005F
S11300101D0500001D0500001D0500000000000076
S11300200000000000000000000000001D050000AA
S11300301D050000000000001D050000B5AA000019
S1130040ED4F0000F74F0000015000000B5000007E
S1130050155000001F5000002950000033500000CC
S11300603D50000047500000515000005B5000001C
S1130070655000006F50000079500000835000006C
S11300808D5000001D0500001D0500001D05000029
S11300901D0500001D0500001D0500001D050000D4
S11300A01D0500001D0500004D8900005789000052
S11300B0618900001D0500001D0500001D050000EC
S11300C01D0500001D0500001D0500001D050000A4
S11300D01D0500001D0500001D050000D9A9000034
S11300E0E3A900001D0500001D0500001D0500001A
S11300F01D0500001D0500001D0500001D05000074
S11301003DAA00001D0500001D0500001D0500009E
S11301101D0500001D0500001D0500001D05000053
S11301201D0500001D0500001D050000057E0000E2
S11301303D7E0000757E0000AD7E0000E57E00007F
S11301401D0500001D0500001D0500001D05000023
S11301501D0500001D0500001D0500001D05000013
S11301601D0500001D0500001D0500001D05000003
S11301701D0500001D0500001D0500001D050000F3
S11301801D0500001D0500001D0500001D050000E3
S11301901D0500001D0500001D0500001D050000D3
S11301A01D0500001D0500001D0500001D050000C3
S11301B01D0500001D0500001D0500001D050000B3
S11301C01D0500001D0500001D05000091730000C1
S11301D09D730000A9730000B5730000656B0000F7
S11301E01D050000C1730000CD730000D973000029
S11301F0E5730000A56B00001D050000F17300000D
S1130200FD7300000974000015740000E56B000024
S11302101D050000217400002D74000039740000D5
S113022045740000256C00001D0500001D0500003C
S11302301D0500001D0500001D0500001D05000032
S11302401D0500001D0500001D0500001D05000022
S11302501D0500001D0500001D0500001D05000012
S11302601D0500001D0500001D0500001D05000002
S11302701D0500001D0500001D0500001D050000F2
S11302801D0500001D0500001D0500001D050000E2
S11302901D0500001D0500001D0500001D050000D2
S11302A01D0500001D0500001D0500001D050000C2
S11302B01D0500001D0500001D0500001D050000B2
S11302C01D0500001D0500001D0500001D050000A2
S11302D01D0500001D0500001D0500001D05000092
S11302E01D0500001D0500001D0500001D05000082
S11302F01D0500001D0500001D0500001D05000072
S11303001D0500001D0500001D0500001D05000061
S11303101D0500001D0500001D0500001D05000051
S11303201D0500001D0500001D0500001D05000041
S11303301D0500001D0500001D0500001D05000031
S11303401D0500001D0500001D0500001D05000021
S11303501D0500001D0500001D0500001D05000011
S11303601D0500001D0500001D0500001D05000001
S11303701D0500001D0500001D0500001D050000F1
S11303801D0500001D0500001D0500001D050000E1
S11303901D0500001D0500001D0500001D050000D1
S11303A01D0500001D0500001D0500001D050000C1
S11303B01D0500001D0500001D0500001D050000B1
S11303C01D0500001D0500001D0500001D050000A1
S11303D01D0500001D0500001D0500001D05000091
S11303E01D0500001D0500001D0500001D05000081
S11303F01D0500001D0500001D050000FFFFFFFF97
S1130400FFFFFFFFFFFFFFFFFFFFFFFFFE7FFFFF79
S1130410044B05481B1A062B02D9044B03B1184799
S1130420704700BF9F89FF1F9C89FF1F00000000C9
S113043005490648091A891001EBD171491002D007
S1130440034B03B1184770479C89FF1F9C89FF1F0A
S11304500000000010B5064C237843B9FFF7D8FF1D
S1130460044B13B10448AFF300800123237010BD83
S113047000000020000000002CF2000008B5084B2A
S11304801BB108490848AFF300800848036813B952
S1130490BDE80840CCE7064B002BF9D09847F7E7B6
S11304A000000000040000202CF200009889FF1FC7
S11304B00000000072B64FF000014FF000024FF050
S11304C000034FF000044FF000054FF000064FF01A
S11304D00007B846B946BA46BB46BC460A490B4A69
S11304E0521A013A05DD0020042308601944043A35
S11304F0FBDA07488546074880470748804762B6C5
S11305000AF0C2FAFEE700000080FF1F007000201E
S113051000700020E1C0000009C00000FFF7FEBF2A
S113052070B500200AF0EEFB0646FF2200210846C3
S11305300AF05EFC0546FF22012100200AF058FC67
S113054004460F4B1E600F4B1D600F4B18600F4A83
S1130550D36E43F04003D36616B92DB954B970BDB8
S113056000200AF0D9FBF8E72A46002108460AF0E1
S11305704DFCF3E72246012100200AF047FCEEE798
S113058068270020502700204427002000600240F4
S113059008B50122064B1A70032006F059FF00210A
S11305A004480BF0EFFF0A2103480AF07CFD08BD64
S11305B03C260020BC27002000D00440084A538970
S11305C0B3FA83F35B0943709389B3FA83F35B094A
S11305D08370D389B3FA83F35B09C370704700BF98
S11305E01C00002008B507EE900AF8EE677AB3EE17
S11305F0017A77EEC77A9FED1C7A67EE877A07EE69
S1130600101AB8EE477ADFED196A37EE667A184B9E
S113061083ED007AB2EE007AF4EEC77AF1EE10FAC6
S113062013D4B3EE007AF4EEC77AF1EE10FA0CDCD0
S1130630D3ED007A9FED0F7A67EE877A9FED0E7AFD
S1130640F4EEC77AF1EE10FA02DD0C4B1B7803B11D
S113065008BD032006F0FCFE0122084B1A7000219D
S113066007480BF08FFFF3E7410B343C00A0024531
S1130670942600200000043C333313403C26002021
S1130680BC270020014B0360704700BF8AAB2A3EA1
S1130690014B0360704700BF3BAAAA3E4FF07C5356
S11306A003607047014B0360704700BFE3AA2A3F11
S11306B0014B0360704700BF1D55553F0023036085
S11306C07047F8B5434DB5F85C40A40004F180448C
S11306D004F5CA24236843F0804323603E4E02227B
S11306E0082130460AF002FE236843F08043236069
S11306F00222092130460AF0F9FD236843F08043C1
S1130700236002220A2130460AF0F0FD236843F0F8
S11307108043236002220B2130460AF0E7FDB5F83E
S11307205E40A40004F1804404F5CA24236843F025
S11307308043236006F5805602220A2130460AF0DF
S1130740D5FD236843F08043236002220B21304609
S11307500AF0CCFDB5F87E3006F5D0364FF08C4764
S113076046F823709B0003F1804303F5CA231A68FB
S113077042F080421A60194A1949032006F066F9CA
S1130780184C00220121204606F0B3FA002203216E
S1130790204606F0AEFA00220521204606F0A9FA0A
S11307A0B5F88A3046F8237007F0C0FB0E4B0122DF
S11307B083F832204FF4FA721A86B5F882309B001F
S11307C003F1804303F5CA231A6842F080421A6099
S11307D0F8BD00BFD0EF000000A004408C2800202A
S11307E0CC84FF1F0060024044260020074B0122F6
S11307F083F832204FF4FA721A86002183F83410F9
S113080000225A6283F835109A6270474426002009
S1130810044B012283F83A2083F8382083F83920E6
S1130820704700BF442600202DE9F04F2DED108BBA
S113083083B00321002007F055FFC643724B93F8A1
S11308403A30002B40F0AD80704B5C686E4BDB6A35
S1130850E41A6D4B6D4A5268DA62002283F83A203A
S11308606B4B1B686B4D6B60DFF8DC81B8F8007074
S1130870BFB269480AF076FCC0F3400028778000D4
S1130880DFF8C891C9F80000DFF8C4A150460AF0A7
S113089069FCC0F3802068774000DFF8B8B1CBF87A
S11308A0000050460AF05EFCC0F3C020A8775B4A03
S11308B01060D9F80030DBF8001012680B441A44B9
S11308C0B8F800309BB213B10021A8F800104E4BC9
S11308D093F83230002B66D1002F14BF0127002774
S11308E063D14C4B5B8A002B14BF4FF001084FF0CF
S11308F0000800F0DA81474B9988494B1B889BB26A
S113090099429DBF464B1B889BB20B4647F611206C
S1130910834200F2CA81434B1B889BB223B93D4BEF
S1130920DB7E002B00F0C1813F4B1B881BB2002BE8
S113093046DD3B4B1B889BB207EE903AF8EE677A94
S11309403A4B93ED067AC7EE279ADFED397A69EED2
S1130950A79A334B1B889BB207EE901AF8EE676A8E
S113096007EE903AB8EE677AC6EE877A9FED317A51
S113097067EE877A9FED387AF4EE477AF1EE10FA53
S1130980C8BFF0EE477A284B1B881BB2012B00F03E
S11309906D81531E052B33D8DFE803F0292F2C2358
S11309A02660002455E72FB101274FF4FA71164B46
S11309B0198600E00127144B198E164B598290E7D3
S11309C0174B1B889BB207EE903AF8EE677A174BE9
S11309D0D3ED066A86EEA77ADFED159A69EEC79A1B
S11309E0B7E79FED157A3BE0B6EE007A38E09FED6D
S11309F0137A35E09FED127A32E0B7EE007A2FE0F9
S1130A009FED107A2CE000BF442600201C0000203B
S1130A1000B00340B426002000F00F40242800203A
S1130A208426002054270020E0260020A8EE0000A1
S1130A30CDCC4C3DABAA2A3E3BAAAA3EE3AA2A3F10
S1130A401D55553F0000000040270020D8260020F7
S1130A50C0F00F40B82700208AAB2A3E1FED027A6F
S1130A6077EE677ABF4BC3ED037ABE4BDA68BE4BB1
S1130A701A60BC4B5D8ABC4B93ED007ADFEDBB7A08
S1130A80B4EEE77AF1EE10FA00F2438193ED008AB6
S1130A90F7EE007A38EE278ADFEDB47A38EE678A0B
S1130AA018EE100A0CF02CFB41EC100B0DF00CF8B6
S1130AB051EC100B0CF02CFE07EE900A38EE678A0E
S1130AC0AB4BD3ED007AAB4B93ED007A77EEC77A5C
S1130AD0A94BC3ED007AA94AD2ED007AA84A92ED57
S1130AE0007A77EEC77AC3ED017AD3ED007A9FEDF1
S1130AF0A59A67EE898AD3ED017A67EE897A38EE92
S1130B00A79A79EE277A9FEDA09A27EE899A9F4BB0
S1130B10D3ED03BA93F83830002B00F002819B4BDD
S1130B2093ED04AAB5EEC08AF1EE10FA00F16281E9
S1130B30FDEEC87A17EE903A1BB207EE903AF8EE43
S1130B40E77A78EE677A9FED928A67EE887ABCEE50
S1130B50E77A17EE103A9BB207EE103AB8EE47EA7E
S1130B6077EECE7A8B4A02EB830191ED008AD1EDC8
S1130B7001DA7DEEC8DA6DEEA7DA7DEE88DA91ED62
S1130B80C8EA91EDC98A38EE4E8A28EE278A38EEF3
S1130B900EEA69EE0E7A28EEAD7A77EEC77A7E4BCE
S1130BA0C3ED007A68EE8E7A29EE2D9A77EE897A73
S1130BB07A4BC3ED007A93ED009ADFED797A29EE52
S1130BC0279A784B93ED008A28EE0A8A38EE098A30
S1130BD0754BD3ED007AB0EEC87AB4EEE77AF1EE55
S1130BE010FA00F32181704B93ED007AC8EE077A76
S1130BF06E4B93ED00DA2DEE678ADFED6DAA69EE98
S1130C00AAAADFED6C7A6AEEA7AA7AEEAAAA624BC8
S1130C10D3ED007A634B93ED007A9FED67DA29EE0A
S1130C200DDADFED5F6A67EEA67A67EEAA7A29EE3F
S1130C30077A77EE877A9FED617A67EE877A3DEEE1
S1130C4067DA3DEE08DADFED5E7AB4EEE7DAF1EE6C
S1130C5010FA80F20781DFED5B7AB4EEE7DAF1EEA9
S1130C6010FA40F272819FED58BAFFE0531E042B34
S1130C7018D8DFE803F00E1411030B009FED537A2C
S1130C8077EE877A374BC3ED037AEEE69FED507A21
S1130C90F6E7B6EE007AF3E79FED4E7AF0E79FEDC4
S1130CA04E7AEDE79FED4D7AEAE7531E052B2AD8DD
S1130CB0DFE803F016231C091003494A2A4B1A6083
S1130CC0DFED469AD5E64FF07A52274B1A60DFEDF6
S1130CD0439ACEE6434A244B1A60DFED409AC8E6B5
S1130CE0414A214B1A60DFED3D9AC2E64FF07D5236
S1130CF01D4B1A60DFED399ABBE63C4A1A4B1A6069
S1130D00DFED369AB5E6DFED359A174BC3ED009A61
S1130D10AFE6154B93ED008ADFED147A38EE678A5F
S1130D20BEE6F5EE40BAF1EE10FA03D1174B93F993
S1130D3034302BB19FED29AA144B83ED04AAF1E6BC
S1130D4007EE904AB8EE67AADFED297A2AEE27AAC1
S1130D500E4BD3ED097A2AEE27AAD3ED047A3AEEA4
S1130D6027AADFE6B42600207C270020F8C2343FFF
S1130D708826002000270020A82600204C270020D9
S1130D80F82600200000003A3ACD133F4426002004
S1130D900000484400DF0000642700202C280020C5
S1130DA00000FA41FC27002014280020B02600206F
S1130DB000F04D455077D63D602C193FB610E4390C
S1130DC0D7B3DD40D7B3DDC0000000008AAB2A3EB4
S1130DD03BAAAA3EE3AA2A3F1D55553F0000000046
S1130DE07EAAAA3DC555D53E1D55153FE3AA6A3FC7
S1130DF017B7D13818EE100A0CF082F941EC100B39
S1130E000CF062FE51EC100B0CF082FC07EE900A21
S1130E10FDEEE77A17EE903A1BB207EE903AF8EE41
S1130E20E77A78EE677A8EE6B0EE480A0AF084FF35
S1130E3040B1AD4B93ED008AAC4B93ED00DA2DEE4F
S1130E40488ADAE6B5EEC08AF1EE10FA07D49FEDCF
S1130E50A8DAB7EE008AD8BFB0EE4D8AECE7BFEE51
S1130E60008AE9E79FEDA3DA9FEDA3BAA34B93EDC4
S1130E7005CA93F83930002B6CD0A04BD3ED068A09
S1130E809F4BD3ED00CA9FED9F7A6CEE87CA9E4BB1
S1130E90D3ED007A67EE877A7CEEE77A9B4BC3ED5D
S1130EA0007A9B4A92ED008AD3ED007A28EE888A74
S1130EB038EE278A974BD3ED007AB0EEC87AB4EEB9
S1130EC0E77AF1EE10FA66DC924BD3ED007A88EE05
S1130ED0277A914BD3ED007A67EEC77A8F4B93ED67
S1130EE0008A8B4B93ED007A884BD3ED006A9FED1B
S1130EF0856A28EE068A28EE2A8A27EE267A38EEB4
S1130F00478A9FED877A28EE078A9FED867A6CEEF2
S1130F1087CA9FED857A6AEE87AA7CEEAAAA38EE84
S1130F202A8A77EE887A9FED737AF4EEC77AF1EE27
S1130F3010FA4EDA9FED7D7AF4EEC77AF1EE10FAEC
S1130F4040F2B080DFED7AAA47E09FED78DA9FEDBA
S1130F506ABA8BE7B5EE40CAF1EE10FA03D1674BDB
S1130F6093F935302BB1DFED628A644BC3ED068A09
S1130F7086E707EE904AF8EE678ADFED6E7A68EE50
S1130F80A78A5E4BD3ED0A7A68EEA78AD3ED067A78
S1130F9078EEA78A74E7B0EE480A0AF0CDFE40B1B5
S1130FA0514B93ED008A5C4BD3ED007A67EEC87A1F
S1130FB094E7B5EEC08AF1EE10FA07D49FED4C8A9F
S1130FC0F7EE007AC8BFB0EE678AECE7BFEE008A9E
S1130FD0E9E7DFED487ADFED48AA79EEA9EA4F4B5D
S1130FE093ED008A9FED54FA67EE8FCA1EEE900AC5
S1130FF00CF086F83AA3D3E900230CF0D9F80CF0EE
S113100087FB07EE900A7CEEA77A2EEE888ADFED46
S113101044FA28EE2F8A37EE888A2DEE0FDA384B01
S113102093ED00FA6EEE8FEA9FED44FA6EEE8FEACE
S11310303DEE6EDA6DEE0D7A28EE087A77EE877A59
S11310409FED3F7AF4EEC77AF1EE10FA2FDC6DEEE5
S11310500ECA68EE2D7A7CEEE7CAF6EE007A6CEEE4
S1131060A77A28EE0E8A2DEE2D7A38EE078A9FEDA8
S1131070357A28EE077A37EE67DA9FED1D8A38EE67
S1131080678A38EE478AB0EE4D0A0AF055FEF4EE50
S1131090CDCAF1EE10FA5BDA002840F03F81B0EEE1
S11310A04DEA57E0DFED217ADFED13AA95E717EE5D
S11310B0900A0CF025F841EC100B0CF089FD51EC72
S11310C0100B0CF025FB07EE100ADFED1F7A6DEE16
S11310D0276A86EE87DA68EE277A87EE878AB6E78C
S11310E03B70B89E4C5F803F08290020B02600204A
S11310F000000000D7B3DD400100000044260020BA
S1131100642700200000FA4120280020A0260020A7
S11311100C28002080260020902600202C28002067
S1131120A69BC439602C193F65FA023CD7B3DDC0D5
S11311300000000017B7D1383ACD133EB610E43999
S11311403D0A673FD7B35D3F3333733F3ACD933F97
S1131150B0EE6CEAF4EECDCAF1EE10FA40F2E380A0
S113116000280CBFF0EE4DDAF0EE6CDAB0EE480A6F
S11311700AF0E2FDB4EECE8AF1EE10FA02D950B9CB
S1131180B0EE48EAF4EEC8DAF1EE10FA03D900281A
S113119008BFF0EE48DA3DEE8E7AFEEE007A27EED6
S11311A0277A7CEE877A5FED175A67EEA57AB7EE59
S11311B0006A77EE867AF6EE006A67EEA67A734BDB
S11311C0C3ED007A7DEE077A67EEA57A77EE867A2C
S11311D067EEA67AC3ED017A38EE078A28EE258AEF
S11311E038EE068A28EE268A83ED028A684B1B783D
S11311F0DBB207EE903AF8EE677A664BC3ED007AFD
S1131200D3ED007AF4EEE67AF1EE10FAC0F28E80B5
S11312105E4A1168604B19605168596092689A601F
S1131220DFF874A1DAED007A9FED5C8A67EE887AC4
S1131230FCEEE77A4FF00109CDF804900024009405
S113124017EE903A9BB222462146032006F086F917
S1131250DAED017A67EE887AFCEEE77ACDF804904D
S1131260009417EE903A9BB222460221032006F026
S113127075F9DAED027A67EE887AFCEEE77ACDF852
S11312800490009417EE903A9BB222460421032066
S113129006F064F904F028FB414BC3ED009A414B7E
S11312A083F832800FB1013D1D863E4BB8EECBBAB8
S11312B083ED03BA002283F8382083ED04AAF5EE07
S11312C0C0BAF1EE10FA37DD012283F83420354B31
S11312D083ED099AF8EEEAAAC3ED05AA002283F881
S11312E03920C3ED068AB5EEC0CAF1EE10FA38DD36
S11312F0012283F835202C4B1A682A4B9A62032169
S1131300002007F0EFF9C143304606F027FE274BD3
S1131310186003B0BDEC108BBDE8F08FB0EE6CEA42
S1131320F0EE6CDA22E7F0EE6CDA1FE71A4B0022DB
S11313301A605A609A6073E7F5EEC0BAF1EE10FADB
S11313400AD4F5EE40BAF1EE10FA0CBF00220222E4
S1131350144B83F83420BAE7FF22124B83F834206D
S1131360B5E7B5EEC0CAF1EE10FA0AD4B5EE40CA3C
S1131370F1EE10FA0CBF002202220A4B83F835204A
S1131380B9E7FF22074B83F83520B4E7582700203C
S113139042270020F4260020702700200000004788
S11313A0FC26002044260020A0260020FC28002043
S11313B030B583B00DF102020221012000F0FAFFE2
S11313C0274CBDF80230236001AA0221012000F05D
S11313D04DFFBDF80630A3760321002007F082F903
S11313E00546204AD36E23F04003D366002000F064
S11313F0CBFF6A460021084600F0DCFFBDF8002060
S1131400194B1A602268194B1A60012000F0BCFFC6
S11314106A460021012000F0CDFFBDF80030144CD5
S11314202360012000F0B0FF6A460121084600F065
S1131430C1FFBDF800200F4B1A6020681968FFF740
S1131440D1F8FFF7F1F90321002007F04BF9C1436C
S1131450E84306F083FD084B986003B030BD00BF3D
S1131460B426002000600240982600203C2700207B
S11314701C2800209C260020FC28002010B52DEDFF
S1131480048B0321002007F02DF9C4437E4B1B7805
S1131490DBB207EE903AF8EE677AB6EE007AF4EE35
S11314A0C77AF1EE10FACCBF784B794B1A68794BB6
S11314B01A60784B93ED008A9FED777A28EE078ABD
S11314C0DFED767A28EE278A38EE088A704BD3ED62
S11314D0008A68EE878A68EEA78A78EEA88A78EE92
S11314E0C87A6F4BC3ED007A6E4BD3ED009AF5EEDC
S11314F0409AF1EE10FA02D193F9333013B100227D
S1131500684B5A60DFED687A28EE278A674B93EDC3
S1131510009A634BD3ED007A624B93ED017A29EE86
S1131520079A39EE279A624BD3ED007AB0EEC97A66
S1131530B4EEE77AF1EE10FA61DC5D4BD3ED007A9C
S113154089EE277A5B4BD3ED007A27EEC77A574BA7
S1131550D3ED006A524B93ED006A524BD3ED027AFD
S113156078EE677A66EE866A77EEE67A524BD3EDCA
S1131570026A67EEA67AD3ED036A68EEA68A77EE6E
S1131580A87A77EE877AD3ED046A87EEA67AD3ED4C
S1131590057AB4EEE77AF1EE10FA4EDB4FF07E52A4
S11315A0404B1A609FED457A67EE877A444BC3ED52
S11315B0027A3B4BD3ED007A3A4B9FED427A67EEC9
S11315C0877A93ED017A77EE877AC3ED017AF5EEA7
S11315D0C09AF1EE10FA42DD012283F83320314B38
S11315E083ED028A0321002007F07CF8C1432046E2
S11315F006F0B4FC344B5860BDEC048B10BDB0EE67
S1131600490A0AF099FB40B1304B93ED007A294B1B
S1131610D3ED007A27EEC77A99E7B5EEC09AF1EEDA
S113162010FA07D4DFED2A7AB7EE007AD8BFB0EE0D
S1131630677AECE7BFEE007AE9E7F1EE677AB4EE99
S1131640E77AF1EE10FA04D84FF07E52154B1A6087
S1131650A8E70022134B1A60F0EE477AA2E7F5EEF2
S1131660C09AF1EE10FA0AD4F5EE409AF1EE10FAAF
S11316700CBF002202220B4B83F83320AFE7FF227A
S1131680084B83F83320AAE742270020DC260020F9
S113169004280020E82600205077D63D00F04D4570
S11316A0082800204426002000007A440028002056
S11316B0A4260020E4260020A8EE00006F12033DBB
S11316C0B42600206F12833AFC2800200829002049
S11316D000000000124B5B8901339BB2012B15D92A
S11316E000220F4B5A810E4B9B8901339BB2132B63
S11316F00FD80B4A93810A4BDB8901339BB2B3F5B4
S1131700FA6F0AD30022064BDA817047044A5381E8
S1131710E9E70022024B9A81EDE7014AD381704741
S11317201C00002010B5344B1B889BB2334A138035
S1131730334BDA69334B1A60334BD3ED007AF8EE4E
S1131740677A324BC3ED007A314BD3ED007AF8EE71
S1131750677A304BC3ED007A2F4B1B78E3B92F4CDB
S11317604FF48031204609F0F9FC4FF40041204643
S113177009F0F2FC224B93F83630CBB1204B93F8AE
S11317803730012B1BD002221D4B83F83720244A0B
S113179053680133536010BD204C4FF48031204610
S11317A009F0DAFC4FF40041204609F0D7FCE1E7E8
S11317B0134B012283F8362083F83720E7E71949D1
S11317C0032005F04DFF184AD36E43F04003D3665F
S11317D0002009F070FA012009F06DFA0F200BF0D7
S11317E0E7F9002009F0A8FA012009F0A5FA02227D
S11317F0034B83F83720CAE7282800201828002044
S113180044260020202800209826002000270020BD
S11318103C270020F82600203C260020C0F00F4082
S11318201C000020E084FF1F0060024010B5074C3C
S1131830226A074B1A60074B1A68074B1A60FFF7B6
S11318401DFE064B9B68E36110BD00BF44260020CB
S1131850DC260020FC26002004280020B4260020DA
S1131860054BD3ED007A9FED057A67EE877A044B3A
S1131870C3ED087A704700BF6C2700206F12033A4B
S1131880442600202DE9F04F9DB008200AF0DAF933
S1131890CB4CCC4F3A88BB782280A370CA4E328896
S11318A0B378A4F803206371C84D294600200BF0D7
S11318B0A1F9DFF88C93B9F86E30DFF888834FF024
S11318C08C4B48F823B09B0003F1804303F5CA23F3
S11318D01A6842F080421A60BD49002009F092F96A
S11318E041F28831002009F031FABA4A0021084651
S11318F009F044FA4FF4FA6300221146104609F045
S11319008FFA002009F018FA3A88BB782280A37075
S11319103288B378A4F803206371294600200BF0C1
S113192069F9B9F8703048F823B09B0003F180439B
S113193003F5CA231A6842F080421A60A6490120BE
S113194009F060F941F28831012009F0FFF9A34A56
S11319500021012009F012FA00231A461946012039
S113196009F05EFA9E4A0021012009F007FA4FF4BB
S11319707A7301220021104609F052FA994A002193
S1131980012009F0FBF94FF4FA630222002101203F
S113199009F046FA012009F0CFF904AB05F1080675
S11319A096E8070003C323F8022B120C1A700024D4
S11319B0029403948DF804408DF80540B9F8821020
S11319C08B0003F1804303F5CA231A6822F0804296
S11319D01A6048F821B01A6842F080421A60204622
S11319E000F086FC04A9204600F052FA2146204665
S11319F000F05CFC02A9204600F08BFB01A9204604
S1131A0000F0D8FB204600F0E1FC04AB96E80700A8
S1131A1003C323F8022B120C1A70029403948DF85A
S1131A2004408DF80540B9F884108B0003F180431D
S1131A3003F5CA231A6822F080421A6048F821B0DC
S1131A401A6842F080421A60012000F051FC04A997
S1131A50012000F01DFA2146012000F027FC02A914
S1131A60012000F056FB01A9012000F0A3FB012096
S1131A7000F0ACFC6B69049304AA0221012000F07D
S1131A80CAFBDFF8C4A1DAF8043023F00F0343F0F3
S1131A900203CAF8043003F0A5FB03F0F3FB03F0E0
S1131AA001FCB9F88C304FF0864248F82320B9F88D
S1131AB05C304FF0804248F8232048F8232048F84F
S1131AC0232048F823206022214604A80CF092F930
S1131AD0454A0492032305938DF81B300A9204218E
S1131AE00B918DF833301092022111918DF84B3007
S1131AF01692052217928DF8633004A9042009F088
S1131B0091FA2022214604A80CF074F9374B04936F
S1131B100823ADF8183001258DF820508DF8235096
S1131B20334B0A9302A9462002F0A4FB029B0793BD
S1131B3004AA3049204607F03BF92F4A2F4B1A607C
S1131B402F4A304B1A604FF080422F4B1A602F4BB4
S1131B502F490B604FF07C502E4908602E492F48C6
S1131B6001602F4801602F490A602F492F4A1160F4
S1131B702F49304A1160304A1360B9F85A70BF00D7
S1131B8007F1804707F5CA273B6843F080433B6071
S1131B90069407940994294B049305958DF81B50DA
S1131BA08DF81E5003F53623089304A9284609F03E
S1131BB039FAB9F86060B60006F1804646E000BF25
S1131BC0EC2600205085FF1F6C85FF1FE4DE00001B
S1131BD0182600204885FF1F242600206485FF1F47
S1131BE05C85FF1F5485FF1F00A0044040420F0086
S1131BF00000000080270020000090418026002083
S1131C00000020420C2800201428002000000C4270
S1131C10FC270020B02600200000FF448826002076
S1131C204C270020902600209A99993EE426002013
S1131C3000004842A4260020002800200090044010
S1131C40D0EF0000005006400080044006F5CA268C
S1131C50336843F080433360069407940994784BC7
S1131C6004930A2305938DF81B508DF81E50754B71
S1131C70089304A9284609F0D5F9336843F0804352
S1131C8033600694079409946D4B04930B230593D6
S1131C908DF81B508DF81E506A4B089304A92846F2
S1131CA009F0C0F9B9F87C3048F823B09B0003F17F
S1131CB0804303F5CA231A6842F080421A60624ADC
S1131CC06249022004F0C2FE6149022005F0AEF828
S1131CD03B6843F080433B60022229465D4809F09B
S1131CE005FB336843F08043336002220A215448E1
S1131CF009F0FCFA336843F08043336002220B217D
S1131D004F4809F0F3FA544B5A6942F002025A61FF
S1131D105A6942F040025A61DAF81C3043F4807385
S1131D20CAF81C3005216F2006F06EF96F2006F00A
S1131D303BF9224649496F2006F016F9484A2946DC
S1131D40022004F03BFB41F28731204609F00AF8F7
S1131D50204608F0F1FF434A136823F4003323F0CC
S1131D60200343F02003136022463F49342006F049
S1131D70FBF80621342006F047F9342006F014F964
S1131D808DF810404FF00403ADF8123004AA214638
S1131D90204600F040FA8DF810400723ADF81230C9
S1131DA004AA2146284600F036FA8DF8104006238E
S1131DB0ADF8123004AA2946284600F02CFAFEF7A2
S1131DC080FC2A4A0221284608F0FEFD052128202D
S1131DD006F01AF9282006F0E7F8336843F0804348
S1131DE03360069407940994154B049310230593C8
S1131DF08DF81B508DF81E50124B08938DF824500B
S1131E0004A9284609F00EF9336843F0804333608F
S1131E100694079409940A4B04930F2305938DF8B1
S1131E201B508DF81E50074B08938DF8245004A9BD
S1131E30284609F0F7F8FEF7EBFC1DB0BDE8F08F7B
S1131E4000C00440C0F00F402C000020A084FF1FFD
S1131E50B484FF1F0090044000A003409D61000073
S1131E60ED5D00000060034021050000B113000097
S1131E70704700BF002303700C2242708370C3704C
S1131E80037143718371C371037243728372704728
S1131E9070B584B006460D465D4B53F8204041238F
S1131EA08DF80C3042238DF80D3004A9002341F83D
S1131EB0083D04AB034413F8040C02F0DBF92B785F
S1131EC0029ADA400292226C22F060025B0103F073
S1131ED06003134323646B78002B08BF0123626CF7
S1131EE022F0FF0213436364226C22F00C02AB78ED
S1131EF09B0003F00C0313432364226C22F00302BF
S1131F00EB7803F0030313432364D4F8902022F006
S1131F1040022B799B0103F040031343C4F8903033
S1131F206B79302200924FF440520192394A9269FF
S1131F3004A901EB860151F8101C22EA0102002ECB
S1131F4043D0012E4FD0334B9A61AA7901210091DD
S1131F504FF4807101919B6904A901EB860151F84A
S1131F60101C23EA0103002E39D0012E45D0294A42
S1131F709361D4F8903023F00403EA79002A14BF63
S1131F80042200221343C4F89030D4F8902022F0A5
S1131F9003022B7A03F003031343C4F89030D4F8FC
S1131FA0943023F008036A7A002A14BF082200221E
S1131FB01343C4F8943036B9AB7A1BBB154A536843
S1131FC023F40023536004B070BD1B0103F03003FD
S1131FD0134310498B61AA798B6923F0010302F042
S1131FE001021343C3E71B0303F44053134309499A
S1131FF08B61AA798B6923F48073120202F48072D4
S11320001343B4E7034A536843F400235360DAE705
S1132010C8EE00000080044030B484B0374B53F85D
S113202020301A6CC2F341120A705A6C4A701A6C4E
S1132030C2F38102012A56D0022A0CBF02220022D6
S11320408A701A6C02F00302CA70D3F89020C2F3AB
S113205080120A7100220292012200924FF48072CF
S1132060019208220392264A926904AC04EB80048C
S113207054F8105C2A4054F8084CE240012A14BF7A
S1132080002201228A71302200924FF440520192C0
S1132090042202920C220392194A926904AC04EBC2
S11320A0800454F8105C2A4054F8084CE240012A99
S11320B01BD0022A0CBF022200224A71D3F89020BE
S11320C0C2F38002CA71D3F8902002F003020A72AC
S11320D0D3F89430C3F3C0034B7240B100238B7226
S11320E004B030BC70470122AAE70122E5E7044BA3
S11320F05B68C3F3C0438B72F2E700BFC8EE000015
S11321000080044000230370437083708380C38085
S11321107047174B53F82030D3F8902022F0200258
S11321200878002814BF202000200243C3F8902020
S1132130D3F8902022F010024878002814BF102011
S113214000200243C3F89020D3F8902022F0080224
S11321508878002814BF082000200243C3F8902088
S11321608A88C3F88820CA88C3F88C20704700BFC7
S1132170C8EE00000C4B53F82030D3F89020C2F383
S113218040120A70D3F89020C2F300124A70D3F8B8
S11321909020C2F3C0028A70D3F888208A80D3F8D2
S11321A08C30CB80704700BFC8EE00000023037062
S11321B0437070470C4B53F82020D2F8943023F02E
S11321C004030878002814BF042000200343C2F845
S11321D09430D2F8940020F003004B7803F003030A
S11321E00343C2F894307047C8EE0000064B53F81E
S11321F02020D2F89430C3F380030B70D2F89430CB
S113220003F003034B707047C8EE00000023037013
S11322101F234380704730B4124B53F82000538877
S11322201478A3F5706292B2052A0BD80E4A556849
S113223025F4E025556055681B0403F4E0232B4383
S11322405360152350F8212003F01F0322F05F028E
S11322501343002C14BF40220022134340F82130C2
S113226030BC7047C8EE0000008004400D4B53F8AA
S1132270200050F82130C3F38013137050F821303C
S113228003F01F0308494968152B01D05380704798
S113229011F4002FFAD0044B5B68C3F3024303F537
S11322A07063F3E7C8EE00000080044082B00E23A0
S11322B000934FF4606301930C4B9B6902AA02EBF9
S11322C0800252F8082C23EA020328B1012808D01E
S11322D0064A936102B07047490001F00E010B43B6
S11322E0F6E7490201F460610B43F1E70080044022
S11322F030B583B00446224B53F8202000231F211D
S113230042F823100133102BFAD1002111640C235D
S11323105364C2F88810C2F88C10C2F89010C2F846
S11323209410C2F8A0100423C2F8B03030230093F4
S11323304FF440530193134B9A6902A800EB8400B5
S113234050F8085C22EA05029A61012200924FF4D7
S1132350807201929A6950F8080C22EA00029A618C
S11323602046FFF7A3FF44B9064B5A6822F4002223
S11323705A605A6822F4E0225A6003B030BD00BFAC
S1132380C8EE000000800440044B53F82020D2F82B
S1132390903013F0800FFAD1704700BFC8EE0000F0
S11323A0034B53F8203053F82100C0F3C01070479A
S11323B0C8EE0000044B53F82030123153F821309A
S11323C0C3F30B0313807047C8EE00002DE9F047F8
S11323D082B04F4B53F82040D4F89430C3F38008B4
S11323E0D4F8947007F00307D4F89060656CEDB2EC
S11323F0D4F8943043F00303C4F89430D4F8943000
S113240043F00403C4F89430D4F8903023F040032C
S1132410C4F89030636C23F0FF0343F00C0363644F
S11324200023C4F8B430C4F8B830C4F8BC30C4F8DD
S1132430C030C4F8C430C4F8C830C4F8CC30412229
S11324408DF8042042228DF8052002A941F8083DA8
S1132450D4F840904FEA591A02AB184410F8040C0F
S113246001F008FF009B0AF0030A23FA0AFA294A3A
S1132470924512D9284A934208D9284A934245D909
S1132480274A934294BF0323002300E00123226CD4
S113249022F0600242EA43132364D4F8943043F0F8
S11324A08003C4F89430D4F8943013F08003FAD144
S11324B0226C22F0600209F0600949EA02022264F7
S11324C0D4F8942022F00402B8F1000F18BF0423BA
S11324D01343C4F89430D4F8943023F003031F4317
S11324E0C4F89470D4F8903023F0400306F040060A
S11324F01E43C4F89060002D08BF0125636C23F0CF
S1132500FF031D43656402B0BDE8F0870223BEE704
S1132510C8EE000040787D0181F0FA0203E1F50580
S113252007C2EB0B04230380002343807047F0B4FD
S1132530114B53F820200B88D2F8C400D2F8C07095
S1132540D2F8BC60D2F8B850D2F8B440C2F8B03077
S11325503844034433442B44234413F4784F14BFC6
S11325604FF0FF3300239BB2C2F8AC308B78C2F833
S1132570A030F0BC704700BFC8EE0000064B53F813
S11325802020D2F8B030C3F309030B80D2F8A03076
S1132590DBB24B80704700BFC8EE0000024B18440A
S11325A090F90800704700BFC8EE0000074B53F8CD
S11325B02020012905D0D2F8903013F4702FFAD1DD
S11325C07047136C43F480731364F4E7C8EE00009F
S11325D0044B53F82020D2F8903043F07063C2F8D3
S11325E090307047C8EE0000034B53F82030D3F806
S11325F09000C0F303607047C8EE0000074B5B69AE
S1132600DBB2042B06D0802B06D0012B0CBF01209B
S113261004207047022070470320704700E0074001
S1132620044BD3F8003113F0807F1ABF024B1868B3
S113263000207047004006403028002010B584B0C8
S11326400B4600293BD0444AD2F8002112F0007F07
S11326507DD1414AD2F8001121F40001C2F80011E1
S11326604FF08061C2F8001100213C4A116000283B
S113267070D05A7A120202F4E062197A01F007016A
S11326800A433548C0F80421DA79120102F0300215
S11326909979C90001F008010A435979890001F0C8
S11326A004010A43C0F808211A79012A29D0E2B1A9
S11326B0022A32D01A68294B1A60294C3BE00023C5
S11326C08DF804308DF80C3001228DF808208DF837
S11326D009208DF805208DF8063002238DF8073087
S11326E004AB204A43F8102DADE71A7B002A14BF2F
S11326F04FF40002002242F001021749C1F8002100
S1132700D8E71A7B002A14BF4FF40002002242F0DB
S113271001121149C1F80021CCE71A7B002A14BF29
S11327204FF403024FF4403242F001020A49C1F867
S11327300021BFE7013CFFF773FF18B9002CF9D162
S1132740032005E0002C14BF0020032000E0022039
S113275004B010BD0020FBE70040064030280020F4
S113276088E7300000127A00084BD3F8003213F0E7
S1132770807F09D0054BD3F8083203F00103002B06
S1132780034808BF002070470020704700400640FF
S113279000127A0010B582B00B46002938D02D4AB9
S11327A0D2F8002212F0007F4FD12A4AD2F8001248
S11327B021F40001C2F800120021C2F8001200281E
S11327C046D09A78120202F4E062597801F00701C7
S11327D00A432049C1F804221A7802F00102C1F820
S11327E0082259799A791B79002B14BF03230123FA
S11327F0002914BF042100210B43002A14BF4FF405
S1132800000200221343134AC2F80032642410E089
S113281000238DF8043001228DF805208DF8063050
S11328208DF801208DF8022002AB03F8082DB6E7DD
S1132830013CFFF799FF18B9002CF9D1032005E0FA
S1132840002C14BF0020032000E0022002B010BDC1
S11328500020FBE700400640054BD3F8003313F09B
S1132860807F1DBF024BD3F8083302480020704715
S113287000400640006CDC0210B582B00B46002913
S113288032D0294AD2F8002312F0007F47D1264AD9
S1132890D2F8001321F40001C2F800134FF0806154
S11328A0C2F8001300283DD09A78120202F4E062C4
S11328B0597801F007010A431B49C1F804231A7827
S11328C002F00302C1F808239A795B79002B14BF44
S11328D001230923002A14BF4FF4000200221343EA
S11328E0C1F8003364240EE001238DF80530002282
S11328F08DF806208DF801308DF8023002AB03F814
S1132900082DBEE7013CFFF7A7FF18B9002CF9D149
S1132910032005E0002C14BF0020032000E0022067
S113292002B010BD0020FBE70040064008B50F4B85
S1132930D3F8003613F0807F02D10023184608BD77
S1132940FFF76EFE03460028F8D00849D1F80826A0
S1132950C2F302220132B0FBF2F3D1F80826C2F32B
S11329600442103203FB02F35B08E7E70040064031
S113297010B584B00C4699B13D4BD3F8003613F032
S1132980007F72D13A4BD3F8002622F40002C3F838
S113299000264FF08062C3F80026A0B9002065E04D
S11329A000238DF804308DF80B3001228DF80820B7
S11329B08DF809208DF8053007228DF806208DF852
S11329C0073001ACD8E7FFF72BFE63791B0203F451
S11329D0E063227902F0070213432549C1F8043663
S11329E063781B0203F4E063A278120402F4F81281
S11329F01343C1F808362378012B16D04BB1022BB0
S1132A001FD04FF47A74FFF791FF48BB34B3013CF5
S1132A10F9E7E379002B14BF4FF40003002343F0DC
S1132A200103134AC2F80036EBE7E379002B14BF25
S1132A304FF40003002343F001130D4AC2F800369B
S1132A40DFE7E379002B14BF4FF403034FF4403363
S1132A5043F00103064AC2F80036D2E7032005E03A
S1132A60002C14BF0020032000E0022004B010BD9D
S1132A70004006402DE9F04180460D468C78013433
S1132A804E7806FB04460F7807FB0447CB78013BDE
S1132A90052B1CD8DFE803F00312151B1B18FFF7E6
S1132AA0BFFD0009B8F1020F4AD0B8F1030F7CD082
S1132AB0B8F1010F0DD00020BDE8F081FFF754FEFE
S1132AC0EFE7FFF7C9FEECE7FFF730FFE9E7002087
S1132AD0E7E7EA7802EB42015D4B53F821301B092A
S1132AE004FB03F4A04200F298800B46584901EB22
S1132AF083035B681B0906FB03F6B04200F2908077
S1132B0002EB420301EB83039B681B0907FB03F7FA
S1132B10B84200F28880AB781B0403F470231206D9
S1132B2002F0706213432A7802F00F0213436A78AA
S1132B301201D2B21343474A53610020BDE8F08129
S1132B40EA7802EB4201424B03EB81035B6D1B0904
S1132B5004FB03F4A04269D80B463D4901EB83030F
S1132B609B6D1B0906FB03F6B04262D802EB4203DD
S1132B7001EB8303DB6D1B0907FB03F7B8425BD84A
S1132B80AB781B0403F47023120602F07062134343
S1132B902A7802F00F0213436A781201D2B2134367
S1132BA02C4A93610020BDE8F081EB7803EB4301EC
S1132BB0274A02EB8102D2F8A820120904FB02F48E
S1132BC0A0423CD80A46224901EB8202D2F8AC204A
S1132BD0120906FB02F6B04234D803EB430201EBC0
S1132BE08202D2F8B020120907FB02F7B8422CD8AF
S1132BF0AA78120402F470221B0603F070631343D4
S1132C002A7802F00F0213436A781201D2B21343F6
S1132C10104AD3610020BDE8F0810120BDE8F081B5
S1132C200120BDE8F0810120BDE8F0810120BDE86C
S1132C30F0810120BDE8F0810120BDE8F081012090
S1132C40BDE8F0810120BDE8F0810120BDE8F081FC
S1132C50D4EE00000040064038B50546FFF7CEFC30
S1132C602946FFF707FF044658B9E8780A220849BD
S1132C70013A0B69C3F30363984204D0002AF7D1E5
S1132C800324204638BD002A08BF0324F9E700BF07
S1132C900040064010B504461B4B1B69C3F3036395
S1132CA0013B052B1DD8DFE803F00313161C1C1988
S1132CB0FFF7B6FC144B1B69C3F303430133B0FBAA
S1132CC0F3F0012C0FD0ECB1022C14D0002010BD75
S1132CD0FFF74AFDEEE7FFF7BFFDEBE7FFF726FE40
S1132CE0E8E70020E6E7084B1B69C3F3031301334D
S1132CF0B0FBF3F010BD044B1B6903F00F03013369
S1132D00B0FBF3F010BD00BF0040064008B50F4B08
S1132D101B6AC3F30363062B15D8DFE803F004082A
S1132D200B0E141411000220FFF7B4FF08BDFFF7C7
S1132D3077FC08BDFFF718FD08BDFFF78DFD08BD42
S1132D40FFF7F4FD08BD002008BD00BF00400640A9
S1132D5008B541B1012931D00020024610B1431E0B
S1132D6022FA03F008BD0438032852D8DFE800F043
S1132D700B02141DFFF770FD0246294BD3F8040320
S1132D8000F00700EAE7FFF7EFFC0246244BD3F814
S1132D90040200F00700E1E7FFF742FC0246204B83
S1132DA0D3F8040100F00700D8E7FFF7BFFD02469F
S1132DB01B4BD3F8040600F00700CFE704380328C0
S1132DC02AD8DFE800F00B02141DFFF745FD024688
S1132DD0134BD3F80403C0F30220BFE7FFF7C4FC8E
S1132DE002460F4BD3F80402C0F30220B6E7FFF704
S1132DF017FC02460A4BD3F80401C0F30220ADE7E6
S1132E00FFF794FD0246064BD3F80406C0F30220F4
S1132E10A4E700200246A1E7002002469EE700BF87
S1132E200040064008B5114B1B69C3F30113032B83
S1132E3019D8DFE803F00207101300210620FFF77A
S1132E4087FF08BD094B186900F00200002818BF6D
S1132E504FF4FA4008BD064B186808BD0021052050
S1132E60FFF776FF08BD002008BD00BF00800440C6
S1132E7034280020114B1B69C3F38103022B07D0B4
S1132E80032B0ED0002B0CBF4FF4FA3000207047F8
S1132E900A4B186900F00200002818BF4FF4FA40EA
S1132EA07047064B186910F0020006D0186900F04C
S1132EB00100002818BF4FF47A7070470080044066
S1132EC008B5244B5B6813F4006F40D0214B5B685A
S1132ED0C3F303130E2B09D8DFE803F00A080D0827
S1132EE01208171C20252F0829082C00002026E092
S1132EF0FFF70CFF23E001210620FFF729FF1EE066
S1132F0001210420FFF724FF19E001210520FFF728
S1132F101FFF14E00020FFF7BDFE10E00121072091
S1132F20FFF716FF0BE00120FFF7B4FE07E0FFF701
S1132F30A1FF04E0FFF776FF01E04FF4FA30054B00
S1132F405B68C3F302230133B0FBF3F008BD002038
S1132F5008BD00BF0080044010B50C4615380E288B
S1132F6000F2A380DFE800F008131E29333D414B33
S1132F705D6A737E87909900584BDB68C3F30163E5
S1132F80022B00F29D80564A52F8233022E0534B24
S1132F90DB68C3F38163022B00F29480504A52F839
S1132FA0233017E04D4BDB68C3F30173022B00F2AF
S1132FB08B804B4A52F823300CE0484BDB689B0F64
S1132FC0022B00F28380464A52F8233002E0FFF7D6
S1132FD077FF03460020002B6AD0002C7CD02360AE
S1132FE010BDFFF71FFF0346F4E73E4B9B78DB0958
S1132FF001D00023EEE7FFF73DFF0346EAE7394B34
S11330009B78DB0964D1354B1B6913F00203E1D0D3
S1133010324B1B6903F00103002B18BF4FF47A7382
S1133020D8E7304B9B78DB0954D12C4B1B6903F058
S11330300203002B18BF4FF4FA43CBE7294B9B78CC
S1133040DB09002B14BF00234FF4FA33C2E7234BF0
S11330501B6CC3F3001383B30120FFF71BFE03466D
S11330600020B8E71D4B1B6CC3F3C003002BF3D146
S11330704FF48070B1E7194B1B6CC3F38003002B32
S1133080EAD14FF48070A8E7144B1B6CC3F34003E0
S1133090002BE1D14FF480709FE7104B1B6C13F0B1
S11330A00103D9D14FF4807097E70420002392E7FD
S11330B0042818BF4FF480708FE74FF480708CE7BA
S11330C0002387E7002385E7002383E7002381E7C4
S11330D000237FE700237DE710BD00BF008004408C
S11330E03828002000D0074030B583B00023019376
S11330F02F4B03EB4003B3F8FC309B0003F18043F8
S113310003F5CA231D68C5F3C0051C6804F0070451
S1133110AC4219D31A6812F0804F15D01B68C3F360
S11331200263013B052B21D8DFE803F003111620CD
S1133130201B0620FFF70CFE01900134019BB3FB1A
S1133140F4F405FB04440194019803B030BD042059
S1133150FFF7FEFD0190F0E70520FFF7F9FD019070
S1133160EBE70720FFF7F4FD0190E6E73C3803287E
S11331701BD8DFE800F002080E1401A91520FFF7A0
S1133180EBFE0024D9E701A91620FFF7E5FE002491
S1133190D3E701A91720FFF7DFFE0024CDE701A93B
S11331A01820FFF7D9FE0024C7E70024C5E700BFB5
S11331B0D4EE000030B583B00546FFF7B7FB88B105
S11331C0062D56D006238DF8073002238DF80630DD
S11331D001238DF8053002A800F8043DFFF73CFDFB
S11331E0044600E00124FFF737FB10B1032D4AD059
S11331F074B9FFF715FA10B1012D4DD0D4B9FFF70A
S1133200B3FA10B1022D00D01CBB204603B030BD70
S113321003238DF8073000228DF8062001228DF853
S1133220052002A800F8043DFFF716FD0446E0E778
S11332300124E3E701238DF8073000228DF80620EE
S11332408DF8053002A800F8043DFFF705FD04469B
S1133250D5E702238DF8073000238DF806308DF86A
S1133260053002A8012300F8043DFFF7F5FC0446ED
S1133270CBE7FFF7F1FA0028CAD1FFF7D1F900280C
S1133280D6D10124BBE7FFF7CBF90028B6D1FFF76D
S11332906BFA0028B8D1B8E7FFF766FA0028B3D173
S11332A0B3E7174B1B69C3F30363013B052B06D834
S11332B0DFE803F0031D200505230123C370104933
S11332C00A69104BC2F303121A4492F89C2142700B
S11332D00A69C2F303421A4492F89C2182700A6973
S11332E002F00F02134493F89C31037070470223D9
S11332F0C370E4E70323C370E1E70623C370DEE78A
S113330000400640D4EE000001383F282DD8DFE805
S113331000F02A282C262C2C2C242C2C2C2C2C2C65
S11333202C222C2C2C2C2C2C2C2C2C2C2C2C2C2CE3
S11333302C202C2C2C2C2C2C2C2C2C2C2C2C2C2CD5
S11333402C2C2C2C2C2C2C2C2C2C2C2C2C2C2C2CB9
S11333502C2E062070470520704704207047032058
S113336070470220704701207047002070470720F3
S11333707047F0B5A5B028B304460646002800F00F
S1133380FF80C54B1B69C3F30363032B00F0C680A6
S1133390FFF762FA002800F0B88003238DF80730A5
S11333A000228DF8062001228DF8052024A800F8BB
S11333B08C3DFFF751FC0546002800F0AF802846FD
S11333C025B0F0BD01238DF80B3000228DF80C20C0
S11333D08DF80D308DF80E208DF808308DF80930F9
S11333E08DF80A308DF816308DF814308DF81520CC
S11333F08DF80F208DF810308DF811308DF838309D
S11334000D928DF82530A54906918DF81C208DF874
S113341024208DF81D308DF81E2002208DF81F0009
S11334208DF820308DF821308DF830308DF828203B
S11334308DF82F208DF829200C218DF82A108DF875
S11334402B208DF82C308DF82D308DF83D30032154
S11334508DF83C108DF84B308DF841108DF84020DC
S11334608DF83F308DF83E308DF845008DF84430AE
S11334708DF843208DF8421006208DF849008DF810
S113348048208DF847308DF8461085492291202137
S113349021918DF84C308DF84D208DF84E208DF80B
S11334A04F208DF850308DF854308DF853308DF80E
S11334B052208DF851208DF878308DF879308DF8C0
S11334C07A308DF87B308DF87C308DF87D308DF836
S11334D083308DF858301792189219921A921B92D1
S11334E01C921D928DF87E308DF87F308DF88020EF
S11334F08DF881208DF882208DF88C308DF88D30F8
S11335008DF88E2002AE34463BE700210120FFF700
S1133510B3F9054600287FF452AF3EE73146E07820
S1133520FFF738F90546002800F0C280FFF766F877
S1133530022800F0F780032800F0F780012800F04B
S1133540D180002D7FF43BAF0022564B1A6094F8D3
S1133550303013B1E26A534B1A6094F8353053B1EA
S11335604D490A6A22F0706294F834301B0603F065
S1133570706313430B6294F84330002B40F03381A3
S113358094F84430E3B194F8455094F8463094F8F4
S113359047204549486820F400604860496821F4A0
S11335A07F61002D14BF4FF4006000201B01DBB2CB
S11335B0120202F4E06213430B4303433A4A53609A
S11335C094F84830DBB194F84A3094F849203649ED
S11335D0096921F03F0194F84C00014394F84B0031
S11335E0002814BF022000209B0003F00C030B43AF
S11335F0120102F03002134303432B4A136194F87F
S11336007030002B37D0284B196C21F0010194F84D
S113361071200A431A641B6C23F0020394F872208D
S1133620002A14BF0222002213431F4A1364136C9E
S113363023F0040394F87320002A14BF0422002208
S11336401343194A1364136C23F0080394F8742089
S1133650002A14BF082200221343134A1364136C74
S113366023F0100394F87520002A14BF10220022BE
S113367013430D4A136494F85030002B00F000817A
S11336800A4B626D1A60A26D5A60E26D9A6004F191
S113369060000121044DCBE00040064000127A0096
S11336A00084FF1F342800200080044038280020B4
S11336B004F11001607FFEF7C1FF054600287FF486
S11336C035AF04F1200194F82800FFF751F90546BD
S11336D0FEF794FF022825D0032826D0012801D024
S11336E0002601E004F13606002D7FF42AAFF378BA
S11336F0032B1DD08DF80730B3788DF8063073781E
S11337008DF80530337824A800F88C3DFFF7A4FA2F
S1133710054600287FF415AFE11DA07BFFF7ACF848
S113372005460EE704F13A06DEE704F13E06DBE760
S113373094F828300BBB637F93BBE378002B42D112
S11337400125002D7FF4FDAEE11DA07BFFF794F869
S1133750054600287FF4F5AEF3788DF80730B3788A
S11337608DF8063073788DF80530337824A800F886
S11337708C3DFFF771FA0546E3E606238DF8073022
S113378002238DF8063001238DF8053024A800F8B3
S11337908C3DFFF761FA0546637F7BB10128D0D1E8
S11337A001238DF8073000228DF806208DF80530AE
S11337B024A800F88C3DFFF74FFA0546E378002B68
S11337C0BFD0012DBDD102238DF8073000238DF821
S11337D006308DF8053024A8012300F88C3DFFF74E
S11337E03BFA0546ADE704F136010120FFF742F943
S11337F0054600287FF4E3AD04F13A010220FFF707
S113380039F9054600287FF4DAAD04F13E010320BE
S1133810FFF730F9054600287FF4D1ADB0E626F075
S113382040761B0603F040733343EB600131C9B2A9
S113383050F8043BEE684A1ED2B2032A00F2A1807B
S113384001A757F822F000BF1F38000059380000C4
S1133850673800007538000026F040669B0603F0C8
S113386040633343E1E726F040561B0703F040531F
S11338703343DAE726F0404646EA8373444AD3608A
S113388094F87630EBB1424A936E0020906651680A
S113389021F4805194F878301B0303F480530B43D4
S11338A05360906694F877305BB194F879305B009C
S11338B003F00E0394F87A2042F080521343344A02
S11338C0936614F17C0F3DD0D4F88030002B39D0AE
S11338D0E36F002B36D000212E482F4D01EB8102DF
S11338E0D4F880309B5C00EB4303B3F8FC309B00BE
S11338F003F1804303F5CA231E6826F080461E6048
S1133900D4F880309F189E5CBB781B0603F0E063FC
S1133910FA78D20002F0080213433A7902F007025F
S113392013437A78002A14BF4FF0804200221343D5
S113393000EB4606B6F8FC2045F822300131E36F6F
S11339409942CBD394F8843003B314498B7803F0B1
S11339507F0394F8852082F0010243EAC213DBB2AC
S11339608B7094F98630002BBCBF20335BB20B49BB
S11339700A7903F01F0302F0E00213430B710025E0
S11339801DE5EE6003297FF651AF79E7002516E5C2
S113399000800440D4EE00000050064000D00740F0
S11339A070B504460D46112807D9232840F28580B6
S11339B04D2840F28580042070BD11287AD8DFE8B4
S11339C000F00913191F24292E33383C41484F565F
S11339D05D646B720020FFF75DF903460020002D43
S11339E000F0D9802B6070BD0120FFF753F9034626
S11339F00020F4E70220FFF74DF903460020EEE72C
S1133A00FFF75EFA03460020E9E7FEF7ADFE034642
S1133A100020E4E7FEF720FF03460020DFE7FEF77F
S1133A20FFFD03460020DAE7FEF780FF034600208F
S1133A30D5E7594B1B680020D1E7FFF767F9034628
S1133A400020CCE700210420FFF782F90346002080
S1133A50C5E701210420FFF77BF903460020BEE7F8
S1133A6000210520FFF774F903460020B7E7012180
S1133A700520FFF76DF903460020B0E7002106207A
S1133A80FFF766F903460020A9E701210620FFF7A6
S1133A905FF903460020A2E700210720FFF758F949
S1133AA0034600209BE701210720FFF751F9034655
S1133AB0002094E70023042091E7FFF74DFA70BD3E
S1133AC0242805D804200023002D64D02B6070BD69
S1133AD0A0F13303DBB21A2B07D8304A22FA03F3DE
S1133AE013F0010F18BF0420EDD12D4B03EB440359
S1133AF0B3F8FC202B4B53F8223013F0804F37D10E
S1133B004FF48070DFE70120FFF7C4F80346002874
S1133B103CD100234FF48070D6E70020FFF7BAF8B9
S1133B2003460028F5D031E00220FFF7B3F803463E
S1133B300028EED02AE016F0080F06D116F0100F78
S1133B400BD100234FF48070BEE700212046FFF71D
S1133B50CBFA034616F0100F04D001212046FFF7DC
S1133B60C3FA0346002B14BF00204FF48070ABE768
S1133B700B4B234493F8AC6116F0200FC3D116F01D
S1133B80400FCAD116F0800FCED1002316F0180FC3
S1133B90D1D1002098E770BD3428002041210004D1
S1133BA0D4EE00000050064070B582B004460D46C5
S1133BB089B1554B234493F8AC3113F0010F63D111
S1133BC013F0180F30D06A78043A032A5AD8DFE881
S1133BD002F02325272901238DF80030FEF7C4FDC8
S1133BE048B104238DF801300123ADF80230ADF85B
S1133BF004306D46DDE7FEF72FFE08B10523F1E73B
S1133C00FEF794FE08B10723ECE7FEF709FD002850
S1133C1014BF06234F23E5E7022206E0032204E053
S1133C20012202E0062200E0002213F0040F1ABF72
S1133C30AE8806F1FF36002613F0020F1ABF69881A
S1133C4001F1FF310021304B03EB4404B4F8FC4094
S1133C50A30003F1804303F5CA23186820F08040D1
S1133C6018602B7863B1120642F0804206F0070612
S1133C703243C90001F008010A43244B43F82420CD
S1133C8002B070BD0022D0E72B781F3C042CF7D87B
S1133C90DFE804F02E22160A03001D490A6C22F004
S1133CA0010213430B64EBE7194A126C22F002027F
S1133CB0002B14BF022300231343154A1364DFE7C8
S1133CC0134A126C22F00402002B14BF04230023B5
S1133CD013430F4A1364D3E70D4A126C22F008020F
S1133CE0002B14BF082300231343094A1364C7E7B6
S1133CF0074A126C22F01002002B14BF1023002379
S1133D001343034A1364BBE7D4EE0000005006409B
S1133D100080044070B582B005460C46FEF76EFC88
S1133D2006469DB12B68022B0ED0042B10D0012B1C
S1133D300CBF012504256CB12378043B032B56D812
S1133D40DFE803F0574F51530225F4E70546F2E745
S1133D500325F0E7FEF780FD58B103238DF8073003
S1133D6000228DF8062001228DF805208DF80430FC
S1133D7055E0FEF7DBFD58B106238DF8073002232A
S1133D808DF8063001238DF805308DF8043046E0B7
S1133D90FEF746FC50B101238DF8073000228DF860
S1133DA006208DF805308DF8043038E0FEF7DCFC91
S1133DB0A8B302238DF807309D4208D000238DF864
S1133DC006308DF8053001238DF8043027E00123F7
S1133DD08DF8063000238DF8053003238DF8043068
S1133DE01DE0032306E0012304E0062302E0FF2391
S1133DF000E002238DF807300F4B62881A4492F8D2
S1133E00FC218DF80620A2881A4492F8FC218DF832
S1133E100520E288134493F8FC318DF80430B54250
S1133E2005D001A92846FEF725FE02B070BD01A801
S1133E30FEF712FFF9E700BFD4EE0000154B1B6933
S1133E40C3F30363013B052B20D8DFE803F003161B
S1133E50191F1F1C062303700E4A1369C3F303437F
S1133E60013343801369C3F303130133838013695C
S1133E7003F00F030133C380704704230370EBE79F
S1133E8005230370E8E707230370E5E704230370C1
S1133E90E2E700BF004006402DE9F04186B0044649
S1133EA00D4631B38889FFF72FFA8046E889FFF77A
S1133EB02BFA07462E78201F172800F23881DFE8F6
S1133EC010F01C0057008F00E40036013601360163
S1133ED03601360136013601360136013601360126
S1133EE03601360136013601360136013601360116
S1133EF01C010127B8463E46DDE78E4B1B69C3F320
S1133F000363022B1FD0002465B301238DF80D3009
S1133F108DF80C3000228DF80E208DF809808DF874
S1133F200A7006A901F8103D3046FEF733FC03463B
S1133F30002B40F0E980002C00F0E68001A8FEF799
S1133F408BFE0346E0E00EB90123DDE001A8FFF794
S1133F50A8F90220FFF72EF90346002840F0D48088
S1133F603446D1E700210120FEF714FC0346DFE7C5
S1133F70704B1B69C3F30363032B1CD000244DB3A4
S1133F8000238DF80E308DF809808DF80A708DF8B5
S1133F9008308DF80D3002A93046FEF76DFC03465B
S1133FA0002B40F0B180002C00F0AE8001A8FEF799
S1133FB053FE0346A8E00EB90123A5E001A8FFF7CC
S1133FC070F90320FFF7F6F80346002840F09C80C0
S1133FD03446D4E700213046FEF74EFC0346DFE7C3
S1133FE0544B1B69C3F30363012B2FD00024002D12
S1133FF03AD06B68029300228DF80C208DF81420BF
S11340008DF810808DF811706A78012A14BF00228F
S113401001228DF80D2000228DF80E20A3F57412D4
S1134020A2F5106244498A4224D802238DF80F3045
S113403002A93046FEF702FB0346002B64D1002C94
S113404062D001A8FEF708FE03465DE00EB9012325
S11340505AE001A8FFF725F90120FFF7ABF8034662
S1134060002851D13446C2E700213046FEF7E6FA73
S11340700346E2E7A3F5F403A3F590532F4A9342D2
S11340809CBF03238DF80F30D2E72A4B1B69C3F37F
S11340900363062B1ED000244DB300238DF8083093
S11340A08DF80F308DF80C808DF80D70AB7A013BD4
S11340B08DF809302B7A103B8DF80A3002A930466E
S11340C0FEF756FC0346FBB9F4B101A8FEF7C4FDA4
S11340D0034619E00EB9012316E001A8FFF7E1F841
S11340E00620FFF767F8034670B93446D4E7002189
S11340F03046FEF73DFC0346E5E74EB9104A937897
S113410043F0800393700023184606B0BDE8F081A5
S11341100C4A136923F03F0343F00303136102F5D0
S11341205432937803F07F0393700023ECE7002369
S1134130EAE700BF0040064000093D000048E801EE
S113414000D007400080044010B4054C2060217169
S1134150A2602373637300205DF8044B704700BFB3
S11341608C000020F0B583B007460E468DF804009D
S11341708DF8051003F040FF334B1C7B5C73012367
S11341808DF80630002C4AD000242F4D04E0013471
S1134190E4B22B7BA34242D9AB6853F82430002B02
S11341A0F5D01A79022AF2D01A68996801A89047C2
S11341B00028ECD06C73002EE9D140F203150023E3
S11341C08DF80630A400204E20E00134E4B23B7B9D
S11341D0A34212D9BB6853F82430002BF5D01A79C6
S11341E0012AF2D01A68996801A890470028ECD0F7
S11341F07C73002EE9D14FF4827503F0EFFE28465C
S113420003B0F0BD043C14F1040FF6D0B3681B599D
S1134210002BF7D01A68996801A89047F2E70A4D75
S11342202B6853F82700FFF7A4F86F7105460028A0
S1134230C5D102238DF80630034B1B7B002BDCD049
S11342400024014FC6E700BF8C000020014B5879C1
S1134250704700BF8C000020054B5A7B1B799342AA
S113426083BF034B9B6853F822000020704700BFB4
S11342708C00002008B5FFF793FB08BD08B5FFF7D5
S113428078F808BD29B14118002300F8013B8142A8
S1134290FBD1704710B4064B1B6853F82040616093
S11342A053F820309A6000205DF8044B704700BF3B
S11342B09C00002070B50446094D2B6853F820601B
S11342C0002200F00F01074800F065FD1021304680
S11342D0FFF7D8FF2B68002043F8240070BD00BF0F
S11342E09C0000200080004038B5102003F068FED8
S11342F00F4B1B68BBB100240D4D02E00134102CA0
S113430008D02B6853F82430002BF7D01878FFF727
S1134310D1FFF3E7074D6C1E0F3514F9010F03F0BD
S11343204FFEA542F9D10020014B186038BD00BFF3
S11343309C000020E4F0000008B5084B1B6853F80B
S1134340203000F00F00064A1077D07723B15A6866
S113435012B1197B9868904708BD00BF9C000020EB
S11343600080004038B5054600F00F0400222146C5
S1134370094800F010FD094B1B6853F8253053B170
S1134380054A1477D477947701221A735A6812B1C4
S1134390197B9868904738BD008000409C0000203D
S11343A02DE9F04F87B09DF84070119D0124BC4069
S11343B05FFA84FCB5FBFCF60CFB1656002E14BF0A
S11343C04FF0010A4FF0000A03D0504607B0BDE891
S11343D0F08F059304920391804600F00F06DFF8F6
S11343E000913146484600F0DBFCD9F8003043F038
S11343F08003C9F80030730103F1804202F5004BD9
S113440002F51042049810604B4441F210020598E2
S113441098500197009700231A463146484600F009
S1134420F5FC039B032B12D8DFE803F0022D3D4C6F
S1134430002241F204032BF8032064B2A4B27301F6
S113444003F1804303F5004341F214029C52244CCF
S11344502A463146204600F0F1FC0122314620462E
S113446000F077FD04EB461641F21C02B35A1BB26E
S113447043F002039BB2B3521A4B1B6853F8283023
S113448000221A73A1E764B2A4B241F204032BF828
S11344900340730103F1804303F50043002141F21B
S11344A014029952D3E764B2A4B241F204032BF884
S11344B00340730103F1804303F5004341F2140206
S11344C09C52C4E7002241F204032BF80320730139
S11344D003F1804303F5004341F214015A52B6E755
S11344E0008000409C00002070B582B00446079D07
S11344F001959DF818500095FFF752FF054610B13D
S1134500284602B070BD04F00F040F4E089A2146ED
S1134510304600F01EFD06EB441641F21C03F35A2C
S113452023F008031B041B0C9DF82420002A14BF4D
S1134530082200221343640104F1804404F500447A
S113454041F21C02A352DBE70080004008B50122BF
S113455000F00F01024800F01EFC002008BD00BF5F
S11345600080004008B5002200F00F01024800F06E
S113457012FC002008BD00BF0080004010B40F4BA7
S11345801C5C04F07F041C541C5C01F03F0104F02B
S1134590C004214319541B5C03F0BF03002A14BF59
S11345A0402200221A43054B1A541A5C42F080023E
S11345B01A5400205DF8044B704700BF00100240FD
S11345C02DE9F04180460C464D7805F00F06102188
S11345D0FFF758FE227BA1786078FFF7CFFF0746EC
S11345E031461D4800F0DCFB17B13846BDE8F081C8
S11345F01A4B1B6843F8258053F82520157053F88F
S1134600253000221A73144D01223146284600F049
S1134610BDFB2B6813F0040F11D12378FF2B0ED0B0
S113462086F0030606F1804606F5004696F800215A
S113463003F00F0302F0F002134386F800316568BB
S1134640A1686278054B1B6853F82200456053F853
S113465022309960C9E700BF008000409C00002020
S11346602DE9F0420D4616469946069F244B1860E4
S11346704021FFF707FE234C204600F0B6FB2268DA
S113468022F004022B789B0003F0040313432360FD
S1134690236823F010036A78002A14BF1022002232
S11346A013432360102003F07FFC174D6C1E0F355D
S11346B014F9010F03F078FCAC42F9D1134800F06F
S11346C08DFCDEB1B9F1000F14D0AFB1043EA9F1F5
S11346D0040900252C4659F8041F56F8040FFFF767
S11346E06FFF002818BF05460134A742F3D12846BE
S11346F0BDE8F0820025FAE70025F8E70025F6E793
S11347009C00002000800040E4F000000010024003
S113471008B500F00F01024800F042FB08BD00BFDD
S11347200080004000F00F0080304001014B195020
S1134730704700BF0080004000F00F0089B24001C4
S113474000F1804000F510408180704700F00F00B8
S1134750400100F1804000F5004041F20602835A16
S11347609BB2090201F4E06123F4E063194381522E
S1134770704700F00F00400100F1804000F5004058
S113478041F20C03C150704700F00F00400100F1EA
S1134790804000F5004041F21803C150704700F01A
S11347A00F00400100F1804000F5004041F2100389
S11347B0C150704700F00F0089B2400100F1804001
S11347C000F5004041F21403C152704700F00F009D
S11347D0400100F1804000F5004041F20602835A96
S11347E09BB201F0070123F007030B438352704788
S11347F008B50A4600F00F01014800F01FFB08BD90
S11348000080004008B50A4600F00F01014800F09E
S1134810A0FB08BD0080004008B500F00F0102486D
S113482000F0C6FB08BD00BF0080004008B50A4682
S113483000F00F01014800F051FB08BD008000406A
S113484000F00F00430103F1804303F5004341F2FC
S11348501C029B5A23F008031B041B0C002914BFE1
S1134860082200221343400100F1804000F500407B
S113487041F21C028352704708B500F00F00012971
S113488008D011B102291DD008BD0146194800F015
S11348907DFA08BD430103F1804303F5004341F26F
S11348A01C015B5A23F004031B041B0C002A14BFD5
S11348B0042200221343400100F1804000F500402F
S11348C0435208BD430103F1804303F5004341F221
S11348D01C015B5A23F002031B041B0C002A14BFA7
S11348E0022200221343400100F1804000F5004001
S11348F0435208BD0080004008B518B1034800F0D9
S11349003CFA08BD014800F02FFA08BD00800040C1
S113491000F00F00014B5877704700BF0080004043
S1134920002843D038B5044600293BD00D46202149
S11349302846FFF7A7FC227E637A03F0070343EAC5
S1134940C223227A120202F4E0621343627ED2008E
S1134950D2B21343EB8023682B60B4F90A30AB80E6
S1134960E369AB602369EB6063682B61B4F90C30D5
S1134970AB82E36A1B68EB8294F820309BB1636AD4
S1134980AB6194F82830002B14BF0223002394F861
S11349902020002A14BF102200221343AB83E36AB1
S11349A01B68EB8338BD6369AB61EAE770472DE9A7
S11349B0F04182B00C4600F00F05724F294638468C
S11349C000F0EEF922686E0106F1804303F5004819
S11349D003F510431A6062683E4441F21003F2503A
S11349E0637E227E617A0191217A009129463846BC
S11349F000F00CFA628941F2040328F80320A2892A
S1134A0041F21403F252226941F20C03F25094F879
S1134A102030002B40F0A1806B0103F1804303F5AB
S1134A20004341F21C015A5A22F010021204120CE3
S1134A305A52616941F2180299506B0103F18043A3
S1134A4003F5004341F21C029B5A23F002031B04AA
S1134A501B0C94F82820002A14BF022200221343BE
S1134A606A0102F1804202F5004241F21C015352F4
S1134A70E16A00297FD0434B1B6813F0800F14D0E8
S1134A80134641F208029A5822F000420B79002B97
S1134A9014BF4FF0004300231A436B0103F180431A
S1134AA003F5004341F208015A50364B1B6813F0DA
S1134AB0800F19D06B0103F1804303F5004341F2E9
S1134AC008029A5822F08042E36A5B79002B14BFF3
S1134AD04FF0804300231A436B0103F1804303F535
S1134AE0004341F208015A50E36A264E9A68294667
S1134AF0304600F0D1F9E2692946304600F09EF9CB
S1134B00E26A137B527B2946304600F0EDF9E36AF2
S1134B10997B06EB451641F21C00325A92B2DB7BBC
S1134B201B0203F4706322F4706213433352335A4A
S1134B3023F020031B041B0C002914BF2022002295
S1134B401343104841F21C02B352E36A1A6829461F
S1134B5000F0FFF902B0BDE8F081384641F21C02D2
S1134B60B35A1BB243F010039BB2B352626A294694
S1134B7000F0B4F961E7E2692946024800F05EF901
S1134B80E8E700BF0080004010B50446064A1368F9
S1134B9043F080031360FFF70AFF044B1B6853F8CC
S1134BA024300020187310BD008000409C000020B9
S1134BB02DE9F04F95B0039093469946DDF878803F
S1134BC01F9D9DF8803000931F3121F01F0A5F4B19
S1134BD01B6853F8203000241C73012707FA0BF2DA
S1134BE00192BDF80430B9FBF3F603FB1696311BB2
S1134BF018BF01210291302104A8FFF743FB1021C3
S1134C0010A8FFF73FFB089409948DF828408DF80D
S1134C1029408DF818B08DF819B0CDF82C908DF886
S1134C2038708DF8307010A90F918DF844408DF8CC
S1134C3045408DF84C408DF84E400098002874D0C3
S1134C40002E72D1D8F8003004932B680593D8F85D
S1134C5004306A6893426CD198F808102A7A914219
S1134C606AD14646AAF12007A346BDF90420029260
S1134C7000F1FF3A5FFA8AFA2AE0ADF81AB0BDF8FB
S1134C800430ADF81C30A2450EBFCDF834B007F1A6
S1134C9020030D93002C41D0394604A8FFF740FEB1
S1134CA00134E4B2009BA3423DD0D8F80C30049305
S1134CB02946EB680593D8F810302A6993423ED10F
S1134CC00C360C35203798F814000A7D904239D1FF
S1134CD0B3FBF9F30F9A1360B046337A032BD2D89F
S1134CE001A252F823F000BF7B4C0000F94C0000F5
S1134CF0074D0000134D0000BDF80430ADF81A3024
S1134D00ADF81CB0BFE7029BADF81A30ADF81C300B
S1134D10B9E7ADF81AB0ADF81CB0B4E704A903982C
S1134D20FFF745FEBCE700230293029815B0BDE8E7
S1134D30F08F01230293F8E701230293F5E701239F
S1134D400293F2E701230293EFE700BF9C000020E7
S1134D50024B1B6853F82030187B70479C000020DE
S1134D600048704700800040036843F40033036048
S1134D70036813F4003FFBD17047036843F48033A6
S1134D800360036813F4803FFBD170470AB90176CE
S1134D907047417670470AB981767047C17670478B
S1134DA000EB4111002341F208028B5001F58052BF
S1134DB0136041F204028B5241F206028B5241F21B
S1134DC00C028B5041F210028B5041F214028B52B0
S1134DD041F216028B5241F218028B5041F21C022E
S1134DE08B5241F21E028B52704738B50546036858
S1134DF023F4403323F0C60303600024E1B22846C1
S1134E00FFF7CEFF0134102CF8D138BD10B4DB000D
S1134E10DCB29DF8083003F00703234343EAC223BE
S1134E209DF80420120202F4E06213439BB2803125
S1134E3000EB4111CB805DF8044B7047036813F01D
S1134E40800F13D010B400EB411341F208041B5936
S1134E50002B11DB00EB41131B5913F0804F0BD1D6
S1134E6022F0404200EB4110025112E000EB4110ED
S1134E7041F20803C250704700EB411041F20801AF
S1134E80435823F47F7323F00303C2F309021A4344
S1134E9042505DF8044B7047036813F0800F18D03C
S1134EA030B400EB411341F208041D591B5913F0AF
S1134EB0804F01D1002D0BDA00EB411041F20804C0
S1134EC0035904491940044B03EA82220A4302515C
S1134ED030BC7047FF0300C000FCFF3F00EB4111F2
S1134EE041F21803CA50704730B400EB411541F247
S1134EF01E042C5BC4F30E04FBB144F400442946A5
S1134F0041F21E054C5341F216000B5A6FEA43431B
S1134F106FEA53439BB20B524B5B9BB2520202F4B7
S1134F20F05223F4F05313434B530B5A9BB223F424
S1134F30F0531A430A5230BC704700EB411141F25E
S1134F401E03CC5241F216028B5AC3F30E038B524A
S1134F50F1E710B400EB411441F21E03E35A13F4D9
S1134F60004F14D100EB411141F21E000B5AC2F361
S1134F700E0203F4004313430B5241F216000B5A82
S1134F8003F400431A430A525DF8044B704741F29C
S1134F901E00235AC2F3080203F47E431343235230
S1134FA041F21600235A03F47E431A432252EBE7DC
S1134FB000EB411241F21E03D35A13F4004F07D100
S1134FC000EB411041F21603C05AC0F30E007047C3
S1134FD041F21603D05AC0F30800704700231A4662
S1134FE0C2540133102BFBD1704700BF08B5002019
S1134FF0FFF7A2F908BD08B50120FFF79DF908BD28
S113500008B50220FFF798F908BD08B50320FFF79B
S113501093F908BD08B50420FFF78EF908BD08B55B
S11350200520FFF789F908BD08B50620FFF784F9C4
S113503008BD08B50720FFF77FF908BD08B50820AB
S1135040FFF77AF908BD08B50920FFF775F908BD1F
S113505008B50A20FFF770F908BD08B50B20FFF763
S11350606BF908BD08B50C20FFF766F908BD08B553
S11350700D20FFF761F908BD08B50E20FFF75CF9B4
S113508008BD08B50F20FFF757F908BD38B5002053
S1135090FFF766FEC56A002404E06D080134E4B23B
S11350A0102C06D015F0010FF7D02046FFF75AF95F
S11350B0F3E738BD08B500F083FD08BD62B110B454
S11350C0531EDCB2431E204411F8012B03F8012FB8
S11350D08342F9D15DF8044B70476AB130B4551E70
S11350E0EDB2431E441911F8012B03F8012FA3421A
S11350F0F9D10135284430BC70477AB170B4561EDA
S1135100F6B2431E85190A4612F8014B03F8014F03
S1135110AB42F9D10136881970BC70470846704714
S113512008B50222FFF7E9FF08BD08B50422FFF71E
S1135130E4FF08BD00B583B002AB23F8021D0222D0
S11351401946FFF7CAFF03B05DF804FB00B583B04E
S113515002AB43F8041D04221946FFF7BEFF03B057
S11351605DF804FB70B48D1882B1531EDBB24C1E83
S1135170194415F8012B037823EA020314F8016F8C
S11351803240134300F8013B8C42F2D170BC7047AB
S1135190014B1870704700BFA000002000B583B019
S11351A00191084B1B7833B9022201A9FFF795FF3F
S11351B003B05DF804FB04220DEB0201FFF78DFF41
S11351C0F6E700BFA000002008B5054B1B781BB90B
S11351D00222FFF792FF08BD0422FFF78EFF08BDED
S11351E0A000002070B590B0224DB5F85E40A40038
S11351F004F1804404F5CA24236843F08043236007
S11352001D4E02220621304606F070F8236843F052
S11352108043236002220721304606F067F8B5F880
S113522096204FF08641154B43F822104FF461430A
S1135230009300238DF806308DF804308DF8053086
S11352406A4603A9012005F001F80D4A936943F465
S113525000239361936913F4002FFBD0084A9369E8
S113526043F480239361936913F4802FFBD010B02F
S113527070BD00BFD0EF000000B0044000500640F5
S113528000B0064008B50E21212002F0BDFE002228
S11352900349212002F068FE212002F085FE08BDAA
S11352A0B550000008B500F0B1FB00F089F900F03A
S11352B06BFD003018BF012008BD10B5002303703A
S11352C00322427083700122C27002220271437170
S11352D03A238371C41D00F0C7FA01462046FFF744
S11352E029FF48F26401FFF725FF00F11901064A7E
S11352F001E0814206D0137800F8013B002BF8D07E
S11353000132F6E710BD00BF0CF2000030B583B0E7
S113531004468578C11C01A8FFF756FF3A2D05D92C
S11353202046842300F8013B03B030BD204600230F
S113533000F8013B2A460199FFF7CFFEF4E770B568
S113534082B005460E46441C214601A8FFF73CFFE7
S113535000232B70324601992046FFF7BEFE02B0AF
S113536070BD30B583B004468578C11C01A8FFF731
S11353702BFF2A4601460198FFF7BFFE2046002373
S113538000F8013B03B030BD70B582B005460E464F
S1135390441C214601A8FFF717FF32460146019835
S11353A0FFF7ABFE00232B70204602B070BD30B572
S11353B083B004468578C11C01A8FFF705FF2A467F
S11353C001460198FFF7CEFE2046002300F8013B7A
S11353D003B030BD10B504460020FFF7D9FE237892
S11353E0C12B5DD00BD9C92B69D021D8C32B53D085
S11353F05AD3C52B0CD1204600F046FB25E0062BE2
S113540064D00AD90B2B53D0C02B66D00A2B3CD0C6
S11354102046812300F8013B17E0042B2ED0052BF6
S1135420F6D10120FFF7B4FE2046FFF79AFF0CE007
S1135430E12B13D0E22B19D0E02BE9D10120FFF7A7
S1135440A7FE01212046FFF77AFFA04249D0011BA5
S1135450C9B2204600F04EFB012010BD0120FFF729
S113546097FE02212046FFF76AFFEEE70120FFF7CF
S11354708FFE04212046FFF762FFE6E70120FFF7D5
S113548087FE2046FFF742FFDFE70120FFF780FE9B
S1135490204600F0BCFAD8E7204600F0D1F9D4E762
S11354A0204600F07DF9D0E7204600F0AFF9CCE7C4
S11354B00120FFF76DFE204600F097F8C5E70120B4
S11354C0FFF766FE204600F0E3F9BEE70120FFF790
S11354D05FFE2046FFF76BFFB7E72046FFF7EDFEC0
S11354E0B3E7002010BD70B582B005460E46441CDB
S11354F0214601A8FFF768FE324601460198FFF7EE
S113550031FE00232B70204602B070BD037843B1F6
S113551003460020013080B213F8012F002AF9D18C
S113552070470020704700BF054B1A6892F90000CD
S113553093F904309842B4BF00200120704700BFA3
S1135540A4000020044B1A6810781B79984234BFD9
S113555000200120704700BFA4000020054B1A68FA
S1135560B2F90000B3F904309842B4BF002001201E
S1135570704700BFA4000020044B1A6810889B8861
S1135580984234BF00200120704700BFA4000020CF
S1135590044B1A6810685B689842B4BF002001206D
S11355A0704700BFA4000020044B1A6810685B68B1
S11355B0984234BF00200120704700BFA40000209F
S11355C00022034B1A70034A034B9A60704700BFD2
S11355D080280020B8000020A40000200022014BF5
S11355E01A7070478028002070472DE9F04707465D
S11355F000224F4B1A704F4C4F4BA36082784F4B95
S11356001A70C11C4E48FFF78BFD01464D48FFF749
S113561087FD01464C48FFF783FD01462046FFF70E
S1135620D3FD0378237343786373811C201DFFF734
S11356307CFD0678454B1E70731EDBB2072B62D8C7
S1135640002E6CD0013000252E46DFF82091DFF8C3
S11356502081DFF8F8A0014611F8014B09F8054054
S11356602644F6B208EB8500FFF7AEFD013CE4B238
S1135670072C4ED80135EDB29AF80030AB42EAD887
S113568000222C4B1A612D4B1B78B3B1294B5B7B49
S113569013F0020F3FD1274A127B022A21D0042A99
S11356A028D0012A01D086232EE02949294A002B3B
S11356B014BF13460B461F4A1361214B1B8813FB6F
S11356C006F6B6B2B6F5005F27D81A4B9B681E449F
S11356D0214B1E60164A137843F001031370002314
S11356E012E01E491E4A002B14BF13460B46114AF2
S11356F01361E2E71B491C4A002B14BF13460B46F7
S11357000C4A1361D9E78523384600F8013BBDE80C
S1135710F0878623F8E79023F6E78623F4E7002250
S1135720044B1A61054B1B78002BAFD11646CCE70E
S113573080280020A4000020B80000207C2800203D
S11357407428002086280020842800207628002041
S113575045550000295500006828002079550000AF
S11357605D550000A9550000915500006C280020EB
S113577044280020074B1B6813F0040F08D1054A86
S1135780137843F004031370034B1A88034B1A80F5
S1135790704700BF80280020862800207A28002037
S11357A0154B1B6813F0010F1FD0134B1B6813F02C
S11357B0020F1ED1114B9A68114B1A600023114A33
S11357C01380114A13800C4A117863F3820111701B
S11357D0117863F304111170117841F0080111700C
S11357E0117841F00201117000E0882300F8013BB8
S11357F070470123FAE700BF80280020A40000209E
S113580088280020642800207828002010B5044649
S11358100A4B1B6813F0010F0AD0084B1B6813F0E6
S1135820020F01D1022304E0FFF7A4FF002300E0EC
S11358308823204600F8013B10BD00BF80280020CB
S1135840084B1B68C3F34003002B14BF012302233E
S1135850044A126802F00102002A08BF882300F8F3
S1135860013B7047802800204FF400507047074ADE
S11358709368834207D8084403F50053834234BF36
S11358800020012070470020704700BFA4000020C2
S1135890124B1B6813F0010F08D0104B1B6813F058
S11358A0020F07D0872300F8013B7047882300F8D4
S11358B0013B704700B583B0002300F8013B019021
S11358C00198074B9968FFF769FC01900198054B13
S11358D01988FFF72FFC03B05DF804FB8028002033
S11358E0A4000020642800203C4B1B6813F0020F26
S11358F000D170473A4B1B88002B52D12DE9F0415F
S1135900384B1A88364B1A80374B1B78ABB10024BE
S1135910DFF8F480354F364D18F80460324657F8F6
S113592024102868FFF7CAFB2A6832442A6001342D
S1135930E4B22D4B1B78A342EED82E4A13880133D0
S113594013802B4B1A682C4B1B689A420BD32B4B9E
S11359509A68274B1A60214A13786FF3C3031370B4
S11359600022244B1A801D4B1B6813F0080F2CD106
S11359701A4B1B6813F0040F1CD1204B1B69CBB1CD
S113598098471F4B1B78022B04BFB0FA80F04009E4
S113599058B1124B1B6813F0100F0BD0FFF7EAFE3F
S11359A008E0013B0E4A138070470C4A137843F019
S11359B010031370094B1B6813F0040F05D0114B2F
S11359C01B8823B1013B0F4A1380BDE8F081034AD1
S11359D013786FF341031370BDE8F0818028002031
S11359E078280020842800207628002044280020DD
S11359F0882800206428002068280020A4000020B3
S1135A007C2800207A2800206C28002070472DE98B
S1135A10F84300221B4B1A7090F8029009F1FF38EA
S1135A205FFA88F3072B22D80746B9F1000F15D087
S1135A300330144D05F10408EE1C0C35984401465E
S1135A4011F8014B06F8014F2846FFF7BDFB013C56
S1135A50E4B2072C10D804354645F0D1094B83F83D
S1135A6000903846002300F8013BBDE8F883852305
S1135A7000F8013BBDE8F8833846862300F8013B73
S1135A80BDE8F883B820002038B50C4B1B7883B1EF
S1135A90002400F8014B094D2A1905EB84031279FF
S1135AA0D968FFF71AFB0134E4B22B78A342F3D888
S1135AB038BD882300F8013B38BD00BFB820002062
S1135AC00A4B002119701A7961F300021A711A79CC
S1135AD061F341021A71064B1A6822F400021A603B
S1135AE01A6842F400121A60704700BFE4200020D4
S1135AF018B0064010B483B01A4B98600C4671B3CA
S1135B000139C9B201310144002310F8012B1344B7
S1135B10DBB28842F9D15B420370124B01341C732F
S1135B201A7942F001021A711A796FF341021A715B
S1135B301A796FF382021A710B4B1B6801932B22A3
S1135B400A4B1A60043B1A6822F400121A601A689D
S1135B5042F400021A6003B05DF8044B704700235E
S1135B60D9E700BFE420002014B006401CB0064072
S1135B7010B5124B1B7BE3B1104A92681178017087
S1135B802B2906D00D49013B0B7301328A6000209A
S1135B9010BD0A484168C1F3800181F00101047914
S1135BA061F382040471416811F0040FEAD000200B
S1135BB010BDFFF785FF012010BD00BFE4200020C9
S1135BC010B582B01C4B1C6804F420021A601B4BF5
S1135BD05B6813F0010F16D014F4000F08D114F40D
S1135BE0001F13D0164B1B68DBB2ADF806300DE076
S1135BF00DF10600FFF7BCFF0028F0D19DF8062048
S1135C000F4B1A60EBE714F4001F01D102B010BD72
S1135C100B4B1968C9B2094A52F8300F431C93421E
S1135C20084A28BF1346103A526B9A42EED00170CC
S1135C30024A1363EAE700BF14B00640E4200020E0
S1135C401CB00640F420002008B52B2827D04B4B6D
S1135C505B6813F0080F45D0484B03F13D029A638B
S1135C6083F83C0083F8790000221A701A7942F014
S1135C7010021A71C34313F0C00F09D13F4A1379BC
S1135C806FF304131371C00800F0060001301070A4
S1135C903A4A13796FF3C3031371002008BD374ADE
S1135CA05368C3F3C00383F00103117963F3C301A1
S1135CB01171536813F0080F59D1304B5B6813F01E
S1135CC0080F0FD02D4B03F13D029A632B2283F86A
S1135CD03C2083F8792000221A701A7942F01002CD
S1135CE01A71D5E7254B5B6813F0100F06D0234AD1
