S01E0000466F635F6D6F64656C5F4D61746C61625F756C74696D6F2E6D6F7432
S21400000000700020B50400001D0500001D0500005E
S2140000101D0500001D0500001D0500000000000075
S2140000200000000000000000000000001D050000A9
S2140000301D050000000000001D05000049B000007E
S214000040815500008B550000955500009F55000017
S214000050A9550000B3550000BD550000C755000067
S214000060D1550000DB550000E5550000EF550000B7
S214000070F9550000035600000D5600001756000004
S214000080215600001D0500001D0500001D0500008E
S2140000901D0500001D0500001D0500001D050000D3
S2140000A01D0500001D050000E18E0000EB8E00001F
S2140000B0F58E00001D0500001D0500001D05000052
S2140000C01D0500001D0500001D0500001D050000A3
S2140000D01D0500001D0500001D0500006DAF000099
S2140000E077AF00001D0500001D0500001D0500007F
S2140000F01D0500001D0500001D0500001D05000073
S214000100D1AF00001D0500001D0500001D05000004
S2140001101D0500001D0500001D0500001D05000052
S2140001201D0500001D0500001D0500009983000048
S214000130D183000009840000418400007984000017
S2140001401D0500001D0500001D0500001D05000022
S2140001501D0500001D0500001D0500001D05000012
S2140001601D0500001D0500001D0500001D05000002
S2140001701D0500001D0500001D0500001D050000F2
S2140001801D0500001D0500001D0500001D050000E2
S2140001901D0500001D0500001D0500001D050000D2
S2140001A01D0500001D0500001D0500001D050000C2
S2140001B01D0500001D0500001D0500001D050000B2
S2140001C01D0500001D0500001D0500002579000026
S2140001D0317900003D79000049790000F97000008F
S2140001E01D05000055790000617900006D7900005A
S2140001F079790000397100001D050000857900003E
S214000200917900009D790000A979000079710000BD
S2140002101D050000B5790000C1790000CD79000009
S214000220D9790000B97100001D0500001D05000009
S2140002301D0500001D0500001D0500001D05000031
S2140002401D0500001D0500001D0500001D05000021
S2140002501D0500001D0500001D0500001D05000011
S2140002601D0500001D0500001D0500001D05000001
S2140002701D0500001D0500001D0500001D050000F1
S2140002801D0500001D0500001D0500001D050000E1
S2140002901D0500001D0500001D0500001D050000D1
S2140002A01D0500001D0500001D0500001D050000C1
S2140002B01D0500001D0500001D0500001D050000B1
S2140002C01D0500001D0500001D0500001D050000A1
S2140002D01D0500001D0500001D0500001D05000091
S2140002E01D0500001D0500001D0500001D05000081
S2140002F01D0500001D0500001D0500001D05000071
S2140003001D0500001D0500001D0500001D05000060
S2140003101D0500001D0500001D0500001D05000050
S2140003201D0500001D0500001D0500001D05000040
S2140003301D0500001D0500001D0500001D05000030
S2140003401D0500001D0500001D0500001D05000020
S2140003501D0500001D0500001D0500001D05000010
S2140003601D0500001D0500001D0500001D05000000
S2140003701D0500001D0500001D0500001D050000F0
S2140003801D0500001D0500001D0500001D050000E0
S2140003901D0500001D0500001D0500001D050000D0
S2140003A01D0500001D0500001D0500001D050000C0
S2140003B01D0500001D0500001D0500001D050000B0
S2140003C01D0500001D0500001D0500001D050000A0
S2140003D01D0500001D0500001D0500001D05000090
S2140003E01D0500001D0500001D0500001D05000080
S2140003F01D0500001D0500001D050000FFFFFFFF96
S214000400FFFFFFFFFFFFFFFFFFFFFFFFFE7FFFFF78
S214000410044B05481B1A062B02D9044B03B1184798
S214000420704700BF9F89FF1F9C89FF1F00000000C8
S21400043005490648091A891001EBD171491002D006
S214000440034B03B1184770479C89FF1F9C89FF1F09
S2140004500000000010B5064C237843B9FFF7D8FF1C
S214000460044B13B10448AFF300800123237010BD82
S2140004700000002000000000EC0C010008B5084B4E
S2140004801BB108490848AFF300800848036813B951
S214000490BDE80840CCE7064B002BF9D09847F7E7B5
S2140004A00000000004000020EC0C01009889FF1FEB
S2140004B00000000072B64FF000014FF000024FF04F
S2140004C000034FF000044FF000054FF000064FF019
S2140004D00007B846B946BA46BB46BC460A490B4A68
S2140004E0521A013A05DD0020042308601944043A34
S2140004F0FBDA07488546074880470748804762B6C4
S2140005000AF08CFDFEE700000080FF1F0070002050
S2140005100070002071C6000099C50000FFF7FEBFFE
S21400052070B500200AF0B8FE0646FF2200210846F5
S2140005300AF028FF0546FF22012100200AF022FFCC
S21400054004460F4B1E600F4B1D600F4B18600F4A82
S214000550D36E43F04003D36616B92DB954B970BDB7
S21400056000200AF0A3FEF8E72A46002108460AF013
S21400057017FFF3E72246012100200AF011FFEEE7FD
S214000580BC270020A42700209827002000600240F7
S21400059008B50122064B1A70032007F023FA002143
S2140005A004480CF0B7FA0A2103480BF046F808BDD9
S2140005B0402600204828002000D00440084AD3895E
S2140005C0B3FA83F35B094370138AB3FA83F35B09C8
S2140005D08370538AB3FA83F35B09C370704700BF16
S2140005E01C00002008B507EE900AF8EE677AB3EE16
S2140005F0017A77EEC77A9FED1C7A67EE877A07EE68
S214000600101AB8EE477ADFED196A37EE667A184B9D
S21400061083ED007AB2EE007AF4EEC77AF1EE10FAC5
S21400062013D4B3EE007AF4EEC77AF1EE10FA0CDCCF
S214000630D3ED007A9FED0F7A67EE877A9FED0E7AFC
S214000640F4EEC77AF1EE10FA02DD0C4B1B7803B11C
S21400065008BD032007F0C6F90122084B1A700021D6
S21400066007480CF057FAF3E7410B343C00A002456C
S214000670642600200000043C33331340402600204C
S21400068048280020014B0360704700BF8AAB2A3E13
S214000690014B0360704700BF3BAAAA3E4FF07C5355
S2140006A003607047014B0360704700BFE3AA2A3F10
S2140006B0014B0360704700BF1D55553F0023036084
S2140006C0704710B52DED068BF5EE400AF1EE10FAE8
S2140006D00DD1B5EE400AF1EE10FA0CBFB0EE609AFE
S2140006E0B0EE409AB0EE490ABDEC068B10BDB0EEF7
S2140006F0608AF0EE408A0BF0E7FD18B1524B93ED9E
S214000700009AEFE7B0EE480A0BF0DEFD0028F5D1C0
S214000710B0EE680A0BF0AAFD0028EFD1F5EE408A8D
S214000720F1EE10FA04D1DFED497A87EE889AD9E720
S214000730B0EE480A0BF09AFDA8B1B5EEC08AF1EE0D
S21400074010FA4CBF01230023F5EEC08AF1EE10FA32
S214000750DBB24CBF01220022934214BFB0EE489A8F
S214000760B0EE689ABEE718EE100A0CF091FF41EC66
S2140007701A0B18EE900A0CF08BFFB0EE4A1AF0EE49
S2140007806A1A41EC100B0DF09FFD51EC100B0DF0AA
S214000790AFFA09EE100AB5EE409AF1EE10FA0CBF69
S2140007A00124002435D0B0EE4A0AF0EE6A0A0DF0B5
S2140007B0BFFC51EC100B0DF09BFA07EE900AB4EE5E
S2140007C0E78AF1EE10FA24DDC8EE889AF0EEE99A90
S2140007D0F6EE007A79EEA77A17EE900A0CF058FF3C
S2140007E041EC100B0DF0A4FC51EC100B0DF080FA50
S2140007F007EE900A79EEE77AF0EEE77A9FED147A44
S21400080069EE879AF4EEE97AF1EE10FAD4BF012485
S21400081000249CB9F5EEC08AF1EE10FA4CBF012315
S2140008200023B5EEC08AF1EE10FADBB24CBF01220F
S2140008300022934218BF39EE089A53E7DFED030A09
S21400084028EE209A4EE700BF802900200000000016
S21400085000000034F8B5454DB5F85C40A40004F13E
S214000860804404F5CA24236843F080432360404E46
S2140008700222082130460BF003F8236843F0804339
S21400088023600222092130460AF0FAFF236843F06B
S2140008908043236002220A2130460AF0F1FF2368D3
S2140008A043F08043236002220B2130460AF0E8FF23
S2140008B0B5F85E40A40004F1804404F5CA24236819
S2140008C043F08043236006F5805602220A21304614
S2140008D00AF0D6FF236843F08043236002220B21F0
S2140008E030460AF0CDFFB5F87E3006F5D0364FF02C
S2140008F08C4746F823709B0003F1804303F5CA2318
S2140009001A6842F080421A601A4A1B49032006F011
S21400091067FB1A4C00220121204606F0B4FC002298
S2140009200321204606F0AFFC00220521204606F0F3
S214000930AAFCB5F88A3046F8237007F0C1FD104BC4
S214000940012283F886204FF4FA72A3F884200D4A19
S2140009501269DA61B5F882309B0003F1804303F533
S214000960CA231A6842F080421A60F8BDA408010043
S21400097000A0044004290020CC84FF1F0060024031
S214000980F0260020102800200D4B012283F8862038
S2140009904FF4FA72A3F8842000221A665A669A6602
S2140009A0DA661A67074A1269DA61002283F8882035
S2140009B0C3F8802083F8912083F89220704700BF08
S2140009C0F026002010280020074B012283F89020F4
S2140009D083F88B2083F88C2083F88D2083F88E2074
S2140009E083F88F20704700BFF02600202DE9F04FD7
S2140009F02DED108B83B00321002008F03DF96FEA3F
S214000A00000B7A4B93F89030002B40F0B880784B70
S214000A105A68764BDB6FD31A09EE903A734B744ADA
S214000A205268DA67002283F89020724B1A68724B7D
S214000A301A60724E3588ADB271480AF05DFEC0F39A
S214000A404000704C84F828008000DFF8F481C8F875
S214000A500000DFF8F09148460AF04EFEC0F3802012
S214000A6084F829004000684F386048460AF044FE83
S214000A70C0F3C02084F82A00644A1060D8F800301A
S214000A80396812680B441344614A136033889BB27A
S214000A900BB100223280554B93F88630002B71D173
S214000AA0002D14BF4FF001094FF000096DD1554BD2
S214000AB0DB8B002B14BF4FF001084FF0000800F04E
S214000AC025824D4B1A68534B1B889BB292B29A42B2
S214000AD099BF504B1B88484B1B689BB247F61122A8
S214000AE0934200F213824C4B1B889BB22BB9454BAA
S214000AF093F82730002B00F00982484B1B881BB266
S214000B00002B50DD434B1B889BB207EE903AF8EE65
S214000B10677A434B93ED047AC7EE27BADFED417A46
S214000B206BEEA7BA344B1A683A4B1B889BB292B24C
S214000B3007EE902AF8EE676A07EE903AB8EE677A04
S214000B40C6EE877A9FED387A67EE877A9FED3E7A13
S214000B50F4EE477AF1EE10FAC8BFF0EE477A2F4B64
S214000B601B881BB2012B00F0B081294B1B68013B90
S214000B70052B38D8DFE803F02E3431282B6ADFED5A
S214000B802B9A4BE73DB14FF001094FF4FA72174B21
S214000B90A3F8842001E04FF00109144BB3F8842039
S214000BA0184BDA8383E71B4B1B889BB207EE903A01
S214000BB0F8EE677A1A4BD3ED046A86EEA77ADFED75
S214000BC019BA6BEEC7BAADE79FED197A40E0B6EEFC
S214000BD0007A3DE09FED177A3AE09FED177A37E00E
S214000BE0B7EE007A34E09FED157A31E0F02600206B
S214000BF01C00002000B0034070260020882700203C
S214000C0000F00F4010280020442800209C280020D8
S214000C108C27002048260020A827002094260020A5
S214000C2088070100CDCC4C3DABAA2A3E0000000050
S214000C303BAAAA3EE3AA2A3F1D55553F00000000E6
S214000C408C260020C0F00F408AAB2A3E1FED027AA9
S214000C5077EE677AC54BC3ED067AC44B9A69C44BE8
S214000C601A60C24BB3F81EA0C14B93ED007ADFEDBD
S214000C70C17AB4EEE77AF1EE10FA00F2C78193ED8E
S214000C80008AF7EE007A38EE278ADFEDBA7A38EE79
S214000C90678A18EE100A0CF0FBFC41EC100B0DF006
S214000CA047FA51EC100B0DF023F807EE900A38EED9
S214000CB0678AB14B83ED008AB04BD3ED007AB04B18
S214000CC093ED007A77EEC77AAE4AC2ED007AAE4B65
S214000CD0D3ED007AAD4B93ED007A77EEC77AC2ED8E
S214000CE0017A92ED007ADFEDAA6A27EE267AA94B02
S214000CF083ED007AD2ED017A67EEA67AC3ED017A2B
S214000D0093ED00AA93ED017AD3ED017A3AEE07AAA5
S214000D103AEE27AADFEDA07A2AEE27AA93ED00BACC
S214000D209E4B93F88B30002B00F078819B4BD3EDD5
S214000D3002AA9FED9BDA2AEE8DDA8F4BD3ED007A6E
S214000D40F5EEC07AF1EE10FA00F178818A4B93ED59
S214000D50007AD3ED007AFDEEE77A17EE903A1BB2F2
S214000D6007EE903AF8EEE77A77EE677A9FED8D7A9F
S214000D7067EE877ABCEEE77A17EE103A9BB207EE7C
S214000D80103AB8EE477A77EEC77A874A02EB8301C5
S214000D90D1ED006A91ED017A37EE667A27EE277A72
S214000DA037EE267A814981ED007A02EB8300D0ED9A
S214000DB0C86A90EDC97A37EE667A67EE277A77EEDC
S214000DC0A67A7B4BC3ED007AD3ED007A714B93ED98
S214000DD0007AD1ED006A6AEE277A27EE267A77EE59
S214000DE0C77A744BC3ED007A734AD2ED017A93ED5D
S214000DF0007A77EEC77A714BC3ED007A704BD3ED6D
S214000E00007AB7EE007A77EE677AC7EE278A9FED0C
S214000E106D7A28EE877ADFED6C7A67EE277ADFED5B
S214000E206B6A67EEA67A9FED6A6A77EEC67A27EE59
S214000E30077A67EE266A87EEA67AC7EE876A27EEF7
S214000E40267A644B1C78E4B2544B93F8913003B185
S214000E502CB9524B00225A67012283F89120574B37
S214000E60D3ED006A67EEA67A4C4B93ED1D6A67EEEB
S214000E70066A76EEA76AF7EE005AF4EEE56AF1EE39
S214000E8010FA00F1F680F7EE005AF4EEE56AF1EE9D
S214000E9010FA08DB494BD3ED005AF5EEC05AF1EED6
S214000EA010FA00F1EE80FFEE005AF4EEE56AF1EE7D
S214000EB010FA00F2EE80414BD3ED006AF5EEC06A00
S214000EC0F1EE10FA00F3DD80E3E0434B1B68013BD4
S214000ED0042B18D8DFE803F00E1411030B009FED67
S214000EE03F7A77EE877A214BC3ED067AB5E69FED1B
S214000EF03C7AF6E7B6EE007AF3E79FED3A7AF0E74B
S214000F009FED397AEDE79FED3D7AEAE7324B1B68B5
S214000F10013B052B74D8DFE803F016231C091003E9
S214000F20324A134B1A60DFED35BA9AE64FF07A5222
S214000F300F4B1A60DFED31BA93E62D4A0C4B1A6060
S214000F40DFED2EBA8DE62B4A094B1A60DFED2BBA81
S214000F5087E64FF07D52064B1A60DFED28BA80E632
S214000F60254A034B1A60DFED25BA7AE610280020E2
S214000F70D4270020F8C2343FB02600204C2600209C
S214000F80B426002078260020A0270020A8260020CF
S214000F900000003A802800203ACD133FF0260020BB
S214000FA0DB0FC94000004844E0F700005C26002044
S214000FB060260020B82700208026002090270020EA
S214000FC04028002040F3B644F4FDB43FB610E439A0
S214000FD096FC223F942700208C2700208AAB2A3ECE
S214000FE03BAAAA3EE3AA2A3F1D55553F7EAAAA3D24
S214000FF0C555D53E1D55153FE3AA6A3F00000000C3
S2140010005FED02BACC4BC3ED00BA2AE6CA4B93EDAD
S214001010008ADFEDCA7A38EE678A3AE6F8EE69AA01
S214001020DFEDC77A6AEEA7AAC64BD3ED187A6AEE4A
S214001030A7AAD3ED027A7AEEA7AA7AE693ED008AFB
S21400104018680CF025FB41EC100B0DF071F851EC14
S214001050100B0CF04DFE07EE900AFDEEE77A17EE49
S214001060903A1BB207EE903AF8EEE77A78EE677A97
S2140010707CE6FFEE005AF4EEE56AF1EE10FA7FF732
S21400108002AFB14BD3ED006A36EE266AAD4B83ED68
S2140010901D6AAC4BD3ED1D6A27EE267A77EE277ACB
S2140010A0AA4BC3ED007A93ED007AFFEE007AB4EE19
S2140010B0E77AF1EE10FABCBF17EE902A1A60A34B3F
S2140010C093ED007AF7EE007AB4EEE77AF1EE10FAD6
S2140010D084BF17EE902A1A603BEEAB9A9C4BD3ED7A
S2140010E0007A9C4BD3ED006A9B4B93ED007A67EE3B
S2140010F0A67A2AEE077A77EE877A984DC5ED007ABB
S214001100924B93ED008AD5ED00CA19EE100A0CF04A
S214001110BFFA87A3D3E900230CF012FB0CF0E8FD1E
S21400112007EE900A37EE888A69EE2CCADFED8C6AE5
S2140011306CEEA6CA38EE2C8A8A4BD3ED007A95ED73
S214001140007A77EEC77A884BC3ED007A9FED877AF0
S21400115028EE877ADFED867A67EE277A67EEA67A3C
S2140011609FED846A77EEC67A27EE077A27EE267A10
S214001170C7EE876A87EEA67A26EE877A714B93F8D3
S214001180923003B12CB96F4B00229A67012283F884
S2140011909220754BD3ED006A67EEA67A694B93ED05
S2140011A01E6A67EE066A76EEA76AF7EE005AF4EE57
S2140011B0E56AF1EE10FA1ED4F7EE005AF4EEE56A90
S2140011C0F1EE10FA07DB684BD3ED005AF5EEC05A85
S2140011D0F1EE10FA16D4FFEE005AF4EEE56AF1EEE0
S2140011E010FA17D8604BD3ED006AF5EEC06AF1EE40
S2140011F010FA07DC0EE0FFEE005AF4EEE56AF1EEB8
S21400120010FAD9DD584BD3ED006A36EE266A4D4B00
S21400121083ED1E6A4B4BD3ED1E6A27EE267A77EED9
S214001220277A554BC3ED007A93ED007AFFEE007AED
S214001230B4EEE77AF1EE10FABCBF17EE902A1A6009
S2140012404D4B93ED007AF7EE007AB4EEE77AF1EEC6
S21400125010FA84BF17EE902A1A60474BD3ED008A27
S214001260464B93ED00CA29EE0C9A9FED45CA29EE2F
S2140012700C9A78EEC98A68EEA87A28EE087A77EE95
S214001280877A9FED407AF4EEC77AF1EE10FA34DCF6
S214001290304A92ED009A304BD3ED007A28EE899AC8
S2140012A068EE277A39EE679A92ED00CA28EE0C8A25
S2140012B093ED00CA28EE8CCA3CEE08CAB6EE007A59
S2140012C029EE077A9FED308A6CEE087A77EEC78AA9
S2140012D09FED2E8A38EE478A38EE678AB0EE680AA7
S2140012E00AF0F2FFB4EEE89AF1EE10FA54DA0028AB
S2140012F040F0A882F0EE68DA50E017EE900A0CF0A4
S214001300C7F941EC100B0DF043F851EC100B0CF044
S214001310EFFC07EE100ADFED1E7A68EEA76AC6EE4F
S214001320878A68EE277A87EE878AB1E7AFF3008070
S2140013303B70B89E4C5F803FD4270020F8C2343FF5
S21400134017B7D138F02600209027002088260020E6
S21400135080280020602600205C260020A42800208C
S214001360A69BC4398026002074260020E438D44486
S214001370F4FDB43F96FC223F50260020B8270020FC
S214001380B610E4393D0A673FD7B35D3F0000000062
S2140013903333733F3ACD933FF0EE49DAB4EEE89A32
S2140013A0F1EE10FA40F2538200280CBFF0EE68CA45
S2140013B0F0EE49CAB0EE480A0AF086FFB4EEED8AAF
S2140013C0F1EE10FA02D950B9F0EE48DAF4EEC8CAD7
S2140013D0F1EE10FA03D9002808BFF0EE48CA7CEEFA
S2140013E0AD7ABEEE007A67EE877A39EE277A5FED41
S2140013F0175A27EE257AB7EE006A37EE067AF6EE2B
S214001400006A27EE267ADC4B83ED007A78EEA78A10
S21400141068EEA58A78EE868A68EEA68AC3ED018A0B
S21400142038EE278A28EE258A38EE068A28EE268A9F
S21400143083ED028AD14B1B78DBB207EE903AF8EECA
S214001440677ACF4BC3ED007AD3ED007AF4EEE67AF6
S214001450F1EE10FAC0F2FE81C74A1168C94B196056
S2140014605168596092689A60C64ED6ED007A9FED34
S214001470C68A67EE887AFCEEE77A01250195002495
S214001480009417EE903A9BB222462146032006F0BF
S2140014902FFBD6ED017A67EE887AFCEEE77A0195A7
S2140014A0009417EE903A9BB222460221032006F0E3
S2140014B01FFBD6ED027A67EE887AFCEEE77A019596
S2140014C0009417EE903A9BB222460421032006F0C1
S2140014D00FFB04F0D3FCAD4BC3ED00BAAC4B93F856
S2140014E08C30002B00F0BC81A94BD3ED038AA84BAF
S2140014F093F88D30002B00F0C381A54B93ED048A42
S21400150038EECBBA38EE4AAAF0EECBCA1CEE900AFA
S2140015100CF0BEF806460F4693A3D3E900230CF062
S2140015209FFB002840F0BC81DFED9A7ACCEEA7BA8C
S214001530F0EECACA1CEE900A0CF0AAF841EC1F0B9B
S21400154089A3D3E900230CF08BFB002840F0C1816F
S214001550DFED907A8CEEA7BA8D4B93F88E30002B89
S21400156000F0D0818A4B93ED05AA894B93F88F3013
S214001570002B00F0D781864BD3ED069A864CD4ED2F
S21400158000DA47EC106B0CF003FFD4ED01EA51ECE7
S214001590100B0CF0ADFB07EE900A67EEADCA6CEED2
S2140015A0ABCA6AEE2E7A7CEEA7CAB0EE4F0AF0EE11
S2140015B06F0A0CF0EDFE51EC100B0CF099FB07EEE9
S2140015C0900A67EEADDA6DEE8BDA69EEAEEA7DEE86
S2140015D0AEDA1DEE100A0CF05BF841EC1E0B41EC87
S2140015E0100B0CF061FD57EC106BB0EE4E0AF0EEEF
S2140015F06E0A0CF021FE55EC104B304639460CF0C6
S21400160077FB07EE900A27EEACEADFED6BEA3EEEDC
S214001610CEEA204629460CF06BFB07EE900A67EEF2
S214001620AD7A3EEE67EA554B1B78DBB2002B0CBF5B
S21400163001270027594BC3ED04EA03D0544B93F916
S214001640883013B10022524BDA61534B93ED03FA04
S2140016502EEE0FFA4E4BD3ED077A3FEE27FAF7EE53
S214001660007AB4EEE7FAF1EE10FA40F36B817FEE03
S21400167067EA494BD3ED027A2EEE27EADFED480AF9
S214001680B0EE4D0AFFF71DF8DFED467A20EE270A8A
S214001690DFED457A20EE270AFCEEC07A17EE905A68
S2140016A03B4AD2F8806006F1080352F82330EB1A62
S2140016B007EE903AF8EEE77A9FED3C7A67EE877A87
S2140016C0364BC3ED057A82F88680B9F1000F03D059
S2140016D00AF1FF33A2F884302D4B002283F88B20CA
S2140016E0C3ED02AAF7EE007AB4EEE7FAF1EE10FACE
S2140016F040F33681C3ED187A254C4FF0000884F885
S2140017008C80C4ED038A19EE100A0BF0C1FF18A3F3
S214001710D3E900230CF014F80CF0EAFADFED24AA63
S21400172068EEAA8A07EE900A77EEA88A9FED219ABD
S2140017306CEE89CA78EEECCAC4ED19CA84F88D80BE
S21400174084ED048A1CEE100A0BF0A2FF08A3D3E96E
S21400175000230BF0F5FF0CF0CBFA28EE2A8A07EEF2
S214001760900A37EE888A29E02D431CEBE2361A3FB2
S2140017705555555555D5A440AC2700209427002034
S214001780A4260020C827002000000047AC26002022
S214001790F026002017B7D13888070100102800204F
S2140017A0DB0F494183F9A23D0000804F0000F03175
S2140017B0BC3BD4C4ABAA2645000000006DEE89DA17
S2140017C078EE6DDAC4ED1ADA84F88E8084ED05AA18
S2140017D0C4ED1BBA84F88F80C4ED069A84ED1CBA5B
S2140017E0F5EEC0EAF1EE10FA40F3C980B5EE40EA35
S2140017F0F1EE10FA5FED107AC8BFB0EE67EA6A4BFA
S214001800D3ED077A37EE8EEA83ED07EA83F8887021
S21400181006F1080243F82250082E40F2C08000224B
S214001820614BC3F880200321002007F025FAC1434E
S214001830584606F05DFE5D4B186003B0BDEC108B9D
S214001840BDE8F08FF0EE49DAF0EE49CAB2E5F0EE08
S21400185049CAAFE5564B00221A605A609A6003E602
S214001860F8EE698ADFED537A68EEA78A4E4BD3ED21
S214001870197A68EEA78AD3ED037A78EEA78A36E659
S214001880B8EE698ADFED4B7A28EE278A464BD3ED11
S2140018901A7A28EE278AD3ED047A38EE278A2FE6BE
S2140018A0B0EE4B0A0AF010FD18B1434BD3ED00BA68
S2140018B03EE6B5EEC0BAF1EE10FA07D4DFED3F7A99
S2140018C0F7EE00BAD8BFF0EE67BA31E6FFEE00BA20
S2140018D02EE6B0EE4A0A0AF0F7FC18B1364B93ED46
S2140018E000BA39E6B5EEC0AAF1EE10FA07D4DFED7D
S2140018F0337AB7EE00BAD8BFB0EE67BA2CE6BFEEC2
S21400190000BA29E6B8EE69AADFED2A7A2AEE27AAF7
S214001910254BD3ED1B7A2AEE27AAD3ED057A3AEEAD
S21400192027AA22E6F8EE699ADFED227A69EEA79AF0
S2140019301D4BD3ED1C7A69EEA79AD3ED067A79EEA5
S214001940A79A1BE6FFEE007AB4EEE7FAF1EE10FA7D
S214001950BABFF7EE00EA7FEE2EEADFED18EA88E679
S214001960FFEE007AB4EEE7FAF1EE10FA03D40E4B6F
S21400197083ED18FAC0E60C4BC3ED187ABCE6B5EE5C
S214001980C0EAF1EE10FA3FF73AAFF5EE40EAF1EEB4
S21400199010FADFED0A7A18BFB0EE67EA2FE70136D5
S2140019A0C3F880603FE700BFF026002074290020BF
S2140019B0C827002017B7D138802900200000000073
S2140019C030B583B00DF102020221012000F0BCFF09
S2140019D0274CBDF80230236001AA0221012000F046
S2140019E00FFFBDF8063084F826300321002007F0EC
S2140019F043F905461F4AD36E23F04003D366002002
S214001A0000F08CFF6A460021084600F09DFFBDF8F6
S214001A100020194B1A602268184B1A60012000F04B
S214001A207DFF6A460021012000F08EFFBDF80030E1
S214001A30134C2360012000F071FF6A46012108461E
S214001A4000F082FFBDF800200E4B1A60206819686F
S214001A50FEF7C8FDFEF7CAFF0321002007F00CF9C9
S214001A60C143E84306F044FD074B986003B030BD21
S214001A7010280020006002406826002084270020EE
S214001A80982800206C2600207429002010B52DED23
S214001A90048B0321002007F0EFF8C443574B1B7854
S214001AA0DBB207EE903AF8EE677AB6EE007AF4EE1E
S214001AB0C77AF1EE10FACCBF514B524B1A68524B14
S214001AC01A600022514B9A604F4B93ED009ADFED5F
S214001AD0507A29EE279A4B4A92ED008AD3ED007A87
S214001AE038EE678A4B4BD3ED008A4B4BD3ED017A29
S214001AF068EEA78A78EE888A484BD3ED007AB0EE77
S214001B00E87AB4EEE77AF1EE10FA35DC434BD3ED23
S214001B10007A88EEA77A404BD3ED177A27EEC77A7D
S214001B203C4B93ED006A374BD3ED006A3A4BD3ED4E
S214001B30007A79EE677A28EE066A77EE867A9FED67
S214001B40386A67EE867A9FED376A66EE866A77EEC3
S214001B50A67A77EE877ADFED346A87EEA67A2B4B85
S214001B6083ED037AFEEE007AB4EEE77AF1EE10FA31
S214001B7020DAC3ED037A27E0B0EE680A0AF0A4FB89
S214001B8040B12A4B93ED007A234BD3ED177A27EE1C
S214001B90C77AC5E7F5EEC08AF1EE10FA07D4DFED96
S214001BA0247AB7EE007AD8BFB0EE677AECE7BFEEDD
S214001BB0007AE9E7F6EE007AB4EEE77AF1EE10FA8C
S214001BC002D9124BC3ED037A134B83ED009ADFED77
S214001BD0197A28EE278AD3ED017A37EE888A83EDC4
S214001BE0018A0321002007F047F8C143204606F08B
S214001BF07FFC114B5860BDEC048B10BD9427002071
S214001C0090260020902800209826002010280020EB
S214001C1000007A4458260020F0260020C427002022
S214001C209C53493795BFD633F0A7C63D8029002080
S214001C30000000006F12833A74290020124BDB89E3
S214001C4001339BB2012B15D900220F4BDA810E4BC4
S214001C501B8A01339BB2132B0FD80B4A13820A4BF5
S214001C605B8A01339BB2B3F5FA6F0AD30022064BA8
S214001C705A827047044AD381E9E70022024B1A824F
S214001C80EDE7014A538270471C00002010B53B4B1D
S214001C901B889BB23A4A13803A4A92F887305BB266
S214001CA05B0003F1120102EB810108683649086007
S214001CB0133302EB83031B684B60344BD3ED007A7F
S214001CC0F8EE677A324BC3ED007A324BD3ED007AEA
S214001CD0F8EE677A304BC3ED007A304B1B78E3B9E9
S214001CE02F4C4FF48031204609F002FD4FF400419E
S214001CF0204609F0FBFC234B93F88930CBB1214BEF
S214001D0093F88A30012B1BD002221E4B83F88A20C0
S214001D10244A53680133536010BD214C4FF4803180
S214001D20204609F0E3FC4FF40041204609F0E0FCB1
S214001D30E1E7144B012283F8892083F88A20E7E73D
S214001D401949032005F056FF184AD36E43F04003A6
S214001D50D366002009F079FA012009F076FA0F2000
S214001D600BF0EEF9002009F0B1FA012009F0AEFA06
S214001D700222044B83F88A20CAE700BFA02800206E
S214001D8096280020F02600208026002068260020C6
S214001D90B426002084270020A82600204026002005
S214001DA0C0F00F401C000020E084FF1F00600240CF
S214001DB010B5184CA26D184B1A60184B1A68184BC1
S214001DC01A60184B5A695A60FFF760FE94F887301D
S214001DD05BB2002B134B996814BF4823502323444F
S214001DE0196094F887305BB2002B0E4BD96814BF8D
S214001DF04C2354232344196094F887305BB2B3FA1B
S214001E0083F35B0984F88730074A9368013393604D
S214001E1010BD00BFF026002090260020AC26002033
S214001E2090280020102800201C000020054BD3ED31
S214001E30007A9FED057A67EE877A044BC3ED167A33
S214001E40704700BFC02700206F12033AF02600201C
S214001E502DE9F04F9DB008200AF0BCF9CB4CCC4FD2
S214001E603A88BB782280A370CA4E3288B378A4F82A
S214001E7003206371C84D294600200BF083F9DFF874
S214001E807493B9F86E30DFF870834FF08C4B48F8D7
S214001E9023B09B0003F1804303F5CA231A6842F07F
S214001EA080421A60BD49002009F076F941F2883177
S214001EB0002009F015FABA4A0021084609F028FA67
S214001EC04FF4FA6300221146104609F073FA002018
S214001ED009F0FCF93A88BB782280A3703288B37880
S214001EE0A4F803206371294600200BF04BF9B9F8DB
S214001EF0703048F823B09B0003F1804303F5CA23F3
S214001F001A6842F080421A60A649012009F044F996
S214001F1041F28831012009F0E3F9A34A00210120AB
S214001F2009F0F6F900231A461946012009F042FA8C
S214001F309E4A0021012009F0EBF94FF47A73012242
S214001F400021104609F036FA994A0021012009F0CE
S214001F50DFF94FF4FA6302220021012009F02AFA81
S214001F60012009F0B3F904AB05F1080696E807006E
S214001F7003C323F8022B120C1A7000240294039455
S214001F808DF804408DF80540B9F882108B0003F1F7
S214001F90804303F5CA231A6822F080421A6048F884
S214001FA021B01A6842F080421A60204600F06AFCAF
S214001FB004A9204600F036FA2146204600F040FCF0
S214001FC002A9204600F06FFB01A9204600F0BCFBEA
S214001FD0204600F0C5FC04AB96E8070003C323F8D0
S214001FE0022B120C1A70029403948DF804408DF89C
S214001FF00540B9F884108B0003F1804303F5CA232B
S2140020001A6822F080421A6048F821B01A6842F036
S21400201080421A60012000F035FC04A9012000F07F
S21400202001FA2146012000F00BFC02A9012000F075
S2140020303AFB01A9012000F087FB012000F090FC8C
S2140020406B69049304AA0221012000F0AEFBDFF8BE
S214002050ACA1DAF8043023F00F0343F00203CAF809
S214002060043003F089FB03F0D7FB03F0E5FBB9F877
S2140020708C304FF0864248F82320B9F85C304FF099
S214002080804248F8232048F8232048F8232048F8C0
S21400209023206022214604A80DF01CFB454A04922A
S2140020A0032305938DF81B300A9204210B918DF8BB
S2140020B033301092022111918DF84B301692052282
S2140020C017928DF8633004A9042009F075FA2022CF
S2140020D0214604A80DF0FEFA374B04930823ADF80A
S2140020E0183001258DF820508DF82350334B0A9375
S2140020F002A9462002F088FB029B079304AA3049F7
S214002100204607F01FF92F4B2F4A13602F4A136003
S2140021102F4A304B1A60304A304BDA65304B314A22
S2140021201360314A1360B9F85A70BF0007F1804750
S21400213007F5CA273B6843F080433B600694079444
S21400214009942A4B049305958DF81B508DF81E5064
S21400215003F53623089304A9284609F02DFAB9F8A2
S2140021606060B60006F1804606F5CA26336843F07E
S214002170804333600694079409941D4B04930A2306
S21400218005938DF81B508DF81E5039E09C260020D4
S2140021905085FF1F6C85FF1FC4F700001C2600201B
S2140021A04885FF1F282600206485FF1F5C85FF1FCB
S2140021B05485FF1F00A0044040420F0000000000AE
S2140021C0D82700200000FF444C260020A02700202F
S2140021D09A99193F40280020CDCC4C3DF02600208F
S2140021E00000A041C427002058260020009004408C
S2140021F000C00440A40801000050064000800440CF
S214002200744B089304A9284609F0D6F9336843F0BE
S214002210804333600694079409946F4B04930B2312
S21400222005938DF81B508DF81E506A4B089304A931
S214002230284609F0C1F9B9F87C3048F823B09B006D
S21400224003F1804303F5CA231A6842F080421A60FD
S214002250624A6349022004F0C3FE6249022005F088
S214002260AFF83B6843F080433B60022229465E4855
S21400227009F006FB336843F08043336002220A21EC
S214002280554809F0FDFA336843F080433360022274
S2140022900B21514809F0F4FA544B5A6942F00202F5
S2140022A05A615A6942F040025A61DAF81C3043F427
S2140022B08073CAF81C3005216F2006F06FF96F2076
S2140022C006F03CF922464A496F2006F017F9494ABB
S2140022D02946022004F03CFB41F28731204609F0F3
S2140022E00BF8204608F0F2FF434A136823F4003345
S2140022F023F0200343F02003136022463F49342096
S21400230006F0FCF80621342006F048F9342006F0E2
S21400231015F98DF810404FF00403ADF8123004AAFA
S2140023202146204600F041FA8DF810400723ADF80C
S214002330123004AA2146284600F037FA8DF81040DD
S2140023400623ADF8123004AA2946284600F02DFAD6
S214002350FEF780FA2A4A0221284608F0FFFD0521EA
S214002360282006F01BF9282006F0E8F8336843F02A
S21400237080433360069407940994174B0493102304
S21400238005938DF81B508DF81E50124B08938DF850
S214002390245004A9284609F00FF9336843F0804317
S2140023A033600694079409940B4B04930F2305930C
S2140023B08DF81B508DF81E50064B08938DF8245050
S2140023C004A9284609F0F8F8FEF7FEFA1DB0BDE8A5
S2140023D0F08F00BFC0F00F4000C004403000002067
S2140023E0A084FF1FB484FF1F0090044000A0034099
S2140023F03167000081630000006003402105000093
S214002400C1190000704700BF002303700C22427001
S2140024108370C370037143718371C3710372437217
S2140024208372704770B584B006460D465D4B53F810
S214002430204041238DF80C3042238DF80D3004A93E
S214002440002341F8083D04AB034413F8040C02F0E3
S214002450DBF92B78029ADA400292226C22F06002B4
S2140024605B0103F06003134323646B78002B08BF03
S2140024700123626C22F0FF0213436364226C22F095
S2140024800C02AB789B0003F00C0313432364226C0E
S21400249022F00302EB7803F0030313432364D4F81B
S2140024A0902022F040022B799B0103F04003134357
S2140024B0C4F890306B79302200924FF4405201926B
S2140024C0394A926904A901EB860151F8101C22EAE8
S2140024D00102002E43D0012E4FD0334B9A61AA79C9
S2140024E0012100914FF4807101919B6904A901EBD1
S2140024F0860151F8101C23EA0103002E39D0012E64
S21400250045D0294A9361D4F8903023F00403EA7941
S214002510002A14BF042200221343C4F89030D4F8D3
S214002520902022F003022B7A03F003031343C4F82F
S2140025309030D4F8943023F008036A7A002A14BF47
S214002540082200221343C4F8943036B9AB7A1BBB7A
S214002550154A536823F40023536004B070BD1B0172
S21400256003F03003134310498B61AA798B6923F07B
S214002570010302F001021343C3E71B0303F44053B5
S214002580134309498B61AA798B6923F4807312027D
S21400259002F480721343B4E7034A536843F40023FB
S2140025A05360DAE79C0701000080044030B484B032
S2140025B0374B53F820301A6CC2F341120A705A6C2B
S2140025C04A701A6CC2F38102012A56D0022A0CBF46
S2140025D0022200228A701A6C02F00302CA70D3F834
S2140025E09020C2F380120A71002202920122009209
S2140025F04FF48072019208220392264A926904AC34
S21400260004EB800454F8105C2A4054F8084CE2406E
S214002610012A14BF002201228A71302200924FF450
S21400262040520192042202920C220392194A9269A5
S21400263004AC04EB800454F8105C2A4054F8084CB0
S214002640E240012A1BD0022A0CBF022200224A7155
S214002650D3F89020C2F38002CA71D3F8902002F01B
S21400266003020A72D3F89430C3F3C0034B7240B12E
S21400267000238B7204B030BC70470122AAE7012207
S214002680E5E7044B5B68C3F3C0438B72F2E700BF19
S2140026909C07010000800440002303704370837091
S2140026A08380C3807047174B53F82030D3F89020B0
S2140026B022F020020878002814BF202000200243C1
S2140026C0C3F89020D3F8902022F010024878002813
S2140026D014BF102000200243C3F89020D3F89020A7
S2140026E022F008028878002814BF08200020024341
S2140026F0C3F890208A88C3F88820CA88C3F88C203C
S214002700704700BF9C0701000C4B53F82030D3F8ED
S2140027109020C2F340120A70D3F89020C2F3001241
S2140027204A70D3F89020C2F3C0028A70D3F888208B
S2140027308A80D3F88C30CB80704700BF9C0701009E
S21400274000230370437070470C4B53F82020D2F8D8
S214002750943023F004030878002814BF04200020D7
S2140027600343C2F89430D2F8940020F003004B786C
S21400277003F003030343C2F8943070479C0701003C
S214002780064B53F82020D2F89430C3F380030B7026
S214002790D2F8943003F003034B7070479C07010097
S2140027A0002303701F234380704730B4124B53F846
S2140027B0200053881478A3F5706292B2052A0BD8CD
S2140027C00E4A556825F4E025556055681B0403F449
S2140027D0E0232B435360152350F8212003F01F03FA
S2140027E022F05F021343002C14BF40220022134342
S2140027F040F8213030BC70479C0701000080044040
S2140028000D4B53F8200050F82130C3F3801313709B
S21400281050F8213003F01F0308494968152B01D0F2
S2140028205380704711F4002FFAD0044B5B68C3F353
S214002830024303F57063F3E79C0701000080044041
S21400284082B00E2300934FF4606301930C4B9B6998
S21400285002AA02EB800252F8082C23EA020328B1EF
S214002860012808D0064A936102B07047490001F07B
S2140028700E010B43F6E7490201F460610B43F1E7F2
S2140028800080044030B583B00446224B53F8202025
S21400289000231F2142F823100133102BFAD1002108
S2140028A011640C235364C2F88810C2F88C10C2F866
S2140028B09010C2F89410C2F8A0100423C2F8B030EA
S2140028C0302300934FF440530193134B9A6902A8A8
S2140028D000EB840050F8085C22EA05029A610122A7
S2140028E000924FF4807201929A6950F8080C22EA1E
S2140028F000029A612046FFF7A3FF44B9064B5A68C8
S21400290022F400225A605A6822F4E0225A6003B089
S21400291030BD00BF9C07010000800440044B53F804
S2140029202020D2F8903013F0800FFAD1704700BF05
S2140029309C070100034B53F8203053F82100C0F3E6
S214002940C01070479C070100044B53F8203012312A
S21400295053F82130C3F30B03138070479C07010024
S2140029602DE9F04782B04F4B53F82040D4F894300E
S214002970C3F38008D4F8947007F00307D4F8906087
S214002980656CEDB2D4F8943043F00303C4F8943089
S214002990D4F8943043F00403C4F89430D4F890305C
S2140029A023F04003C4F89030636C23F0FF0343F039
S2140029B00C0363640023C4F8B430C4F8B830C4F819
S2140029C0BC30C4F8C030C4F8C430C4F8C830C4F84A
S2140029D0CC3041228DF8042042228DF8052002A931
S2140029E041F8083DD4F840904FEA591A02AB184413
S2140029F010F8040C01F008FF009B0AF0030A23FA03
S214002A000AFA294A924512D9284A934208D9284AEE
S214002A10934245D9274A934294BF0323002300E0FC
S214002A200123226C22F0600242EA43132364D4F8A6
S214002A30943043F08003C4F89430D4F8943013F004
S214002A408003FAD1226C22F0600209F0600949EA9C
S214002A5002022264D4F8942022F00402B8F1000F97
S214002A6018BF04231343C4F89430D4F8943023F0EA
S214002A7003031F43C4F89470D4F8903023F0400347
S214002A8006F040061E43C4F89060002D08BF0125DE
S214002A90636C23F0FF031D43656402B0BDE8F08756
S214002AA00223BEE79C07010040787D0181F0FA0210
S214002AB003E1F50507C2EB0B0423038000234380E4
S214002AC07047F0B4114B53F820200B88D2F8C4009E
S214002AD0D2F8C070D2F8BC60D2F8B850D2F8B44081
S214002AE0C2F8B0303844034433442B44234413F430
S214002AF0784F14BF4FF0FF3300239BB2C2F8AC30C0
S214002B008B78C2F8A030F0BC704700BF9C0701006D
S214002B10064B53F82020D2F8B030C3F309030B80DD
S214002B20D2F8A030DBB24B80704700BF9C07010094
S214002B30024B184490F90800704700BF9C0701003C
S214002B40074B53F82020012905D0D2F8903013F413
S214002B50702FFAD17047136C43F480731364F4E754
S214002B609C070100044B53F82020D2F8903043F025
S214002B707063C2F8903070479C070100034B53F80F
S214002B802030D3F89000C0F3036070479C07010024
S214002B90074B5B69DBB2042B06D0802B06D0012BDB
S214002BA00CBF0120042070470220704703207047A6
S214002BB000E00740044BD3F8003113F0807F1ABFC3
S214002BC0024B18680020704700400640A8280020E6
S214002BD010B584B00B4600293BD0444AD2F80021F9
S214002BE012F0007F7DD1414AD2F8001121F4000195
S214002BF0C2F800114FF08061C2F8001100213C4A73
S214002C001160002870D05A7A120202F4E062197A33
S214002C1001F007010A433548C0F80421DA791201A9
S214002C2002F030029979C90001F008010A43597987
S214002C30890001F004010A43C0F808211A79012A24
S214002C4029D0E2B1022A32D01A68294B1A60294CE0
S214002C503BE000238DF804308DF80C3001228DF80F
S214002C6008208DF809208DF805208DF806300223FF
S214002C708DF8073004AB204A43F8102DADE71A7BD9
S214002C80002A14BF4FF40002002242F00102174946
S214002C90C1F80021D8E71A7B002A14BF4FF40002BF
S214002CA0002242F001121149C1F80021CCE71A7B3C
S214002CB0002A14BF4FF403024FF4403242F00102E0
S214002CC00A49C1F80021BFE7013CFFF773FF18B9B6
S214002CD0002CF9D1032005E0002C14BF00200320AF
S214002CE000E0022004B010BD0020FBE700400640D4
S214002CF0A828002088E7300000127A00084BD3F896
S214002D00003213F0807F09D0054BD3F8083203F069
S214002D100103002B034808BF0020704700207047BF
S214002D200040064000127A0010B582B00B4600291B
S214002D3038D02D4AD2F8002212F0007F4FD12A4A0E
S214002D40D2F8001221F40001C2F800120021C2F8E5
S214002D500012002846D09A78120202F4E0625978EF
S214002D6001F007010A432049C1F804221A7802F04C
S214002D700102C1F8082259799A791B79002B14BFF1
S214002D8003230123002914BF042100210B43002A3A
S214002D9014BF4FF4000200221343134AC2F8003255
S214002DA0642410E000238DF8043001228DF80520FD
S214002DB08DF806308DF801208DF8022002AB03F85E
S214002DC0082DB6E7013CFFF799FF18B9002CF9D19A
S214002DD0032005E0002C14BF0020032000E00220A2
S214002DE002B010BD0020FBE700400640054BD3F8BC
S214002DF0003313F0807F1DBF024BD3F80833024820
S214002E000020704700400640006CDC0210B582B01F
S214002E100B46002932D0294AD2F8002312F0007F50
S214002E2047D1264AD2F8001321F40001C2F8001355
S214002E304FF08061C2F8001300283DD09A78120245
S214002E4002F4E062597801F007010A431B49C1F811
S214002E5004231A7802F00302C1F808239A795B79F2
S214002E60002B14BF01230923002A14BF4FF40002CD
S214002E7000221343C1F8003364240EE001238DF8CA
S214002E80053000228DF806208DF801308DF80230CE
S214002E9002AB03F8082DBEE7013CFFF7A7FF18B901
S214002EA0002CF9D1032005E0002C14BF00200320DD
S214002EB000E0022002B010BD0020FBE70040064004
S214002EC008B50F4BD3F8003613F0807F02D10023ED
S214002ED0184608BDFFF76EFE03460028F8D00849DE
S214002EE0D1F80826C2F302220132B0FBF2F3D1F881
S214002EF00826C2F30442103203FB02F35B08E7E73E
S214002F000040064010B584B00C4699B13D4BD3F84E
S214002F10003613F0007F72D13A4BD3F8002622F425
S214002F200002C3F800264FF08062C3F80026A0B95E
S214002F30002065E000238DF804308DF80B30012268
S214002F408DF808208DF809208DF8053007228DF8B9
S214002F5006208DF8073001ACD8E7FFF72BFE637923
S214002F601B0203F4E063227902F0070213432549AB
S214002F70C1F8043663781B0203F4E063A2781204F7
S214002F8002F4F8121343C1F808362378012B16D042
S214002F904BB1022B1FD04FF47A74FFF791FF48BB5A
S214002FA034B3013CF9E7E379002B14BF4FF4000378
S214002FB0002343F00103134AC2F80036EBE7E37937
S214002FC0002B14BF4FF40003002343F001130D4AF7
S214002FD0C2F80036DFE7E379002B14BF4FF4030393
S214002FE04FF4403343F00103064AC2F80036D2E7F6
S214002FF0032005E0002C14BF0020032000E0022080
S21400300004B010BD004006402DE9F04180460D4654
S2140030108C7801344E7806FB04460F7807FB04478D
S214003020CB78013B052B1CD8DFE803F00312151BF9
S2140030301B18FFF7BFFD0009B8F1020F4AD0B8F120
S214003040030F7CD0B8F1010F0DD00020BDE8F08151
S214003050FFF754FEEFE7FFF7C9FEECE7FFF730FF98
S214003060E9E70020E7E7EA7802EB42015D4B53F818
S21400307021301B0904FB03F4A04200F298800B46A3
S214003080584901EB83035B681B0906FB03F6B04255
S21400309000F2908002EB420301EB83039B681B095E
S2140030A007FB03F7B84200F28880AB781B0403F4F2
S2140030B07023120602F0706213432A7802F00F02A1
S2140030C013436A781201D2B21343474A5361002071
S2140030D0BDE8F081EA7802EB4201424B03EB810344
S2140030E05B6D1B0904FB03F4A04269D80B463D49FF
S2140030F001EB83039B6D1B0906FB03F6B04262D807
S21400310002EB420301EB8303DB6D1B0907FB03F7AE
S214003110B8425BD8AB781B0403F47023120602F0A7
S214003120706213432A7802F00F0213436A78120182
S214003130D2B213432C4A93610020BDE8F081EB78AD
S21400314003EB4301274A02EB8102D2F8A8201209BA
S21400315004FB02F4A0423CD80A46224901EB820254
S214003160D2F8AC20120906FB02F6B04234D803EBC4
S214003170430201EB8202D2F8B020120907FB02F7E5
S214003180B8422CD8AA78120402F470221B0603F068
S214003190706313432A7802F00F0213436A78120111
S2140031A0D2B21343104AD3610020BDE8F08101205B
S2140031B0BDE8F0810120BDE8F0810120BDE8F08186
S2140031C00120BDE8F0810120BDE8F0810120BDE8C6
S2140031D0F0810120BDE8F0810120BDE8F0810120EA
S2140031E0BDE8F081A80701000040064038B5054656
S2140031F0FFF7CEFC2946FFF707FF044658B9E878E4
S2140032000A220849013A0B69C3F30363984204D0C3
S214003210002AF7D10324204638BD002A08BF03241D
S214003220F9E700BF0040064010B504461B4B1B697B
S214003230C3F30363013B052B1DD8DFE803F003133C
S214003240161C1C19FFF7B6FC144B1B69C3F303438B
S2140032500133B0FBF3F0012C0FD0ECB1022C14D0EC
S214003260002010BDFFF74AFDEEE7FFF7BFFDEBE7D6
S214003270FFF726FEE8E70020E6E7084B1B69C3F3E6
S21400328003130133B0FBF3F010BD044B1B6903F0CE
S2140032900F030133B0FBF3F010BD00BF0040064043
S2140032A008B50F4B1B6AC3F30363062B15D8DFE87C
S2140032B003F004080B0E141411000220FFF7B4FFED
S2140032C008BDFFF777FC08BDFFF718FD08BDFFF740
S2140032D08DFD08BDFFF7F4FD08BD002008BD00BF4A
S2140032E00040064008B541B1012931D00020024611
S2140032F010B1431E22FA03F008BD0438032852D842
S214003300DFE800F00B02141DFFF770FD0246294BA4
S214003310D3F8040300F00700EAE7FFF7EFFC0246E5
S214003320244BD3F8040200F00700E1E7FFF742FC65
S2140033300246204BD3F8040100F00700D8E7FFF759
S214003340BFFD02461B4BD3F8040600F00700CFE78C
S214003350043803282AD8DFE800F00B02141DFFF714
S21400336045FD0246134BD3F80403C0F30220BFE723
S214003370FFF7C4FC02460F4BD3F80402C0F302204A
S214003380B6E7FFF717FC02460A4BD3F80401C0F372
S2140033900220ADE7FFF794FD0246064BD3F804067D
S2140033A0C0F30220A4E700200246A1E70020024660
S2140033B09EE700BF0040064008B5114B1B69C3F3EB
S2140033C00113032B19D8DFE803F0020710130021BE
S2140033D00620FFF787FF08BD094B186900F00200BA
S2140033E0002818BF4FF4FA4008BD064B186808BD01
S2140033F000210520FFF776FF08BD002008BD00BFAE
S21400340000800440AC280020114B1B69C3F38103E5
S214003410022B07D0032B0ED0002B0CBF4FF4FA3034
S214003420002070470A4B186900F00200002818BFF9
S2140034304FF4FA407047064B186910F0020006D0A9
S214003440186900F00100002818BF4FF47A70704722
S2140034500080044008B5244B5B6813F4006F40D02E
S214003460214B5B68C3F303130E2B09D8DFE803F088
S2140034700A080D081208171C20252F0829082C00FA
S214003480002026E0FFF70CFF23E001210620FFF7CF
S21400349029FF1EE001210420FFF724FF19E0012187
S2140034A00520FFF71FFF14E00020FFF7BDFE10E029
S2140034B001210720FFF716FF0BE00120FFF7B4FEFF
S2140034C007E0FFF7A1FF04E0FFF776FF01E04FF407
S2140034D0FA30054B5B68C3F302230133B0FBF3F00D
S2140034E008BD002008BD00BF0080044010B50C4693
S2140034F015380E2800F2A380DFE800F008131E2916
S214003500333D414B5D6A737E87909900584BDB686C
S214003510C3F30163022B00F29D80564A52F8233013
S21400352022E0534BDB68C3F38163022B00F29480E6
S214003530504A52F8233017E04D4BDB68C3F3017353
S214003540022B00F28B804B4A52F823300CE0484B9B
S214003550DB689B0F022B00F28380464A52F823302A
S21400356002E0FFF777FF03460020002B6AD0002C0E
S2140035707CD0236010BDFFF71FFF0346F4E73E4BE9
S2140035809B78DB0901D00023EEE7FFF73DFF0346FB
S214003590EAE7394B9B78DB0964D1354B1B6913F09E
S2140035A00203E1D0324B1B6903F00103002B18BF66
S2140035B04FF47A73D8E7304B9B78DB0954D12C4B09
S2140035C01B6903F00203002B18BF4FF4FA43CBE746
S2140035D0294B9B78DB09002B14BF00234FF4FA33EA
S2140035E0C2E7234B1B6CC3F3001383B30120FFF722
S2140035F01BFE03460020B8E71D4B1B6CC3F3C0033D
S214003600002BF3D14FF48070B1E7194B1B6CC3F35A
S2140036108003002BEAD14FF48070A8E7144B1B6C94
S214003620C3F34003002BE1D14FF480709FE7104BAB
S2140036301B6C13F00103D9D14FF4807097E7042078
S214003640002392E7042818BF4FF480708FE74FF4EA
S21400365080708CE7002387E7002385E7002383E755
S214003660002381E700237FE700237DE710BD00BF2E
S21400367000800440B028002000D0074030B583B05A
S214003680002301932F4B03EB4003B3F8FC309B0061
S21400369003F1804303F5CA231D68C5F3C0051C6803
S2140036A004F00704AC4219D31A6812F0804F15D004
S2140036B01B68C3F30263013B052B21D8DFE803F048
S2140036C003111620201B0620FFF70CFE0190013484
S2140036D0019BB3FBF4F405FB04440194019803B08A
S2140036E030BD0420FFF7FEFD0190F0E70520FFF750
S2140036F0F9FD0190EBE70720FFF7F4FD0190E6E700
S2140037003C3803281BD8DFE800F002080E1401A995
S2140037101520FFF7EBFE0024D9E701A91620FFF7D6
S214003720E5FE0024D3E701A91720FFF7DFFE0024FB
S214003730CDE701A91820FFF7D9FE0024C7E700242B
S214003740C5E700BFA807010030B583B00546FFF700
S214003750B7FB88B1062D56D006238DF80730022316
S2140037608DF8063001238DF8053002A800F8043DD8
S214003770FFF73CFD044600E00124FFF737FB10B1DD
S214003780032D4AD074B9FFF715FA10B1012D4DD0AC
S214003790D4B9FFF7B3FA10B1022D00D01CBB2046F7
S2140037A003B030BD03238DF8073000228DF80620C5
S2140037B001228DF8052002A800F8043DFFF716FD4B
S2140037C00446E0E70124E3E701238DF807300022F2
S2140037D08DF806208DF8053002A800F8043DFFF7A6
S2140037E005FD0446D5E702238DF8073000238DF843
S2140037F006308DF8053002A8012300F8043DFFF7D7
S214003800F5FC0446CBE7FFF7F1FA0028CAD1FFF72C
S214003810D1F90028D6D10124BBE7FFF7CBF9002861
S214003820B6D1FFF76BFA0028B8D1B8E7FFF766FA0B
S2140038300028B3D1B3E7174B1B69C3F30363013BFF
S214003840052B06D8DFE803F0031D2005052301231A
S214003850C37010490A69104BC2F303121A4492F857
S2140038609C2142700A69C2F303421A4492F89C21D2
S21400387082700A6902F00F02134493F89C310370B9
S21400388070470223C370E4E70323C370E1E706230F
S214003890C370DEE700400640A807010001383F2855
S2140038A02DD8DFE800F02A282C262C2C2C242C2CB3
S2140038B02C2C2C2C2C222C2C2C2C2C2C2C2C2C2C4D
S2140038C02C2C2C2C2C202C2C2C2C2C2C2C2C2C2C3F
S2140038D02C2C2C2C2C2C2C2C2C2C2C2C2C2C2C2C23
S2140038E02C2C2C2C2C2E06207047052070470420EC
S2140038F07047032070470220704701207047002061
S214003900704707207047F0B5A5B028B304460646B2
S214003910002800F0FF80C54B1B69C3F30363032B2D
S21400392000F0C680FFF762FA002800F0B880032394
S2140039308DF8073000228DF8062001228DF805202C
S21400394024A800F88C3DFFF751FC0546002800F03F
S214003950AF80284625B0F0BD01238DF80B3000223D
S2140039608DF80C208DF80D308DF80E208DF808306F
S2140039708DF809308DF80A308DF816308DF8143031
S2140039808DF815208DF80F208DF810308DF8113039
S2140039908DF838300D928DF82530A54906918DF8B2
S2140039A01C208DF824208DF81D308DF81E20022056
S2140039B08DF81F008DF820308DF821308DF83030CE
S2140039C08DF828208DF82F208DF829200C218DF8D1
S2140039D02A108DF82B208DF82C308DF82D308DF890
S2140039E03D3003218DF83C108DF84B308DF841109A
S2140039F08DF840208DF83F308DF83E308DF845002C
S214003A008DF844308DF843208DF8421006208DF84E
S214003A1049008DF848208DF847308DF846108549C6
S214003A202291202121918DF84C308DF84D208DF873
S214003A304E208DF84F208DF850308DF854308DF88C
S214003A4053308DF852208DF851208DF878308DF84F
S214003A5079308DF87A308DF87B308DF87C308DF8A3
S214003A607D308DF883308DF8583017921892199261
S214003A701A921B921C921D928DF87E308DF87F3024
S214003A808DF880208DF881208DF882208DF88C307E
S214003A908DF88D308DF88E2002AE34463BE700213F
S214003AA00120FFF7B3F9054600287FF452AF3EE742
S214003AB03146E078FFF738F90546002800F0C28066
S214003AC0FFF766F8022800F0F780032800F0F7807A
S214003AD0012800F0D180002D7FF43BAF0022564B2A
S214003AE01A6094F8303013B1E26A534B1A6094F8B7
S214003AF0353053B14D490A6A22F0706294F834307A
S214003B001B0603F0706313430B6294F84330002BDC
S214003B1040F0338194F84430E3B194F8455094F87B
S214003B20463094F847204549486820F400604860CD
S214003B30496821F47F61002D14BF4FF40060002017
S214003B401B01DBB2120202F4E06213430B43034391
S214003B503A4A536094F84830DBB194F84A3094F807
S214003B6049203649096921F03F0194F84C00014389
S214003B7094F84B00002814BF022000209B0003F09E
S214003B800C030B43120102F03002134303432B4A8B
S214003B90136194F87030002B37D0284B196C21F045
S214003BA0010194F871200A431A641B6C23F0020387
S214003BB094F87220002A14BF0222002213431F4AE0
S214003BC01364136C23F0040394F87320002A14BFC4
S214003BD0042200221343194A1364136C23F00803CB
S214003BE094F87420002A14BF082200221343134AB4
S214003BF01364136C23F0100394F87520002A14BF86
S214003C001022002213430D4A136494F85030002B00
S214003C1000F000810A4B626D1A60A26D5A60E26D78
S214003C209A6004F160000121044DCBE0004006409C
S214003C3000127A000084FF1FAC2800200080044099
S214003C40B028002004F11001607FFEF7C1FF054692
S214003C5000287FF435AF04F1200194F82800FFF720
S214003C6051F90546FEF794FF022825D0032826D0F2
S214003C70012801D0002601E004F13606002D7FF46D
S214003C802AAFF378032B1DD08DF80730B3788DF864
S214003C90063073788DF80530337824A800F88C3D0C
S214003CA0FFF7A4FA054600287FF415AFE11DA07BB8
S214003CB0FFF7ACF805460EE704F13A06DEE704F136
S214003CC03E06DBE794F828300BBB637F93BBE378B4
S214003CD0002B42D10125002D7FF4FDAEE11DA07B17
S214003CE0FFF794F8054600287FF4F5AEF3788DF8D4
S214003CF00730B3788DF8063073788DF80530337852
S214003D0024A800F88C3DFFF771FA0546E3E6062383
S214003D108DF8073002238DF8063001238DF8053024
S214003D2024A800F88C3DFFF761FA0546637F7BB157
S214003D300128D0D101238DF8073000228DF8062007
S214003D408DF8053024A800F88C3DFFF74FFA05469D
S214003D50E378002BBFD0012DBDD102238DF80730AC
S214003D6000238DF806308DF8053024A8012300F8CE
S214003D708C3DFFF73BFA0546ADE704F1360101201E
S214003D80FFF742F9054600287FF4E3AD04F13A0157
S214003D900220FFF739F9054600287FF4DAAD04F172
S214003DA03E010320FFF730F9054600287FF4D1AD29
S214003DB0B0E626F040761B0603F040733343EB6014
S214003DC00131C9B250F8043BEE684A1ED2B2032A4B
S214003DD000F2A18001A757F822F000BFB33D000013
S214003DE0ED3D0000FB3D0000093E000026F0406669
S214003DF09B0603F040633343E1E726F040561B077B
S214003E0003F040533343DAE726F0404646EA83732E
S214003E10444AD36094F87630EBB1424A936E002061
S214003E209066516821F4805194F878301B0303F4AF
S214003E3080530B435360906694F877305BB194F8E8
S214003E4079305B0003F00E0394F87A2042F080523B
S214003E501343344A936614F17C0F3DD0D4F8803077
S214003E60002B39D0E36F002B36D000212E482F4D83
S214003E7001EB8102D4F880309B5C00EB4303B3F87F
S214003E80FC309B0003F1804303F5CA231E6826F02E
S214003E9080461E60D4F880309F189E5CBB781B0658
S214003EA003F0E063FA78D20002F0080213433A798E
S214003EB002F0070213437A78002A14BF4FF08042BC
S214003EC00022134300EB4606B6F8FC2045F82230E5
S214003ED00131E36F9942CBD394F8843003B314498D
S214003EE08B7803F07F0394F8852082F0010243EA82
S214003EF0C213DBB28B7094F98630002BBCBF203324
S214003F005BB20B490A7903F01F0302F0E002134389
S214003F100B7100251DE5EE6003297FF651AF79E7AA
S214003F20002516E500800440A80701000050064062
S214003F3000D0074070B504460D46112807D923283F
S214003F4040F285804D2840F28580042070BD1128FF
S214003F507AD8DFE800F00913191F24292E33383CDD
S214003F6041484F565D646B720020FFF75DF90346CB
S214003F700020002D00F0D9802B6070BD0120FFF7D7
S214003F8053F903460020F4E70220FFF74DF90346F5
S214003F900020EEE7FFF75EFA03460020E9E7FEF7AB
S214003FA0ADFE03460020E4E7FEF720FF03460020B0
S214003FB0DFE7FEF7FFFD03460020DAE7FEF780FFA7
S214003FC003460020D5E7594B1B680020D1E7FFF7D2
S214003FD067F903460020CCE700210420FFF782F9AA
S214003FE003460020C5E701210420FFF77BF90346BE
S214003FF00020BEE700210520FFF774F903460020E5
S214004000B7E701210520FFF76DF903460020B0E76A
S21400401000210620FFF766F903460020A9E70121E4
S2140040200620FFF75FF903460020A2E700210720DD
S214004030FFF758F9034600209BE701210720FFF70A
S21400404051F90346002094E70023042091E7FFF788
S2140040504DFA70BD242805D804200023002D64D016
S2140040602B6070BDA0F13303DBB21A2B07D8304AA1
S21400407022FA03F313F0010F18BF0420EDD12D4BE5
S21400408003EB4403B3F8FC202B4B53F8223013F019
S214004090804F37D14FF48070DFE70120FFF7C4F878
S2140040A0034600283CD100234FF48070D6E700205A
S2140040B0FFF7BAF803460028F5D031E00220FFF7F4
S2140040C0B3F803460028EED02AE016F0080F06D113
S2140040D016F0100F0BD100234FF48070BEE70021BE
S2140040E02046FFF7CBFA034616F0100F04D0012146
S2140040F02046FFF7C3FA0346002B14BF00204FF4F8
S2140041008070ABE70B4B234493F8AC6116F0200F9E
S214004110C3D116F0400FCAD116F0800FCED10023BF
S21400412016F0180FD1D1002098E770BDAC280020FB
S21400413041210004A80701000050064070B582B077
S21400414004460D4689B1554B234493F8AC3113F021
S214004150010F63D113F0180F30D06A78043A032A9F
S2140041605AD8DFE802F02325272901238DF80030EE
S214004170FEF7C4FD48B104238DF801300123ADF8E5
S2140041800230ADF804306D46DDE7FEF72FFE08B1CD
S2140041900523F1E7FEF794FE08B10723ECE7FEF7E8
S2140041A009FD002814BF06234F23E5E7022206E098
S2140041B0032204E0012202E0062200E0002213F0BF
S2140041C0040F1ABFAE8806F1FF36002613F0020F62
S2140041D01ABF698801F1FF310021304B03EB44041C
S2140041E0B4F8FC40A30003F1804303F5CA23186823
S2140041F020F0804018602B7863B1120642F08042AF
S21400420006F007063243C90001F008010A43244BB2
S21400421043F8242002B070BD0022D0E72B781F3C64
S214004220042CF7D8DFE804F02E22160A03001D49F6
S2140042300A6C22F0010213430B64EBE7194A126C76
S21400424022F00202002B14BF022300231343154A58
S2140042501364DFE7134A126C22F00402002B14BF2B
S2140042600423002313430F4A1364D3E70D4A126C4A
S21400427022F00802002B14BF082300231343094A28
S2140042801364C7E7074A126C22F01002002B14BF13
S214004290102300231343034A1364BBE7A807010057
S2140042A0005006400080044070B582B005460C46BB
S2140042B0FEF76EFC06469DB12B68022B0ED0042B33
S2140042C010D0012B0CBF012504256CB12378043BCC
S2140042D0032B56D8DFE803F0574F51530225F4E777
S2140042E00546F2E70325F0E7FEF780FD58B1032305
S2140042F08DF8073000228DF8062001228DF8052063
S2140043008DF8043055E0FEF7DBFD58B106238DF836
S214004310073002238DF8063001238DF805308DF81E
S214004320043046E0FEF746FC50B101238DF8073016
S21400433000228DF806208DF805308DF8043038E020
S214004340FEF7DCFCA8B302238DF807309D4208D0A8
S21400435000238DF806308DF8053001238DF80430E3
S21400436027E001238DF8063000238DF8053003235F
S2140043708DF804301DE0032306E0012304E0062345
S21400438002E0FF2300E002238DF807300F4B62881F
S2140043901A4492F8FC218DF80620A2881A4492F856
S2140043A0FC218DF80520E288134493F8FC318DF843
S2140043B00430B54205D001A92846FEF725FE02B016
S2140043C070BD01A8FEF712FFF9E700BFA8070100BD
S2140043D0154B1B69C3F30363013B052B20D8DFE8AD
S2140043E003F00316191F1F1C062303700E4A1369D9
S2140043F0C3F30343013343801369C3F30313013349
S2140044008380136903F00F030133C38070470423CE
S2140044100370EBE705230370E8E707230370E5E77F
S21400442004230370E2E700BF004006402DE9F04198
S21400443086B004460D4631B38889FFF72FFA8046CA
S214004440E889FFF72BFA07462E78201F172800F278
S2140044503881DFE810F01C0057008F00E4003601BA
S214004460360136013601360136013601360136018F
S214004470360136013601360136013601360136017F
S214004480360136011C010127B8463E46DDE78E4B55
S2140044901B69C3F30363022B1FD0002465B30123FB
S2140044A08DF80D308DF80C3000228DF80E208DF82A
S2140044B009808DF80A7006A901F8103D3046FEF70F
S2140044C033FC0346002B40F0E980002C00F0E68029
S2140044D001A8FEF78BFE0346E0E00EB90123DDE0FF
S2140044E001A8FFF7A8F90220FFF72EF903460028D7
S2140044F040F0D4803446D1E700210120FEF714FCBA
S2140045000346DFE7704B1B69C3F30363032B1CD022
S21400451000244DB300238DF80E308DF809808DF8F9
S2140045200A708DF808308DF80D3002A93046FEF777
S2140045306DFC0346002B40F0B180002C00F0AE80EE
S21400454001A8FEF753FE0346A8E00EB90123A5E036
S21400455001A8FFF770F90320FFF7F6F803460028D6
S21400456040F09C803446D4E700213046FEF74EFCEF
S2140045700346DFE7544B1B69C3F30363012B2FD0BD
S2140045800024002D3AD06B68029300228DF80C2090
S2140045908DF814208DF810808DF811706A78012A35
S2140045A014BF002201228DF80D2000228DF80E2067
S2140045B0A3F57412A2F5106244498A4224D8022355
S2140045C08DF80F3002A93046FEF702FB0346002B9B
S2140045D064D1002C62D001A8FEF708FE03465DE019
S2140045E00EB901235AE001A8FFF725F90120FFF7CD
S2140045F0ABF80346002851D13446C2E700213046C6
S214004600FEF7E6FA0346E2E7A3F5F403A3F59053B4
S2140046102F4A93429CBF03238DF80F30D2E72A4BD4
S2140046201B69C3F30363062B1ED000244DB300237F
S2140046308DF808308DF80F308DF80C808DF80D70E1
S214004640AB7A013B8DF809302B7A103B8DF80A3097
S21400465002A93046FEF756FC0346FBB9F4B101A8A2
S214004660FEF7C4FD034619E00EB9012316E001A8C3
S214004670FFF7E1F80620FFF767F8034670B93446FF
S214004680D4E700213046FEF73DFC0346E5E74EB989
S214004690104A937843F0800393700023184606B0C0
S2140046A0BDE8F0810C4A136923F03F0343F003038F
S2140046B0136102F55432937803F07F03937000235E
S2140046C0ECE70023EAE700BF0040064000093D0093
S2140046D00048E80100D007400080044010B4054CB4
S2140046E020602171A2602373637300205DF8044B81
S2140046F0704700BF90000020F0B583B007460E4616
S2140047008DF804008DF8051003F040FF334B1C7B3A
S2140047105C7301238DF80630002C4AD000242F4D00
S21400472004E00134E4B22B7BA34242D9AB6853F8D1
S2140047302430002BF5D01A79022AF2D01A6899682C
S21400474001A890470028ECD06C73002EE9D140F207
S214004750031500238DF80630A400204E20E0013417
S214004760E4B23B7BA34212D9BB6853F82430002B3B
S214004770F5D01A79012AF2D01A68996801A89047EC
S2140047800028ECD07C73002EE9D14FF4827503F03C
S214004790EFFE284603B0F0BD043C14F1040FF6D03B
S2140047A0B3681B59002BF7D01A68996801A8904780
S2140047B0F2E70A4D2B6853F82700FFF7A4F86F714D
S2140047C005460028C5D102238DF80630034B1B7B17
S2140047D0002BDCD00024014FC6E700BF900000206D
S2140047E0014B5879704700BF90000020054B5A7B5C
S2140047F01B79934283BF034B9B6853F8220000202B
S214004800704700BF9000002008B5FFF793FB08BD77
S21400481008B5FFF778F808BD29B14118002300F85D
S214004820013B8142FBD1704710B4064B1B6853F81E
S2140048302040616053F820309A6000205DF8044BF9
S214004840704700BFA000002070B50446094D2B68D5
S21400485053F82060002200F00F01074800F065FDC5
S21400486010213046FFF7D8FF2B68002043F82400BD
S21400487070BD00BFA00000200080004038B51020AA
S21400488003F068FE0F4B1B68BBB100240D4D02E021
S2140048900134102C08D02B6853F82430002BF7D0A6
S2140048A01878FFF7D1FFF3E7074D6C1E0F3514F9A4
S2140048B0010F03F04FFEA542F9D10020014B18600E
S2140048C038BD00BFA0000020B809010008B5084B9D
S2140048D01B6853F8203000F00F00064A1077D07798
S2140048E023B15A6812B1197B9868904708BD00BF7B
S2140048F0A00000200080004038B5054600F00F04F8
S21400490000222146094800F010FD094B1B6853F8A9
S214004910253053B1054A1477D477947701221A7359
S2140049205A6812B1197B9868904738BD00800040DD
S214004930A00000202DE9F04F87B09DF84070119D33
S2140049400124BC405FFA84FCB5FBFCF60CFB165653
S214004950002E14BF4FF0010A4FF0000A03D0504655
S21400496007B0BDE8F08F059304920391804600F0EF
S2140049700F06DFF800913146484600F0DBFCD9F818
S214004980003043F08003C9F80030730103F1804221
S21400499002F5004B02F51042049810604B4441F2B9
S2140049A01002059898500197009700231A46314642
S2140049B0484600F0F5FC039B032B12D8DFE803F013
S2140049C0022D3D4C002241F204032BF8032064B272
S2140049D0A4B2730103F1804303F5004341F21402CD
S2140049E09C52244C2A463146204600F0F1FC012217
S2140049F03146204600F077FD04EB461641F21C02D5
S214004A00B35A1BB243F002039BB2B3521A4B1B6855
S214004A1053F8283000221A73A1E764B2A4B241F218
S214004A2004032BF80340730103F1804303F50043AE
S214004A30002141F214029952D3E764B2A4B241F2C3
S214004A4004032BF80340730103F1804303F500438E
S214004A5041F214029C52C4E7002241F204032BF8F0
S214004A600320730103F1804303F5004341F2140170
S214004A705A52B6E700800040A000002070B582B011
S214004A800446079D01959DF818500095FFF752FFC4
S214004A90054610B1284602B070BD04F00F040F4E54
S214004AA0089A2146304600F01EFD06EB441641F2F9
S214004AB01C03F35A23F008031B041B0C9DF8242048
S214004AC0002A14BF082200221343640104F1804424
S214004AD004F5004441F21C02A352DBE700800040CC
S214004AE008B5012200F00F01024800F01EFC00206D
S214004AF008BD00BF0080004008B5002200F00F018E
S214004B00024800F012FC002008BD00BF00800040F4
S214004B1010B40F4B1C5C04F07F041C541C5C01F0AA
S214004B203F0104F0C004214319541B5C03F0BF038B
S214004B30002A14BF402200221A43054B1A541A5C5E
S214004B4042F080021A5400205DF8044B704700BF04
S214004B50001002402DE9F04180460C464D7805F0E5
S214004B600F061021FFF758FE227BA1786078FFF72A
S214004B70CFFF074631461D4800F0DCFB17B138462C
S214004B80BDE8F0811A4B1B6843F8258053F82520B2
S214004B90157053F8253000221A73144D0122314641
S214004BA0284600F0BDFB2B6813F0040F11D12378C4
S214004BB0FF2B0ED086F0030606F1804606F500466B
S214004BC096F8002103F00F0302F0F002134386F874
S214004BD000316568A1686278054B1B6853F82200AF
S214004BE0456053F822309960C9E700BF0080004056
S214004BF0A00000202DE9F0420D4616469946069F75
S214004C00244B18604021FFF707FE234C204600F097
S214004C10B6FB226822F004022B789B0003F0040304
S214004C2013432360236823F010036A78002A14BF16
S214004C301022002213432360102003F07FFC174D40
S214004C406C1E0F3514F9010F03F078FCAC42F9D155
S214004C50134800F08DFCDEB1B9F1000F14D0AFB1EF
S214004C60043EA9F1040900252C4659F8041F56F8FD
S214004C70040FFFF76FFF002818BF05460134A74250
S214004C80F3D12846BDE8F0820025FAE70025F8E7CC
S214004C900025F6E7A000002000800040B8090100CB
S214004CA00010024008B500F00F01024800F042FB79
S214004CB008BD00BF0080004000F00F0080304001BB
S214004CC0014B1950704700BF0080004000F00F00F5
S214004CD089B2400100F1804000F5104081807047A5
S214004CE000F00F00400100F1804000F5004041F266
S214004CF00602835A9BB2090201F4E06123F4E063E2
S214004D0019438152704700F00F00400100F18040C7
S214004D1000F5004041F20C03C150704700F00F0050
S214004D20400100F1804000F5004041F21803C150F8
S214004D30704700F00F00400100F1804000F5004091
S214004D4041F21003C150704700F00F0089B24001D5
S214004D5000F1804000F5004041F21403C152704754
S214004D6000F00F00400100F1804000F5004041F2E5
S214004D700602835A9BB201F0070123F007030B4398
S214004D808352704708B50A4600F00F01014800F04C
S214004D901FFB08BD0080004008B50A4600F00F0162
S214004DA0014800F0A0FB08BD0080004008B500F0F8
S214004DB00F01024800F0C6FB08BD00BF008000409F
S214004DC008B50A4600F00F01014800F051FB08BD87
S214004DD00080004000F00F00430103F1804303F51C
S214004DE0004341F21C029B5A23F008031B041B0CD1
S214004DF0002914BF082200221343400100F180401E
S214004E0000F5004041F21C028352704708B500F0DE
S214004E100F00012908D011B102291DD008BD014696
S214004E20194800F07DFA08BD430103F1804303F5FD
S214004E30004341F21C015B5A23F004031B041B0CC5
S214004E40002A14BF042200221343400100F18040D0
S214004E5000F50040435208BD430103F1804303F5CB
S214004E60004341F21C015B5A23F002031B041B0C97
S214004E70002A14BF022200221343400100F18040A2
S214004E8000F50040435208BD0080004008B518B148
S214004E90034800F03CFA08BD014800F02FFA08BDB0
S214004EA00080004000F00F00014B5877704700BFAD
S214004EB000800040002843D038B5044600293BD087
S214004EC00D4620212846FFF7A7FC227E637A03F0D2
S214004ED0070343EAC223227A120202F4E062134373
S214004EE0627ED200D2B21343EB8023682B60B4F903
S214004EF00A30AB80E369AB602369EB6063682B61C3
S214004F00B4F90C30AB82E36A1B68EB8294F820306D
S214004F109BB1636AAB6194F82830002B14BF022360
S214004F20002394F82020002A14BF102200221343E6
S214004F30AB83E36A1B68EB8338BD6369AB61EAE762
S214004F4070472DE9F04182B00C4600F00F05724F15
S214004F502946384600F0EEF922686E0106F18043D5
S214004F6003F5004803F510431A6062683E4441F2B8
S214004F701003F250637E227E617A0191217A0091BD
S214004F802946384600F00CFA628941F2040328F8F4
S214004F900320A28941F21403F252226941F20C0363
S214004FA0F25094F82030002B40F0A1806B0103F102
S214004FB0804303F5004341F21C015A5A22F01002C6
S214004FC01204120C5A52616941F2180299506B0190
S214004FD003F1804303F5004341F21C029B5A23F081
S214004FE002031B041B0C94F82820002A14BF02227C
S214004FF0002213436A0102F1804202F5004241F2A8
S2140050001C015352E16A00297FD0434B1B6813F002
S214005010800F14D0134641F208029A5822F000423C
S2140050200B79002B14BF4FF0004300231A436B018B
S21400503003F1804303F5004341F208015A50364B12
S2140050401B6813F0800F19D06B0103F1804303F542
S214005050004341F208029A5822F08042E36A5B79E4
S214005060002B14BF4FF0804300231A436B0103F15B
S214005070804303F5004341F208015A50E36A264E86
S2140050809A682946304600F0D1F9E269294630464A
S21400509000F09EF9E26A137B527B2946304600F008
S2140050A0EDF9E36A997B06EB451641F21C00325A8D
S2140050B092B2DB7B1B0203F4706322F4706213432C
S2140050C03352335A23F020031B041B0C002914BF51
S2140050D0202200221343104841F21C02B352E36A16
S2140050E01A68294600F0FFF902B0BDE8F08138469C
S2140050F041F21C02B35A1BB243F010039BB2B352E8
S214005100626A294600F0B4F961E7E2692946024876
S21400511000F05EF9E8E700BF0080004010B50446E6
S214005120064A136843F080031360FFF70AFF044B38
S2140051301B6853F824300020187310BD0080004010
S214005140A00000202DE9F04F95B0039093469946B5
S214005150DDF878801F9D9DF8803000931F3121F088
S2140051601F0A5F4B1B6853F8203000241C7301276E
S21400517007FA0BF20192BDF80430B9FBF3F603FB15
S2140051801696311B18BF01210291302104A8FFF7A3
S21400519043FB102110A8FFF73FFB089409948DF8F5
S2140051A028408DF829408DF818B08DF819B0CDF844
S2140051B02C908DF838708DF8307010A90F918DF8FE
S2140051C044408DF845408DF84C408DF84E40009890
S2140051D0002874D0002E72D1D8F8003004932B68C3
S2140051E00593D8F804306A6893426CD198F8081092
S2140051F02A7A91426AD14646AAF12007A346BDF90B
S2140052000420029200F1FF3A5FFA8AFA2AE0ADF82B
S2140052101AB0BDF80430ADF81C30A2450EBFCDF86C
S21400522034B007F120030D93002C41D0394604A872
S214005230FFF740FE0134E4B2009BA3423DD0D8F80D
S2140052400C3004932946EB680593D8F810302A6989
S21400525093423ED10C360C35203798F814000A7D60
S214005260904239D1B3FBF9F30F9A1360B046337A04
S214005270032BD2D801A252F823F000BF0F52000031
S2140052808D5200009B520000A7520000BDF804306B
S214005290ADF81A30ADF81CB0BFE7029BADF81A3077
S2140052A0ADF81C30B9E7ADF81AB0ADF81CB0B4E7ED
S2140052B004A90398FFF745FEBCE700230293029873
S2140052C015B0BDE8F08F01230293F8E7012302939F
S2140052D0F5E701230293F2E701230293EFE700BF0D
S2140052E0A0000020024B1B6853F82030187B704744
S2140052F0A00000200048704700800040036843F488
S21400530000330360036813F4003FFBD17047036863
S21400531043F480330360036813F4803FFBD1704787
S2140053200AB901767047417670470AB981767047A8
S214005330C176704700EB4111002341F208028B5002
S21400534001F58052136041F204028B5241F20602CC
S2140053508B5241F20C028B5041F210028B5041F2FC
S21400536014028B5241F216028B5241F218028B50F5
S21400537041F21C028B5241F21E028B52704738B526
S2140053800546036823F4403323F0C6030360002475
S214005390E1B22846FFF7CEFF0134102CF8D138BD15
S2140053A010B4DB00DCB29DF8083003F0070323439B
S2140053B043EAC2239DF80420120202F4E06213437B
S2140053C09BB2803100EB4111CB805DF8044B7047F7
S2140053D0036813F0800F13D010B400EB411341F2B2
S2140053E008041B59002B11DB00EB41131B5913F06B
S2140053F0804F0BD122F0404200EB4110025112E0E8
S21400540000EB411041F20803C250704700EB411018
S21400541041F20801435823F47F7323F00303C2F3D9
S21400542009021A4342505DF8044B7047036813F0B4
S214005430800F18D030B400EB411341F208041D5918
S2140054401B5913F0804F01D1002D0BDA00EB4110F1
S21400545041F20804035904491940044B03EA822226
S2140054600A43025130BC7047FF0300C000FCFF3FF8
S21400547000EB411141F21803CA50704730B400EBFC
S214005480411541F21E042C5BC4F30E04FBB144F438
S2140054900044294641F21E054C5341F216000B5AB1
S2140054A06FEA43436FEA53439BB20B524B5B9BB28C
S2140054B0520202F4F05223F4F05313434B530B5AA8
S2140054C09BB223F4F0531A430A5230BC704700EBE9
S2140054D0411141F21E03CC5241F216028B5AC3F31D
S2140054E00E038B52F1E710B400EB411441F21E0399
S2140054F0E35A13F4004F14D100EB411141F21E00A1
S2140055000B5AC2F30E0203F4004313430B5241F24C
S21400551016000B5A03F400431A430A525DF8044B74
S214005520704741F21E00235AC2F3080203F47E437A
S2140055301343235241F21600235A03F47E431A43C0
S2140055402252EBE700EB411241F21E03D35A13F44A
S214005550004F07D100EB411041F21603C05AC0F3CA
S2140055600E00704741F21603D05AC0F30800704789
S21400557000231A46C2540133102BFBD1704700BFDC
S21400558008B50020FFF7A2F908BD08B50120FFF70F
S2140055909DF908BD08B50220FFF798F908BD08B5C3
S2140055A00320FFF793F908BD08B50420FFF78EF92E
S2140055B008BD08B50520FFF789F908BD08B506201F
S2140055C0FFF784F908BD08B50720FFF77FF908BD87
S2140055D008B50820FFF77AF908BD08B50920FFF7D7
S2140055E075F908BD08B50A20FFF770F908BD08B5BB
S2140055F00B20FFF76BF908BD08B50C20FFF766F91E
S21400560008BD08B50D20FFF761F908BD08B50E20E6
S214005610FFF75CF908BD08B50F20FFF757F908BD7E
S21400562038B50020FFF766FEC56A002404E06D0862
S2140056300134E4B2102C06D015F0010FF7D0204646
S214005640FFF75AF9F3E738BD08B500F083FD08BD4B
S21400565062B110B4531EDCB2431E204411F8012B75
S21400566003F8012F8342F9D15DF8044B70476AB105
S21400567030B4551EEDB2431E441911F8012B03F841
S214005680012FA342F9D10135284430BC70477AB1C6
S21400569070B4561EF6B2431E85190A4612F8014B20
S2140056A003F8014FAB42F9D10136881970BC704738
S2140056B00846704708B50222FFF7E9FF08BD08B59F
S2140056C00422FFF7E4FF08BD00B583B002AB23F861
S2140056D0021D02221946FFF7CAFF03B05DF804FB5D
S2140056E000B583B002AB43F8041D04221946FFF749
S2140056F0BEFF03B05DF804FB70B48D1882B1531E74
S214005700DBB24C1E194415F8012B037823EA02037A
S21400571014F8016F3240134300F8013B8C42F2D17B
S21400572070BC7047014B1870704700BFA400002083
S21400573000B583B00191084B1B7833B9022201A94A
S214005740FFF795FF03B05DF804FB04220DEB0201A2
S214005750FFF78DFFF6E700BFA400002008B5054B55
S2140057601B781BB90222FFF792FF08BD0422FFF741
S2140057708EFF08BDA400002070B590B0224DB5F88D
S2140057805E40A40004F1804404F5CA24236843F074
S214005790804323601D4E02220621304606F070F834
S2140057A0236843F08043236002220721304606F038
S2140057B067F8B5F896204FF08641154B43F822104F
S2140057C04FF46143009300238DF806308DF80430C3
S2140057D08DF805306A4603A9012005F001F80D4A48
S2140057E0936943F400239361936913F4002FFBD06D
S2140057F0084A936943F480239361936913F4802FD6
S214005800FBD010B070BD00BFA408010000B004407B
S2140058100050064000B0064008B50E21212002F0D8
S214005820BDFE00220349212002F068FE212002F07E
S21400583085FE08BD4956000008B500F0B1FB00F033
S21400584089F900F06BFD003018BF012008BD10B5C7
S214005850002303700322427083700122C27002226A
S214005860027143713A238371C41D00F0C7FA0146E2
S2140058702046FFF729FF48F26401FFF725FF00F1F5
S2140058801901064A01E0814206D0137800F8013B70
S214005890002BF8D00132F6E710BD00BFE00A010089
S2140058A030B583B004468578C11C01A8FFF756FFC3
S2140058B03A2D05D92046842300F8013B03B030BDBD
